:100000000C94AE110C94DF110C94DF110C94DF11E1
:100010000C94DF110C94DF110C94DF110C94DF11A0
:100020000C94DF110C94DF110C94DF110C94DF1190
:100030000C94DF110C94DF110C94DF110C94DF1180
:100040000C94DF110C94C6B10C94DF110C94DF11E9
:100050000C94DF110C94DF110C9403AA0C943BA7B1
:100060000C94DF110C9411620C94DF110C94DF11CD
:100070000C94DF110C94DF110C94DF110C94DF1140
:100080000C9465BB0C94DF110C94DF110C94DF1100
:100090000C94DF110C94DF110C94DF110C94DF1120
:1000A0000C94DF110C94DF110C9437BB0C94DF110E
:1000B0000C94DF110C94DF110C94DF110C9409BB2C
:1000C0000C94DF110C94DF110C94DF110C94C0A17F
:1000D0000C9496A10C94DF110C94DF110C94DF1199
:1000E0000C94DF11084AD73B3BCE016E84BCBFFDA8
:1000F000C12F3D6C74319ABD56833DDA3D00C77FF8
:1001000011BED9E4BB4C3E916BAAAABE0000008090
:100110003F05A84CCDB2D44EB93836A9020C50B91F
:10012000918688083CA6AAAA2ABE000000803F004B
:100130004E414E494E495459494E46CDCCCC3D0ACC
:10014000D7233C17B7D13877CC2B329595E6241FAF
:10015000B14F0A000020410000C84200401C462068
:10016000BCBE4CCA1B0E5AAEC59D7400407A10F33B
:100170005A00A0724E18090010A5D4E80000E876D5
:1001800048170000E40B54020000CA9A3B0000002C
:10019000E1F505000080969800000040420F000045
:1001A00000A08601000000102700000000E8030006
:1001B0000000006400000000000A000000000001D0
:1001C00000000000002C76D888DC674F0823DFC1D0
:1001D000DFAE59E1B1B796E5E3E453C63AE651998B
:1001E0007696E8E6C28426EB898C9B62ED407C6FB4
:1001F000FCEFBC9C9F40F2BAA56FA5F490055A2A6B
:10020000F75C936B6CF9676DC11BFCE0E40D47FE76
:10021000F520E6B500D0ED902E030094357705006B
:1002200080841E080000204E0A000000C80C3333F2
:1002300033330F986E12831141EF8D2114893BE601
:100240005516CFFEE6DB18D1844B381BF77C1D908A
:100250001DA4BBE424203284725E228100C9F124F3
:10026000ECA1E53D27434F4D4D554E49434154497F
:100270004F4E0044525952554E004552524F525320
:1002800000494E464F004543484F004D3234004D23
:100290003233202573004D3130362053323535004E
:1002A0004D31303920532569004D313930205325E7
:1002B000690047393220452573004730205A25739D
:1002C000004D31303920532569004D3139302053EC
:1002D0002569004D323400473238004D3432302029
:1002E0005330004D343230205331004731204631F5
:1002F0003030205A300047312058353020593330C3
:1003000030204633363030004731204631303020FF
:100310005A330047312046313030205A30004731BF
:100320002058333030205933303020463336303087
:100330000047312046313030205A330047312046C3
:10034000313030205A300047312058333030205976
:10035000353020463336303000473120463130309A
:10036000205A330047312046313030205A30004780
:100370003120583530205935302046333630300062
:1003800047312046313030205A3300473120463142
:100390003030205A30004731205831383020593120
:1003A0003830204633363030004731204631303047
:1003B000205A33004732390047393000473238007D
:1003C000473238205A3000473238004D3834004721
:1003D000312046323030205A302E3000473238003B
:1003E00047393220452573004730205A2573004D88
:1003F00031303920532569004D313930205325697A
:1004000000473238205830205930004732382058C1
:1004100030205930005072696E7465722073746FA9
:10042000707065642064756520746F206572726FEA
:1004300072732E2046697820746865206572726F29
:100440007220616E6420757365204D3939392074CE
:100450006F20726573746172742E202854656D70FC
:100460006572617475726520697320726573657455
:100470002E20536574206974206166746572207241
:10048000657374617274696E67290A004E6F204C3F
:10049000696E65204E756D6265722077697468209B
:1004A000636865636B73756D2C204C617374204CAD
:1004B000696E653A20004E6F20436865636B737503
:1004C0006D2077697468206C696E65206E756D6249
:1004D00065722C204C617374204C696E653A200063
:1004E000636865636B73756D206D69736D617463AB
:1004F000682C204C617374204C696E653A20004C66
:10050000696E65204E756D626572206973206E6F2D
:1005100074204C617374204C696E65204E756D6259
:1005200065722B312C204C617374204C696E653AD6
:1005300020004D313130004D3331004D38342058DA
:100540002059205A2045005344207265616420657B
:1005500072726F720A00446F6E65207072696E74F9
:10056000696E672066696C650A0020496E76616C69
:1005700069642065787472756465722000000000FB
:100580000000000000000000000000B4430000B4C0
:10059000430000CD434730204633363030205831B9
:1005A000383020593138300042696C696E656172AB
:1005B000204C6576656C696E6720477269643A0AFB
:1005C0000020706F736974696F6E206F7574206F8F
:1005D000662072616E67652E0A003F50726F626519
:1005E000200052756E6E696E6720696E2044525904
:1005F0002D52554E206D6F64650A004732392041F7
:1006000075746F20426564204C6576656C696E6711
:100610000A0028422961636B00284629726F6E74B4
:10062000002852296967687400284C29656674009F
:100630003F2856296572626F7365206C6576656C1C
:1006400020697320696D706C61757369626C6520D7
:1006500028302D34292E0A00426164205A20766108
:100660006C75650A004E6F2062696C696E65617217
:1006700020677269640A0044656C6574696F6E2056
:100680006661696C65642C2046696C653A20004699
:10069000696C652064656C657465643A006F7065AB
:1006A0006E206661696C65642C2046696C653A2031
:1006B000005374616E64617264204465766961748C
:1006C000696F6E3A20002052616E67653A20002003
:1006D0004D61783A2000204D696E3A20004D6561E9
:1006E0006E3A200046696E6973686564210A0020CD
:1006F00072616E67653A2000206D61783A200020B3
:100700006D696E3A2000207369676D613A200020A0
:100710006D65616E3A20003A207A3A2000206F66BB
:100720002000205A00205900205800476F696E674A
:1007300020746F3A00436C6F636B776973650A00CE
:10074000436F756E7465722D002044697265637421
:10075000696F6E3A2000202020616E676C653A2038
:10076000005374617274696E672072616469757395
:100770003A2000506F736974696F6E696E672074F8
:1007800068652070726F62652E2E2E0A003F4E75CE
:100790006D626572206F66206C65677320696E20DC
:1007A0006D6F76656D656E74206E6F7420706C6110
:1007B000757369626C652028302D3135292E0A0049
:1007C000590058003F53616D706C652073697A65FC
:1007D000206E6F7420706C61757369626C6520287F
:1007E000342D3530292E0A004D3438205A2D5072C0
:1007F0006F6265205265706561746162696C6974CD
:100800007920546573740A003F2856296572626F17
:100810007365206C6576656C20697320696D706CFA
:1008200061757369626C652028302D34292E0A00A9
:10083000202F002042403A0020403A004732382022
:1008400058302059300020573A004732382058306D
:100850002059300020573A00205A3A0020593A00D7
:1008600020436F756E7420583A0020453A00205A94
:100870003A0020593A00583A004361703A454D45D4
:100880005247454E43595F5041525345523A300A00
:10089000004361703A434153455F4C494748545FB8
:1008A0004252494748544E4553533A300A00436137
:1008B000703A544F47474C455F4C49474854533A68
:1008C000300A004361703A534F4654574152455FD6
:1008D000504F5745523A300A004361703A4C4556E2
:1008E000454C494E475F444154413A310A00436107
:1008F000703A5A5F50524F42453A310A0043617094
:100900003A4155544F4C4556454C3A310A004361E3
:10091000703A5052494E545F4A4F423A310A0043AE
:1009200061703A50524F47524553533A300A004390
:1009300061703A4155544F5245504F52545F54459F
:100940004D503A310A004361703A454550524F4D7F
:100950003A310A004649524D574152455F4E414D8A
:10096000453A4D61726C696E2056657220312E37A2
:10097000312E30204B4620284B6572736579204616
:1009800061627269636174696F6E732920534F5598
:100990005243455F434F44455F55524C3A68747427
:1009A00070733A2F2F6769746875622E636F6D2FAD
:1009B0004B65727365794661627269636174696FD0
:1009C0006E732F6D61726C696E5F65357020505269
:1009D0004F544F434F4C5F56455253494F4E3A3157
:1009E0002E30204D414348494E455F545950453AB9
:1009F000456E6465722D3520506C757320455854D2
:100A000052554445525F434F554E543A3120555547
:100A100049443A63656465326132662D343161322E
:100A20002D343734382D396231322D633535633604
:100A3000326633363766660A00205A00205900585D
:100A40000020204D61783A2000205A00205900589B
:100A50000020204D696E3A20004F6E20004F6666E0
:100A600000536F667420656E6473746F70733A2000
:100A70000020643A0020693A0020703A002364653F
:100A800066696E65202044454641554C545F4B6471
:100A9000200023646566696E652020444546415503
:100AA0004C545F4B69200023646566696E652020A5
:100AB00044454641554C545F4B70200050494420FA
:100AC0004175746F74756E652066696E69736865CB
:100AD00064212050757420746865206C61737420E3
:100AE0004B702C204B6920616E64204B6420636F37
:100AF0006E7374616E74732066726F6D2062656CC4
:100B00006F7720696E746F20436F6E6669677572C8
:100B10006174696F6E2E680A0050494420417574F3
:100B20006F74756E65206661696C656421207469F7
:100B30006D656F75740A00504944204175746F7477
:100B4000756E65206661696C6564212054656D7001
:100B50006572617475726520746F6F20686967686B
:100B60000A00204B643A2000204B693A2000204BB9
:100B7000703A20000A20436C617373696320504906
:100B800044200A002054753A2000204B753A20007A
:100B9000206D61783A2000206D696E3A2000206453
:100BA0003A200020626961733A20004F66660A00AD
:100BB0004661646520486569676874200042656421
:100BC000204C6576656C696E6720004661696C65CE
:100BD0006420746F20656E61626C652042656420DC
:100BE0004C6576656C696E670A004D6573682070A8
:100BF0006F696E742063616E6E6F7420626520721F
:100C000065736F6C7665640A004D34323120696E0D
:100C1000636F727265637420706172616D65746573
:100C2000722075736167650A004175746F00204515
:100C30002F443D00416476616E6365204B3D004763
:100C4000322F47332062616420706172616D657478
:100C50006572730A005A2070726F6265206F757436
:100C60002E206265640A00473238205A20466F728F
:100C700062696464656E0A0047323900205A3A207E
:100C80000020593A200042656420583A20004D6502
:100C9000736820706F696E742063616E6E6F74206C
:100CA0006265207265736F6C7665640A00456E64D8
:100CB0002066696C65206C6973740A004265676917
:100CC0006E2066696C65206C6973740A002E0A00D8
:100CD00044656C6574696F6E2862696E292066616F
:100CE000696C65640046696C652862696E292064D8
:100CF000656C65746564005344207072696E746934
:100D00006E67206279746520004E6F742053442012
:100D10007072696E74696E670A00256973002569CF
:100D20006D20256973002569682025696D20256976
:100D30007300256964202569682025696D2025696F
:100D40007300256979202569642025696820256953
:100D50006D20256973005072696E742074696D6529
:100D60003A200050726F7465637465642050696E38
:100D70000A006F666600860281027A0273026502CB
:100D800044454255473A004D3131332053006F6B93
:100D9000002F2F200053657474696E6720547261B0
:100DA00076656C20416363656C65726174696F6E12
:100DB0003A200053657474696E67205265747261DD
:100DC000637420416363656C65726174696F6E3A28
:100DD000200053657474696E67205072696E7420C8
:100DE000416363656C65726174696F6E3A2000538C
:100DF000657474696E67205072696E7420616E64E8
:100E00002054726176656C20416363656C65726124
:100E100074696F6E3A20000001363726FF033C3DAF
:100E200038FF0E2E303E12FFFF0C0809FFFFFF1A9D
:100E30001C18FFFF08440AFF43FFFFFFFFFFFF3AB4
:100E4000200020536572766F2000206F7574206F2C
:100E5000662072616E67650A00536572766F2000C6
:100E600043290A0061626C656420286D696E2074F4
:100E7000656D702000436F6C6420657874727564D2
:100E80006573206172652000546F6F206661722067
:100E900066726F6D207265666572656E636520703F
:100EA0006F696E740A00207A70726F62655F7A6F84
:100EB00066667365743D20007A5F6D696E3A202026
:100EC0002D3230207A5F6D61783A20203230005A1E
:100ED000204F666673657420004E6F2063617365F2
:100EE000206C696768740A004163746976652045FF
:100EF000787472756465723A2000556E6B6E6F7708
:100F00006E20636F6D6D616E643A202200526573CE
:100F1000656E643A20006F6B0020746F6F206C6FF9
:100F20006E6720657874727573696F6E2070726574
:100F300076656E7465640A0020636F6C6420657862
:100F400074727573696F6E2070726576656E746504
:100F5000640A00627573793A207061757365642064
:100F6000666F7220696E7075740A00627573793AE3
:100F70002070617573656420666F72207573657289
:100F80000A00627573793A2070726F6365737369D2
:100F90006E670A004B494C4C206361757365642091
:100FA0006279204B494C4C20627574746F6E2F70BF
:100FB000696E0A004B494C4C20636175736564206F
:100FC000627920746F6F206D75636820696E61634C
:100FD000746976652074696D65202D206375727261
:100FE000656E7420636F6D6D616E643A2000000061
:100FF000B4430000B4430000000000004842000079
:10100000484200008040000000005761726E696E27
:10101000673A20486F6D696E672042756D70204495
:10102000697669736F72203C20310A000202040065
:1010300000A0400000A040000000400000B44300B9
:1010400000B4430000CD430101FF62696E004D31E1
:10105000313720494E56414C494420444154412E99
:1010600000473932205A2573204525730062696E86
:10107000007C3C3E5E2B3D3F2F5B5D3B2C2A225C7F
:10108000004572726F722077726974696E6720749E
:101090006F20454550524F4D210A00290A00206219
:1010A000797465733B2063726320005365747469BF
:1010B0006E67732053746F72656420280020286364
:1010C000616C63756C6174656429210A0020213D9F
:1010D0002000454550524F4D20435243206D6973C7
:1010E0006D61746368202D202873746F72656429A4
:1010F0002000290A002062797465733B20637263C3
:1011000020002073746F7265642073657474696E57
:1011100067732072657472696576656420280020A3
:101120004D61726C696E3D563431290A002845457F
:1011300050524F4D3D00454550524F4D20766572FF
:1011400073696F6E206D69736D6174636820004808
:10115000617264636F6465642044656661756C7474
:101160002053657474696E6773204C6F61646564A5
:101170000A00F4010000F401000064000000E8032C
:10118000000000009643000096430000A0400000CD
:10119000C8410000A0420000A042000048440000F6
:1011A000BA4220520020204D393030204B004C698B
:1011B0006E65617220416476616E63653A0A002053
:1011C000204D383531205A005A2D50726F626520FB
:1011D0004F666673657420286D6D293A0A002044B5
:1011E0000020490020204D33303120500050494428
:1011F0002073657474696E67733A0A00205A002080
:10120000204D3432302053004175746F20426564A4
:10121000204C6576656C696E673A0A00205A00209A
:10122000590020204D323036205800486F6D65201F
:101230006F66667365743A0A00204500205A0020E4
:10124000590020580020420020540020204D323008
:1012500035205300416476616E6365643A20533CE7
:101260006D696E5F66656564726174653E20543CAD
:101270006D696E5F74726176656C5F6665656472D8
:101280006174653E20423C6D696E5F7365676D6594
:101290006E745F74696D655F6D733E20583C6D615F
:1012A000785F78795F6A65726B3E205A3C6D617831
:1012B0005F7A5F6A65726B3E20453C6D61785F6561
:1012C0005F6A65726B3E0A002054002052002020A5
:1012D0004D323034205000416363656C6572617437
:1012E000696F6E2028756E6974732F7332293A20E6
:1012F000503C7072696E745F616363656C3E20522E
:101300003C726574726163745F616363656C3E20F7
:10131000543C74726176656C5F616363656C3E0A10
:1013200000204500205A0020590020204D32303145
:101330002058004D6178696D756D20416363656C5F
:1013400065726174696F6E2028756E6974732F738E
:1013500032293A0A00204500205A00205900202056
:101360004D3230332058004D6178696D756D2066BF
:1013700065656472617465732028756E6974732F76
:1013800073293A0A00204500205A002059002020E5
:101390004D39322058005374657073207065722087
:1013A000756E69743A0A0020204D32303020443086
:1013B0000A0020204D3230302044002044697361FF
:1013C000626C65640A0046696C616D656E742073B9
:1013D000657474696E67733A0020204D313439208A
:1013E00043203B20556E69747320696E2043656C01
:1013F000736975730A002020473231202020203B7A
:1014000020556E69747320696E206D6D0A007A5FD5
:101410006D696E3A2000795F6D61783A2000785FDF
:101420006D61783A20005265706F7274696E672042
:10143000656E6473746F70207374617475730A00E1
:1014400020746F6F206C6F6E67206578747275738F
:10145000696F6E2070726576656E7465640A00202F
:10146000636F6C6420657874727573696F6E207039
:10147000726576656E7465640A0024F4D43050C3D6
:101480008E20C2A24017828B7011127A910D816C4E
:10149000D90AA861E108C7586607615143061E4B87
:1014A0005D05C145A7041A411104093D980371392E
:1014B00031034036DB0265339102D4305402802E72
:1014C0001D02632CEE01752AC501B028A00110276A
:1014D00081018F2564012B244B01E0223401AC21D2
:1014E0001F018D200D01801FFC00841EED00971D43
:1014F000DF00B81CD200E61BC600201BBC00641A2B
:10150000B200B219A8000A19A0006A189900D117F0
:10151000910040178B00B516840031167E00B3157C
:1015200079003A157300C7146F0058146A00EE135F
:1015300066008813630025135E00C7125B006C12FF
:10154000570015125400C111510070114F002111A4
:101550004B00D61049008D10470046104400021081
:101560004200C00F4000800F3E00420F3C00060FBB
:101570003B00CB0E3800930E37005C0E3500270E73
:101580003400F30D3200C10D3100900D3000600DBC
:101590002E00320D2D00050D2C00D90C2B00AE0CA9
:1015A0002900850C29005C0C2700350C27000E0C47
:1015B0002600E80B2400C40B2400A00B23007D0BA5
:1015C00023005A0B2100390B2100180B2000F80AC8
:1015D0001F00D90A1E00BB0A1E009D0A1D00800ABA
:1015E0001D00630A1C00470A1B002C0A1B00110A7D
:1015F0001A00F7091A00DD091900C4091900AB091E
:101600001900920917007B091800630917004C099B
:10161000160036091600200916000A091500F508FB
:101620001500E0081400CC081400B8081400A40841
:101630001400900813007D0812006B08130058086E
:101640001200460812003408110023081100120885
:10165000110001081100F0071000E0071000D0078A
:101660001000C0071000B0070F00A107100091077D
:101670000E0083070F0074070F0065070E00570761
:101680000E0049070E003B070D002E070E00200735
:101690000D0013070D0006070D00F9060C00ED06FE
:1016A0000D00E0060C00D4060C00C8060C00BC06B9
:1016B0000C00B0060C00A4060B0099060C008D0669
:1016C0000B0082060B0077060B006C060B00610610
:1016D0000A0057060B004C060A0042060A003806AC
:1016E0000A002E060A0024060A001A060A0010063E
:1016F000090007060A00FD050900F4050900EB05CD
:101700000900E2050900D9050900D0050900C7054F
:101710000900BE050900B5050800AD050800A505CE
:1017200009009C050800940508008C050800840544
:1017300008007C050800740508006C0507006505B5
:1017400008005D050700560508004E05070047051F
:1017500007004005080038050700310507002A0585
:101760000700230507001C050600160507000F05E6
:1017700007000805060002050700FB040600F50443
:101780000700EE040600E8040600E2040700DB049C
:101790000600D5040600CF040600C9040600C304F1
:1017A0000600BD040600B7040600B1040500AC0441
:1017B0000600A6040600A00405009B04060095048C
:1017C0000500900406008A040500850405008004D5
:1017D00006007A04050075040500700405006B041A
:1017E000050066040500610405005C04050057045B
:1017F0000500520405004D0405004804050043049B
:1018000005003E0404003A040500350405003004D8
:1018100004002C04050027040400230405001E0412
:1018200004001A04040016040500110404000D0449
:101830000400090405000404040000040400FC037F
:101840000400F8030400F4030400F0030400EC03B4
:101850000400E8030400E4030400E0030400DC03E4
:101860000400D8030400D4030400D0030400CC0314
:101870000400C8030300C503030024F404D9201B9B
:10188000C40C5C0E9804C4095F0265077101F4057D
:10189000F900FB04B30048048700C1036900580342
:1018A000550003034500BE023A0084023100530292
:1018B0002A002902250004022000E4011C00C801BE
:1018C0001900AF0117009801140084011300710181
:1018D00010006101100051010E0043010D0036019E
:1018E0000B002B010B0020010B00150109000C015E
:1018F000090003010800FB000800F3000800EB00EA
:101900000700E4000600DE000600D8000600D20052
:101910000600CC000500C7000500C2000500BD00A0
:101920000400B9000400B5000400B1000400AD00DB
:101930000400A9000400A5000300A20003009F000A
:1019400004009B0003009800030095000200930030
:101950000300900003008D0002008B00030088004C
:1019600002008600020084000300810002007F0064
:1019700002007D0002007B00020079000200770077
:101980000100760002007400020072000100710084
:1019900002006F0002006D0001006C0002006A008E
:1019A0000100690002006700010066000100650097
:1019B000010064000200620001006100010060009B
:1019C00001005F0002005D0001005C0001005B009F
:1019D00001005A00010059000100580001005700A1
:1019E00001005600010055000100540001005300A1
:1019F000000053000100520001005100010050009E
:101A000001004F0001004E0000004E0001004D009B
:101A100001004C0001004B0000004B0001004A0097
:101A20000100490001004800000048000100470093
:101A3000010046000000460001004500000045008E
:101A40000100440001004300000043000100420087
:101A50000000420001004100000041000100400080
:101A600001003F0000003F0001003E0000003E007A
:101A700001003D0000003D0001003C0000003C0072
:101A800000003C0001003B0000003B0001003A0068
:101A900000003A0001003900000039000100380060
:101AA0000000380000003800010037000000370057
:101AB000010036000000360000003600010035004D
:101AC0000000350000003500010034000000340043
:101AD0000000340001003300000033000000330038
:101AE000010032000000320000003200010031002D
:101AF0000000310000003100010030000000300023
:101B00000000300001002F0000002F0000002F0017
:101B100000002F0001002E0000002E0000002E000B
:101B200001002D0000002D0000002D0000002D0000
:101B300001002C0000002C0000002C0000002C00F4
:101B400001002B0000002B0000002B0000002B00E8
:101B500001002A0000002A0000002A0000002A00DC
:101B600001002900000029000000290000002900D0
:101B700000002900010028000000280000002800C3
:101B800000002800000028000100270000002700B6
:101B900000002700000027000000270001002600A9
:101BA000000026000000260000002600000026009D
:101BB0000100250000002500000025000000250090
:101BC0000000250000002500010024000000240082
:101BD0000000240000002400000024000100230075
:101BE0000000230000002300000023000000230069
:101BF000000023000000230001002200000022005A
:101C0000000022000000220000002200000022004C
:101C1000010021000000210000002100000021003F
:101C20000000210000002100000021000100200030
:101C30000000200000002000000020000000200024
:101C400000002000000020000000200001001F0014
:101C500000001F0000001F0000001F0000001F0008
:101C600000001F0000001F0001001E0000001E00F9
:101C700000001E0000001E0000004D3834205820D7
:101C800059205A2045006265640A002C207379733C
:101C900074656D2073746F70706564212048656190
:101CA0007465725F49443A200048656174696E67E3
:101CB000206661696C65640048656174696E6720BF
:101CC0006661696C65640048656174696E67206669
:101CD00061696C65640048656174696E672066615E
:101CE000696C65640070012C0190012701B001222C
:101CF00001C0011D01F00118011002130130020E94
:101D0000016002090190020401C002FF000003FA11
:101D1000004003F5008003F000D003EB002004E650
:101D2000007004E100E004DC004005D700C005D2EB
:101D3000004006CD00D006C8008007C3003008BEB2
:101D400000F008B900C009B400B00AAF00B00BAA97
:101D500000D00CA500000EA000500F9B00C01096F4
:101D6000005012910000148C00C0158700B017823B
:101D700000B0197D00D01B7800001E730040206E5B
:101D80000090226900F024640040275F0090295AE7
:101D900000E02B5500102E500020304B0010324632
:101DA00000E033410090353C001037370070383286
:101DB00000A0392D00B03A2800A03B2300603C1E53
:101DC00000103D1900903D1400103E0F00703E0AB7
:101DD00000C03E0500003F0000403FFBFF803FF693
:101DE000FFC03FF1FF544845524D414C2052554EE3
:101DF0004157415900546865726D616C2052756E8F
:101E000061776179004572723A204D494E54454DD3
:101E10005020424544004572723A204D494E544587
:101E20004D50004D494E54454D50207472696767BE
:101E300065726564004572723A204D415854454DB3
:101E40005020424544004572723A204D4158544555
:101E50004D50004D415854454D502074726967678C
:101E6000657265640000002100240027002A002D0F
:101E7000003000330001010000040107010A0100E5
:101E8000002200250028002B002E00310034000223
:101E9000010000050108010B0100002000230026BD
:101EA0000029002C002F0032000001000003010671
:101EB00001090105050505070508080808020202D1
:101EC000020A0A08080404040401010101010101D5
:101ED000010303030303030303040707070C0C0CAC
:101EE0000C0C0C0C0C020202020606060606060684
:101EF000060B0B0B0B0B0B0B0B0102102020080821
:101F0000102040102040800201020108040201015B
:101F10000204081020408080402010080402018044
:101F2000040201804020100804020108040201019B
:101F300002040810204080010204081020408000A4
:101F4000000A0B02090C0D0E080703040100000033
:101F50000000000000000000000000000000000081
:101F6000000000000000000000000012111000003E
:101F70000000000000000000000000000000000061
:101F800000000000004D343230205331004D343217
:101F900030205330002020506C616E6E65724275A7
:101FA0006666657242797465733A200020467265F0
:101FB00065204D656D6F72793A2000436F6D7069D1
:101FC0006C65643A204D61792031302032303230F6
:101FD0000A00207C20417574686F723A20456E6457
:101FE00065722D3520506C75730A00323032302DF9
:101FF00030342D303100204C617374205570646191
:102000007465643A200056657220312E37312E30C7
:10201000204B460A004D61726C696E0020536F665A
:1020200074776172652052657365740A0020576188
:10203000746368646F672052657365740A00204298
:10204000726F776E206F75742052657365740A0025
:102050002045787465726E616C2052657365740AF0
:1020600000506F77657255700A0073746172740A5C
:10207000006572726F722077726974696E6720747E
:102080006F2066696C650A00205A3A0020593A00B0
:1020900020583A00656E6473746F707320686974B9
:1020A0003A2000446F6E6520736176696E67206622
:1020B000696C652E0A004D32390050726F62696E8C
:1020C00067206661696C65640A00205A3A20002026
:1020D000593A200042656420583A20005072696ED7
:1020E0007465722073746F70706564206475652008
:1020F000746F206572726F72732E20466978207437
:102100006865206572726F7220616E6420757365F8
:10211000204D39393920746F20726573746172747F
:102120002E202854656D7065726174757265206922
:10213000732072657365742E205365742069742052
:1021400061667465722072657374617274696E671A
:10215000290A0053544F502063616C6C65642062FF
:10216000656361757365206F6620424C546F7563BB
:1021700068206572726F72202D20726573746172AF
:10218000742077697468204D3939390A00206669EE
:102190007273740A005A0059005800486F6D652028
:1021A0000057726974696E6720746F2066696C6588
:1021B0003A20006F70656E206661696C65642C2042
:1021C00046696C653A20006F70656E206661696CC7
:1021D00065642C2046696C653A200046696C652070
:1021E00073656C65637465640A002053697A653AA7
:1021F000200046696C65206F70656E65643A20004A
:102200006F70656E206661696C65642C2046696C30
:10221000653A20002066696C653A20004E6F772091
:10222000002220706F73002220706172656E743A14
:102230002200535542524F5554494E452043414C7C
:102240004C207461726765743A2200747279696E09
:102250006720746F2063616C6C207375622D6763F7
:102260006F64652066696C65732077697468207493
:102270006F6F206D616E79206C6576656C732E20B2
:102280004D4158206C6576656C2069733A00436156
:102290006E6E6F74206F70656E2073756264697204
:1022A00020002E0A006F70656E206661696C65649F
:1022B0002C2046696C653A200057726974696E6714
:1022C00020746F2066696C653A2000534420636176
:1022D0007264206F6B0A006F70656E526F6F7420AE
:1022E0006661696C65640A00766F6C756D652E6950
:1022F0006E6974206661696C65640A0053442069E4
:102300006E6974206661696C0A004D3234004D328A
:1023100033202573006175746F25692E6700656E23
:102320007175657565696E672022006563686F3A2F
:10233000005072696E7465722068616C7465642EF9
:10234000206B696C6C28292063616C6C6564210AC0
:10235000004572726F723A0063E7BBE511241FBE3D
:10236000CFEFD1E2DEBFCDBF00E00CBF15E0A0E0B3
:10237000B2E0EEE1F1E002E00BBF02C007900D9287
:10238000A636B107D9F72CE1A6E6B5E001C01D924B
:10239000AB39B207E1F711E1CDEAD1E100E006C0C7
:1023A00021970109802FFE010E94CCFFCC3AD10772
:1023B00080E00807A9F70E94A9E80D947E000C941C
:1023C0000000CF92DF92EF92FF92CF93DF93EC0168
:1023D000C0902F07D0903007E0903107F09032077F
:1023E000A7019601688179818A819B810E9444F6C8
:1023F00087FF04C0C882D982EA82FB82C09033077B
:10240000D0903407E0903507F0903607A701960189
:102410006C817D818E819F810E9444F687FF04C07C
:10242000CC82DD82EE82FF82C0903707D0903807E1
:10243000E0903907F0903A07A70196016885798501
:102440008A859B850E9444F687FF04C0C886D9868A
:10245000EA86FB86C0901602D0901702E090180220
:10246000F0901902A7019601688179818A819B8188
:102470000E94F2FE181624F4C882D982EA82FB82F6
:10248000C0901A02D0901B02E0901C02F0901D0236
:10249000A70196016C817D818E819F810E94F2FE51
:1024A000181624F4CC82DD82EE82FF82C0901E02D8
:1024B000D0901F02E0902002F0902102A701960127
:1024C000688579858A859B850E94F2FE181624F41A
:1024D000C886D986EA86FB86DF91CF91FF90EF9080
:1024E000DF90CF900895CF92DF92EF92FF92C0904D
:1024F0008707D0908807E0908907F0908A0780913D
:102500008B07882381F120E030E0A901C701B601E3
:102510000E9444F6882339F120E030E040E05FE398
:10252000C701B6010E94A9F69B01AC010E94A9F661
:102530002BED3FE049E450E40E94A9F69B01AC0179
:1025400060E070E080E89FE30E94A8FD6093D507FB
:102550007093D6078093D7079093D807FF90EF909A
:10256000DF90CF90089560E070E080E89FE3EECFC9
:10257000CF92DF92EF92FF92609182077091830772
:10258000072E000C880B990B0E944AF66B017C0108
:102590002DEB37E346E855EB0E94F2FE87FD0BC0BA
:1025A0002DEB37E346E855E3C701B6010E9444F638
:1025B00018160CF043C0A701960160E070E080E8B7
:1025C0009FE30E94A8FD609310077093110780930A
:1025D0001207909313076091840770918507072E67
:1025E000000C880B990B0E944AF66B017C012DEBC5
:1025F00037E346E855EB0E94F2FE87FD0AC02DEB5B
:1026000037E346E855E3C701B6010E9444F61816C1
:10261000CCF4A701960160E070E080E89FE30E949F
:10262000A8FD609314077093150780931607909385
:102630001707FF90EF90DF90CF90089560E070E073
:10264000CB01C1CF60E070E0CB01EBCF80E1E6E8E9
:10265000FDE0A7E4B7E001900D928A95E1F70895B7
:1026600080E1E7E4F7E0A6E8BDE001900D928A95ED
:10267000E1F70895CF92DF92EF92FF920F931F93AD
:10268000CF93DF93EC01CC0FDD1FCC0FDD1FFE01DC
:10269000ED58F24F20E030E0A90160817181828124
:1026A00093810E94CCFCFE01E55CF84F20813181D2
:1026B000428153810E94CCFC6B017C01FE01EA56F1
:1026C000F24FC082D182E282F382FE01E358FA4FD8
:1026D00025913591459154918E01015D184F0E94CD
:1026E000CCFCF8016083718382839383FE01E757FA
:1026F000FA4F2591359145915491CA5EDD4FC7013E
:10270000B6010E94CCFC688379838A839B83DF9126
:10271000CF911F910F91FF90EF90DF90CF90089590
:102720008F929F92AF92BF92EF92FF920F931F935F
:10273000CF93DF938C014A015B01EC01CC0FDD1FCD
:10274000CC0FDD1FCE018A57924F7C01CD58D24F5E
:10275000288139814A815B81CB01B4010E94CBFC85
:10276000F70120813181428153810E94CCFCF70125
:10277000608371838283938388829982AA82BB82D9
:10278000C801DF91CF911F910F91FF90EF90BF9003
:10279000AF909F908F906ECF089590E080E0089565
:1027A0008FB7F8949091DF062091DE06291769F023
:1027B000E92FF0E0E25AF94F208130E09F5F9F77E8
:1027C0009093DF068FBFC90108952FEF3FEFFACF37
:1027D0000F931F93CF93DF93EC010E94F0A40E811F
:1027E0001F8128853985011511052105310579F5E8
:1027F0002C85222339F1EA8521502C8721E02E0FE8
:102800002A873D85231301C01A86F0E03196EE0F2A
:10281000FF1FEE0FFF1FEC0FFD1F028513852485A0
:1028200035850A831B832C833D83600F711F811DB7
:10283000911D6E837F83888799878C819D81892BE9
:1028400009F0409ADF91CF911F910F910895601B7D
:10285000710B820B930B97FDF5CF40981E821F8260
:1028600018861986EFCF80917B0790917C0701979E
:1028700059F40E94B1A670937C0760937B07109275
:10288000790710927A07089510927C0710927B07BF
:10289000F6CFCF93DF93EC0190E080E00E9490B1FF
:1028A00060930407709305078093060790930707CA
:1028B00081E090E00E9490B160930807709309074F
:1028C00080930A0790930B0782E090E00E9490B1FA
:1028D00060930C0770930D0780930E0790930F077A
:1028E00084E097E00E943ECDC436D10561F48CE0CF
:1028F000E4E0F7E0A6E8BDE001900D928A95E1F7EB
:10290000DF91CF910895CC0FDD1FCC0FDD1FFE01AD
:10291000EA57F24FCC5FD84F88819981AA81BB8159
:1029200080839183A283B383EBCFCF92DF92EF9228
:10293000FF92CF936B017C01C0919407C0929007E6
:10294000D0929107E0929207F09293072DEB37E334
:1029500046E855EB0E94F2FE87FD0AC02DEB37E3F7
:1029600046E855E3C701B6010E9444F61816D4F4B0
:10297000A701960160E070E080E89FE30E94A8FD57
:1029800060938C0770938D0780938E0790938F07C9
:10299000CC2361F082E090E0CF91FF90EF90DF9048
:1029A000CF9077CF60E070E0CB01EACFCF91FF907E
:1029B000EF90DF90CF9008958F929F92AF92BF9249
:1029C000CF92EF92FF920F931F93CF93DF93CDB7E8
:1029D000DEB72C970FB6F894DEBF0FBECDBF4B010C
:1029E0005C01C090550680914F0790915007A091CF
:1029F0005107B091520740914B0750914C0760919D
:102A00004D0770914E07009147071091480720919C
:102A1000490730914A0709831A832B833C834D83EE
:102A20005E836F83788789879A87AB87BC8780911D
:102A3000710D81110AC0AE01475F5F4FBE016B5F30
:102A40007F4FCE0101960E94BDCD8501740123E523
:102A500037E0AE01475F5F4FBE016B5F7F4FCE0136
:102A600001960E94F3BE2C960FB6F894DEBF0FBEFF
:102A7000CDBFDF91CF911F910F91FF90EF90CF903D
:102A8000BF90AF909F908F9008952F923F924F925A
:102A90005F926F927F928F929F92AF92BF92CF92EE
:102AA000DF92EF92FF920F931F93CF93DF93CDB7F7
:102AB000DEB7EC970FB6F894DEBF0FBECDBF69AF9F
:102AC0007AAF8BAF9CAF5A8F498F3C8F2B8F809002
:102AD000860D9090870DA090880DB090890D809103
:102AE000960D9091970DA091980DB091990D8D8FA5
:102AF0009E8FAF8FB8A3A0917E07B0917F07BEA332
:102B0000ADA3BD01BB0F880B990B0E944AF66FA3C2
:102B100078A789A79AA78091100790911107A09193
:102B20001207B09113078BA79CA7ADA7BEA7409033
:102B30008A0D50908B0D60908C0D70908D0D809152
:102B40009A0D90919B0DA0919C0DB0919D0D89A324
:102B50009AA3ABA3BCA3A0918007B0918107B8ABA7
:102B6000AFA7BD01BB0F880B990B0E944AF669AB5A
:102B70007AAB8BAB9CAB8091140790911507A09119
:102B80001607B09117078DAB9EABAFABB8AF809176
:102B9000470790914807A0914907B0914A07898B50
:102BA0009A8BAB8BBC8B80914B0790914C07A0917B
:102BB0004D07B0914E078D8B9E8BAF8BB88F2D8DAF
:102BC0003E8D4F8D58A1C501B4010E94CBFC2FA1B1
:102BD00038A549A55AA50E94CBFC2BA53CA54DA51F
:102BE0005EA50E94A9F60E9410FE7B0193E0E91603
:102BF000F1041CF092E0E92EF12CF7FE02C0F12C5A
:102C0000E12C29A13AA14BA15CA1C301B2010E9410
:102C1000CBFC29A93AA94BA95CA90E94CBFC2DA900
:102C20003EA94FA958AD0E94A9F60E9410FE1B01B3
:102C3000633071051CF082E0282E312C37FE02C073
:102C4000312C212C2D8D3E8D4F8D58A169897A898B
:102C50008B899C890E94CBFC2FA138A549A55AA538
:102C60000E94CBFC2BA53CA54DA55EA50E94A9F614
:102C70000E9410FE8B016330710514F002E010E039
:102C800017FF02C010E000E029A13AA14BA15CA10E
:102C90006D897E898F89988D0E94CBFC29A93AA9DC
:102CA0004BA95CA90E94CBFC2DA93EA94FA958AD08
:102CB0000E94A9F60E9410FE6330710514F062E0D4
:102CC00070E077FF02C070E060E0E016F10611F5F9
:102CD0006215730509F0A4C069AD7AAD8BAD9CADEA
:102CE0006BDEEC960FB6F894DEBF0FBECDBFDF9162
:102CF000CF911F910F91FF90EF90DF90CF90BF90F9
:102D0000AF909F908F907F906F905F904F903F908B
:102D10002F90A6CC0E151F050CF082C03E2D62151B
:102D200073050CF466C1262FE016F10609F082C087
:102D30006215730589F2822F022E000C990B01E0B7
:102D400010E002C0000F111F2A95E2F72B8D3C8D79
:102D500020233123232B09F4BFCF20E1E7E4F7E060
:102D6000DE01119601900D922A95E1F720918407DA
:102D700030918507829FB001839F700D929F700DE7
:102D80001124AFA5B8A96A0F7B1F072E000C880B72
:102D9000990B0E944AF629A13AA14BA15CA10E947D
:102DA000CCFC60934B0770934C0780934D07909336
:102DB0004E07A30192010E94CBFC6B017C01A30191
:102DC00092016D897E898F89988D0E94CBFC9B0131
:102DD000AC01C701B6010E94A8FD6B017C01A501F1
:102DE000940169897A898B899C890E94CBFCA7010F
:102DF00096010E94A9F6A50194010E94CCFC609363
:102E00004707709348078093490790934A070095B6
:102E100010952B8D3C8D202331233C8F2B8F7EC032
:102E2000302F621573050CF07ECF222DE016F106CF
:102E300009F481CF832F032E000C990B01E010E0E1
:102E400002C0000F111F3A95E2F7498D5A8D4023B9
:102E50005123452B09F46CCF20E1E7E4F7E0DE01D4
:102E6000119601900D922A95E1F7209182073091F9
:102E70008307829FB001839F700D929F700D112474
:102E80002DA13EA1620F731F072E000C880B990B1A
:102E90000E944AF62D8D3E8D4F8D58A10E94CCFC8C
:102EA00060934707709348078093490790934A07B8
:102EB000A50194010E94CBFC6B017C01A50194014A
:102EC00069897A898B899C890E94CBFC9B01AC0122
:102ED000C701B6010E94A8FD6B017C01A30192010C
:102EE0006D897E898F89988D0E94CBFCA701960100
:102EF0000E94A9F6A30192010E94CCFC60934B07AB
:102F000070934C0780934D0790934E070095109552
:102F1000898D9A8D802391239A8F898F80908E0D31
:102F200090908F0DA090900DB090910DA5019401FF
:102F300060914F077091500780915107909152070F
:102F40000E94CBFCA70196010E94A9F6A50194015D
:102F50000E94CCFC60934F077093500780935107F9
:102F6000909352078090920D9090930DA090940DA5
:102F7000B090950DA501940160915307709154078D
:102F800080915507909156070E94CBFCA7019601AE
:102F90000E94A9F6A50194010E94CCFC60935307FE
:102FA0007093540780935507909356072B8D3C8D53
:102FB000498D5A8D69AD7AAD8BAD9CAD66DD898941
:102FC0009A89AB89BC8989839A83AB83BC838D89B9
:102FD0009E89AF89B88D8D839E83AF83B88780E14A
:102FE000FE013196A7E4B7E001900D928A95E1F7D2
:102FF0006ECD222D1FCFCF92EF92FF920F931F9392
:10300000CF93DF93CDB7DEB72C970FB6F894DEBF22
:103010000FBECDBFC090550680918E0D90918F0D43
:10302000A091900DB091910D40918A0D50918B0D12
:1030300060918C0D70918D0D0091860D1091870D12
:103040002091880D3091890D09831A832B833C834D
:103050004D835E836F83788789879A87AB87BC8728
:103060008091710D81110AC0AE01475F5F4FBE01B3
:103070006B5F7F4FCE0101960E94BDCDE09059025B
:10308000F0905A0200915B0210915C0222E93DE04F
:10309000AE01475F5F4FBE016B5F7F4FCE01019670
:1030A0000E94F3BE2C960FB6F894DEBF0FBECDBFC4
:1030B000DF91CF911F910F91FF90EF90CF900895E6
:1030C0008F929F92AF92BF92CF92EF92FF920F9307
:1030D0001F93CF93DF93CDB7DEB72C970FB6F8943D
:1030E000DEBF0FBECDBFFC012091CF178091CE1760
:1030F00090E001968F7099272817190609F450C09F
:10310000C0905506EE0FFF1FEE0FFF1FEB58FD4F4F
:1031100020E030E040E752E4608171818281938158
:103120000E94A8FD4B015C018091860D9091870D56
:10313000A091880DB091890D89839A83AB83BC835C
:1031400080918A0D90918B0DA0918C0DB0918D0D79
:103150008D839E83AF83B88780918E0D90918F0D64
:10316000A091900DB091910D89879A87AB87BC870C
:10317000AE01475F5F4FBE016B5F7F4FCE0101968F
:103180000E94BDCD8501740122E93DE0AE01475F9B
:103190005F4FBE016B5F7F4FCE0101960E94F3BE71
:1031A0002C960FB6F894DEBF0FBECDBFDF91CF9146
:1031B0001F910F91FF90EF90CF90BF90AF909F9095
:1031C0008F90089580914E0690914F06009731F0B0
:1031D0004AE050E070E060E00C94A1F360E070E041
:1031E000CB010895EFDF97FD0AC0ECDF6F3F71055B
:1031F0008105910509F02CF4E5DF862F089580E024
:1032000008958FEF089580914E0690914F06892B77
:1032100039F0E8DF91E0811101C090E0892F089535
:1032200091E0FCCF4F925F926F927F928F929F922C
:10323000AF92BF92CF92DF92EF92FF920F931F93C4
:10324000CF93DF93CDB7DEB768970FB6F894DEBFA4
:103250000FBECDBF0E94F0A46B017C018091670579
:1032600090916805A0916905B0916A058C159D053E
:10327000AE05BF0508F048C180916202882309F4B9
:1032800043C180916D0590916E05892B09F0A1C213
:103290008091F50D9091F60D2091FA0D222309F4FD
:1032A00089C1181619060CF085C18091AF0590915F
:1032B000B005892B09F07CC084E096E09093741BE4
:1032C0008093731B80EA90E89093761B8093751B24
:1032D00087E08093671B12E810936A1B80EA90E0F6
:1032E000A0E0B0E080936B1B90936C1BA0936D1BD0
:1032F000B0936E1B0E94C19C80915002909151022C
:10330000A0915202B09153020097A105B10509F0B6
:1033100012C11092741B1092731B05E00093671B7F
:1033200010936A1B8AE890E1A0E0B0E080936B1BE9
:1033300090936C1BA0936D1BB0936E1B0E94C19C5D
:1033400089E090E09093741B8093731B0093671B3C
:1033500010936A1B8CE890E1A0E0B0E080936B1BB7
:1033600090936C1BA0936D1BB0936E1B0E94C19C2D
:1033700060915002709151028091520290915302DB
:1033800028E830E140E050E00E94639D60915002E7
:10339000709151028091520290915302982F872F81
:1033A000762F662721EA30E040E050E00E94639DDE
:1033B0008091AF059091B005853691050CF0DBC08A
:1033C0009093741B8093731B85E08093671B82E846
:1033D00080936A1B80E090E1A0E0B0E080936B1BDB
:1033E00090936C1BA0936D1BB0936E1B0E94C19CAD
:1033F0006EE170E080E090E00E9460A48091AF05F3
:103400009091B00501969093B0058093AF05893CEB
:1034100091050CF479C081E090E090936E05809363
:103420006D05C090FC0DD090FD0D10E000E0F12C7A
:10343000E12CCE14DF0409F467C06FEC72E1C8011F
:103440008A54904F0F94210098012E5E3F4F892B94
:1034500009F0ABC081E080936202C801825B914FAA
:103460007C01FC0101900020E9F78E1B9F0B439625
:1034700097FD01968C011595079540E050E260E0BC
:1034800070E0C70110161106C4F4FE0131966F01F9
:1034900084E111928A95E9F7A80161E573E0C6011C
:1034A0000F943F00B701C601800F911F0F942A00AF
:1034B00040E050E260E070E0C6010E94879E80918B
:1034C0001E11882309F468C081E09AE59093741B6B
:1034D0008093731B84E290E09093761B8093751B1E
:1034E00087E08093671B82E880936A1B84E890E002
:1034F000A0E0B0E080936B1B90936C1BA0936D1BBE
:10350000B0936E1B0E94C19C68960FB6F894DEBF04
:103510000FBECDBFDF91CF911F910F91FF90EF9024
:10352000DF90CF90BF90AF909F908F907F906F90E3
:103530005F904F9008950196A11DB11DBC01CD0172
:10354000B5E09695879577956795BA95D1F76150CF
:103550007109810991092AE830E140E050E00E94B8
:10356000639D88E090E09093741B8093731B85E0CB
:103570008093671BEDCE845691099093741B8093C2
:10358000731B85E08093671B82E880936A1B81E050
:1035900090E1A0E0B0E022CF81E09AE59093741B27
:1035A0008093731B8CE490E097CFFFEFEF1AFF0A34
:1035B00089013FCF892B09F00CC18091AF05909113
:1035C000B005892B09F07CC084E096E09093741BD1
:1035D0008093731B80EA90E89093761B8093751B11
:1035E00087E08093671B12E810936A1B80EA90E0E3
:1035F000A0E0B0E080936B1B90936C1BA0936D1BBD
:10360000B0936E1B0E94C19C809150029091510218
:10361000A0915202B09153020097A105B10509F0A3
:103620009EC01092741B1092731B05E00093671BE1
:1036300010936A1B8AE890E1A0E0B0E080936B1BD6
:1036400090936C1BA0936D1BB0936E1B0E94C19C4A
:1036500089E090E09093741B8093731B0093671B29
:1036600010936A1B8CE890E1A0E0B0E080936B1BA4
:1036700090936C1BA0936D1BB0936E1B0E94C19C1A
:1036800060915002709151028091520290915302C8
:1036900028E830E140E050E00E94639D60915002D4
:1036A000709151028091520290915302982F872F6E
:1036B000762F662721EA30E040E050E00E94639DCB
:1036C0008091AF059091B005853691050CF067C0EB
:1036D0009093741B8093731B85E08093671B82E833
:1036E00080936A1B80E090E1A0E0B0E080936B1BC8
:1036F00090936C1BA0936D1BB0936E1B0E94C19C9A
:103700006EE170E080E090E00E9460A48091AF05DF
:103710009091B00501969093B0058093AF05893CD8
:1037200091050CF4F1CE81E090E090936E058093CA
:103730006D0521E0209362021092EE0D20EA3FE039
:1037400030934C0D20934B0D20911E112223C1F17B
:1037500021E03AE53093741B2093731BBDCE019694
:10376000A11DB11DBC01CD01E5E09695879577952A
:103770006795EA95D1F761507109810991092AE8A5
:1037800030E140E050E00E94639D88E090E090933B
:10379000741B8093731B85E08093671B61CF8456F5
:1037A00091099093741B8093731B85E08093671B32
:1037B00082E880936A1B81E090E1A0E0B0E096CFC0
:1037C00081E09AE59093741B8093731B8DE290E0E7
:1037D00083CE8091EE0D882309F4DAC180915707DA
:1037E00090915807A0915907B0915A07892B8A2BBD
:1037F0008B2B09F4CDC10E94B1A64B015C0120E1E5
:103800003EE040E050E00E946EFC2D8B3E8B4F8BE3
:10381000588F2B013C0120E130E140E050E06D8900
:103820007E898F89988D0E94639DC301B2012CE32C
:1038300030E040E050E00E946EFCCA01B90122E194
:1038400030E140E050E00E94639D80916D18882334
:1038500009F425C110913B1A112309F479C0809114
:10386000041B9091051BA091061BB091071B0097AC
:10387000A105B10509F46CC0BC01CD016D597F4FA4
:103880008F4F9F4F24E630E040E050E00E946EFCF6
:103890006091081B7091091B80910A1B90910B1B72
:1038A0000E946EFC80910002909101022817190677
:1038B00009F4F5C0112309F485C38091041B90918C
:1038C000051BA091061BB091071B0097A105B10530
:1038D00009F478C3BC01CD016D597F4F8F4F9F4FC5
:1038E00024E630E040E050E00E946EFC6091081B4E
:1038F0007091091B80910A1B90910B1B0E946EFC1A
:10390000222309F45FC32F5F20936605233310F54C
:1039100030E0220F331F3093741B2093731B05E09C
:103920000093671B12E810936A1B8EE090E1A0E001
:10393000B0E080936B1B90936C1BA0936D1BB093B6
:103940006E1B0E94C19C1092741B1092731B27C0A7
:1039500020E0A8CF84E690E09093741B8093731BC3
:1039600005E00093671B12E810936A1B8EE090E15C
:10397000A0E0B0E080936B1B90936C1BA0936D1B39
:10398000B0936E1B0E94C19C8091660590E08253AB
:103990009048880F991F9093741B8093731B00931A
:1039A000671B10936A1B8FE090E1A0E0B0E080936A
:1039B0006B1B90936C1BA0936D1BB0936E1B0E94AE
:1039C000C19C80913B1A882309F401C38091041B98
:1039D0009091051BA091061BB091071B0097A105B4
:1039E000B10509F4F4C2BC01CD016D597F4F8F4F71
:1039F0009F4F24E630E040E050E00E946EFC609172
:103A0000081B7091091B80910A1B90910B1B0E944F
:103A10006EFC30E03093741B2093731B85E0809321
:103A2000671B82E880936A1B86E190E1A0E0B0E02A
:103A300080936B1B90936C1BA0936D1BB0936E1BBC
:103A40000E94C19C80913B1A882309F4C2C28091D4
:103A5000041B9091051BA091061BB091071B0097BA
:103A6000A105B10509F4B5C2BC01CD016D597F4F67
:103A70008F4F9F4F24E630E040E050E00E946EFC04
:103A80006091081B7091091B80910A1B90910B1B80
:103A90000E946EFC30E030930102209300022091DE
:103AA0006D0D30916E0D40916F0D5091700D6091C4
:103AB000E90D7091EA0D8091EB0D9091EC0D0E9453
:103AC00044F6882391F00E9421D98091E90D9091CC
:103AD000EA0DA091EB0DB091EC0D80936D0D9093DC
:103AE0006E0DA0936F0DB093700D80910602882328
:103AF00009F44EC080916D18882309F449C020E074
:103B000030E040E050E460918E0D70918F0D809117
:103B1000900D9091910D0E94F2FE1816CCF58091B7
:103B20007B0790917C07845D9E4F092E000CAA0BA9
:103B3000BB0B88159905AA05BB0550F580914F026E
:103B4000882321F18091830D9091840D9093B2058B
:103B50008093B1051092840D1092830D1092741B06
:103B60001092731B85E08093671B82E880936A1B29
:103B70008AE390E1A0E0B0E080936B1B90936C1B14
:103B8000A0936D1BB0936E1B0E94C19C1092060205
:103B90006091FD167091FE168091FF1690910017AE
:103BA0000E9410FE7093741B6093731B05E00093DA
:103BB000671B12E810936A1B86E390E1A0E0B0E077
:103BC00080936B1B90936C1BA0936D1BB0936E1B2B
:103BD0000E94C19C60915F0D7091600D8091610D9C
:103BE0009091620D0E9410FE7093741B6093731B82
:103BF0000093671B10936A1B8CE390E1A0E0B0E098
:103C000080936B1B90936C1BA0936D1BB0936E1BEA
:103C10000E94C19C40916B0D50916C0D2091830DC1
:103C20003091840D8091FB169091FC16421753073A
:103C300041F42091630D3091640D2817390709F480
:103C40009CC00E9485A78091830D9091840D8E3732
:103C5000910514F08DE790E09093840D8093830D8F
:103C60000E948AA78091FB169091FC169093741B7A
:103C70008093731B05E00093671B12E810936A1B87
:103C800084E390E1A0E0B0E080936B1B90936C1B09
:103C9000A0936D1BB0936E1B0E94C19C8091830DFD
:103CA0009091840D9093741B8093731B0093671BFA
:103CB00010936A1B8AE390E1A0E0B0E080936B1B55
:103CC00090936C1BA0936D1BB0936E1B0E94C19CC4
:103CD00080916D18811141C060916B0D70916C0DD8
:103CE0004091830D5091840D6417750764F0209105
:103CF000630D3091640D8091FB169091FC1628178E
:103D000039070CF06BC180911E11882309F463C13F
:103D100081E090E09093741B8093731B85E0809307
:103D2000671B82E880936A1B84E190E1A0E0B0E029
:103D300080936B1B90936C1BA0936D1BB0936E1BB9
:103D40000E94C19C10924C0D10924B0D8091F20D6F
:103D5000811101C081E08093F20D8091830D9091DB
:103D6000840D90936C0D80936B0D8091FB16909158
:103D7000FC169093640D8093630D80918E058111E4
:103D800005C080919005882309F4DAC00091FB16E4
:103D90001091FC160115110509F120E030E048EC06
:103DA00052E46091FD167091FE168091FF1690917D
:103DB00000170E94A9F64B015C01B801110F880B96
:103DC000990B0E944AF69B01AC01C501B4010E9407
:103DD000A8FD0E9415FE6536710510F064E670E0DE
:103DE0007093741B6093731B05E00093671B12E8CC
:103DF00010936A1B84E290E1A0E0B0E080936B1B1B
:103E000090936C1BA0936D1BB0936E1B0E94C19C82
:103E10006091FB167091FC16072E000C880B990B15
:103E20000E944AF69B01AC016091FD167091FE164E
:103E30008091FF16909100170E94F2FE87FD5CC1F1
:103E400080918E05882309F404C110928F05109289
:103E50008E0520E030E040E251E4609185057091EC
:103E6000860580918705909188050E94A9F60E9499
:103E700010FE7093741B6093731B0093671B109369
:103E80006A1B84E590E1A0E0B0E080936B1B909307
:103E90006C1BA0936D1BB0936E1B0E94C19C20E015
:103EA00030E040E251E46091890570918A0580918B
:103EB0008B0590918C050E94A9F60E9410FE7093CC
:103EC000741B6093731B0093671B10936A1B88E538
:103ED00090E1A0E0B0E080936B1B90936C1BA093EB
:103EE0006D1BB0936E1B0E94C19C80911E11882394
:103EF00009F4A6C081E09AE59093741B8093731B2C
:103F000087E190E09093761B8093751B87E0809308
:103F1000671B10936A1B84E890E0A0E0B0E08093F8
:103F20006B1B90936C1BA0936D1BB0936E1B0E9438
:103F3000C19C83E090E0C4D88091840580935506AD
:103F40008091EF0D882329F180918D0591E0980FE4
:103F500090938D0590E09093741B8093731B85E084
:103F60008093671B82E880936A1B82E490E1A0E063
:103F7000B0E080936B1B90936C1BA0936D1BB09370
:103F80006E1B0E94C19C80918D058A3010F01092AA
:103F90008D0560914B0D70914C0D072E000C880B18
:103FA000990B6053784F8F4F9F4FC60ED71EE81E58
:103FB000F91EC0926705D0926805E0926905F092FB
:103FC0006A05A2CA1092741B1092731BA8CC20E041
:103FD00020CD20E05FCD8DE090E09CCE46175707C6
:103FE00024F0821793070CF0B8CE80911E1188231D
:103FF00021F188E090E09093741B8093731B85E01F
:104000008093671B82E880936A1B84E190E1A0E0C3
:10401000B0E080936B1B90936C1BA0936D1BB093CF
:104020006E1B0E94C19C10924C0D10924B0D809102
:10403000F20D811190CE82E08ECE84E190E0DBCF54
:1040400081E09AE59093741B8093731B81E490E068
:1040500059CF80919005882309F44EC010929005A5
:104060001092B0051092AF0581E08093EE0D84E0D0
:1040700090E09093741B8093731B0093671B1093C5
:104080006A1B8EE890E1A0E0B0E080936B1B9093F8
:104090006C1BA0936D1BB0936E1B0E94C19C809102
:1040A0001E11882301F181E09AE59093741B80939F
:1040B000731B88E090E09093761B8093751B87E0DC
:1040C0008093671B10936A1B84E890E0A0E0B0E047
:1040D00080936B1B90936C1BA0936D1BB0936E1B16
:1040E0000E94C19C2DCF81E09AE59093741B809330
:1040F000731B83E590E0DFCF80919005882309F45E
:104100001FCF8091AF059091B0059C012F5F3F4F6D
:104110003093B0052093AF0565E070E00E94B9FFD1
:104120009093741B8093731B85E08093671B82E8D8
:1041300080936A1B8EE890E1A0E0B0E0C9CFAF9217
:10414000BF92CF92DF92EF92FF920F931F93CF9384
:10415000DF931F92CDB7DEB76C018B0159018091BF
:104160007D0781111BC07B01E40EF51EF6018081E5
:1041700091810E9449FC8983F80181938F01BE01DE
:104180006F5F7F4FC5010E94D69EF60180819181AD
:10419000019691838083E016F10641F70F90DF913D
:1041A000CF911F910F91FF90EF90DF90CF90BF9034
:1041B000AF9008950E949CBD0E9491CE0E94731200
:1041C00090E080E00E943A1381E090E00E943A1370
:1041D00082E090E00E943A136091900770919107FD
:1041E00080919207909193070E9495140E94EC9EF3
:1041F0000C94B812FC0120E03EE2DB014D91BD01C0
:10420000403249F0283011F430833196DB011197A8
:104210004C91408331962F5F2B3079F710820895AF
:1042200061E0FC0180810C94F6A18EBD0DB407FE07
:10423000FDCF08958FEF8EBD0DB407FEFDCF8EB577
:1042400008958F929F92AF92BF92EF92FF920F9339
:104250001F93CF937C01C62F49015A01FC01928123
:10426000892F806A86958CBD90FD03C081E09630D1
:1042700009F480E08DBD60E0F70180810E94F6A125
:104280008CE291E00E945DA58C2F8064CEDF08E176
:1042900010E0D501C401002E04C0B695A7959795EE
:1042A00087950A94D2F7C1DF08501109083FFFEF44
:1042B0001F0779F785E9CC2321F087E8C83009F09A
:1042C0008FEFB3DFCC3009F4B5DFC0E0B3DFF70127
:1042D000838387FF04C0CF3F11F0CF5FF7CFCF912B
:1042E0001F910F91FF90EF90BF90AF909F908F9094
:1042F00008950F931F93CF93DF93EC0189018C8175
:10430000833039F089E0440F551F661F771F8A9567
:10431000D1F79A01AB0168E1CE0193DF882319F050
:1043200086E0898335C08EEF8EBDF801C8019E5F9F
:104330000DB407FEFDCF20812EBD0DB407FEFDCFCD
:1043400021812EBD3296E817F90791F70DB407FECB
:10435000FDCF8FEF6ADF8FEF68DF6CDF8B838F71AC
:10436000853091F488E592E00E945DA5182F87E1E1
:104370001123B9F220E030E0A9016DE0CE0161DF48
:10438000882351F086E1CDCF83E18983CE0148DFD8
:10439000CE0146DF10E005C04DDF8111F3CFCE0125
:1043A0003FDF812FDF91CF911F910F910895CF9320
:1043B00080917415C1E0882399F040916C1550915B
:1043C0006D1560916E1570916F152CE633E180913B
:1043D0007515909176158DDFC82F811104C0C0E04E
:1043E0008C2FCF9108954091701550917115609167
:1043F000721570917315411551056105710589F0AC
:104400002CE633E1809175159091761572DF882343
:1044100031F310927015109271151092721510925E
:10442000731510927415DCCFEF92FF920F931F93C8
:10443000CF93DF93EC0179018C81833039F089E0EF
:10444000440F551F661F771F8A95D1F79A01AB015C
:1044500061E1CE01F6DE882331F084E08983CE016C
:10446000DFDE80E034C00E94F0A48B01E3DE8B83AA
:104470008F3F71F40E94F0A4601B710B6D3271408C
:10448000A8F381E18983CE01CBDE8FEFCEDEE9CFC9
:104490008E3F11F08FE0F6CF8FEF8EBDF701D70181
:1044A000A150BE4F0DB407FEFDCF9EB591938EBDBA
:1044B000AE17BF07B9F70DB407FEFDCF8EB58C93CD
:1044C000B9DEB8DECE01ACDE8FEFAFDE81E0DF918A
:1044D000CF911F910F91FF90EF900895CF92DF92AF
:1044E000EF92FF92CF936B017C01C42F80916C15EA
:1044F00090916D15A0916E15B0916F158C159D055D
:10450000AE05BF05F1F053DF811108C0C0E08C2F6C
:10451000CF91FF90EF90DF90CF9008952CE633E19C
:10452000B701A60180917515909176157DDF8823DE
:1045300069F3C0926C15D0926D15E0926E15F092F1
:104540006F15CC2321F081E080937415E0CFC1E09A
:10455000DECF4F925F926F927F928F929F92AF9237
:10456000BF92CF92DF92EF92FF920F931F93CF9360
:10457000DF93EC01423051056105710590F480E054
:10458000DF91CF911F910F91FF90EF90DF90CF902F
:10459000BF90AF909F908F907F906F905F904F9063
:1045A000089589859A85AB85BC850196A11DB11DAD
:1045B00084179507A607B70710F38F898031C1F5D7
:1045C000852E962EA72EBB248B899C89AD89BE890A
:1045D000880E991EAA1EBB1E280139016A017B01A3
:1045E00041E0C501B4017ADF882349F29F89903107
:1045F00081F5DD24EE24FF24F601EE0FFF1FE459C0
:10460000FC4E118300839A89923008F4B9CF4D8112
:104610005E816F817885840E951EA61EB71E8092DE
:10462000701590927115A0927215B0927315A8CF63
:10463000803209F0A4CF8B899C89AD89BE894A015B
:104640005B01E7E0B694A79497948794EA95D1F735
:10465000BFCFE894C7F8DD24EE24FF24F601EE0F67
:10466000FF1FEE0FFF1FE459FC4E40825182628211
:104670007382C9CFCF92DF92EF92FF920F931F9375
:10468000CF93DF93FC0181859285A385B485019644
:10469000A11DB11D84179507A607B70750F480E048
:1046A000DF91CF911F910F91FF90EF90DF90CF900E
:1046B000089587898031A9F5BB27A72F962F852FCD
:1046C000C388D488E588F6888C0D9D1DAE1DBF1D5E
:1046D000E9016A017B018F0140916C1550916D15C4
:1046E00060916E1570916F1584179507A607B7072F
:1046F00049F5F8018789803161F5B701A601552791
:1047000066277727440F551F44595C4EFA01808174
:104710009181B0E0A0E088839983AA83BB8381E084
:10472000BFCF803209F0BBCFC388D488E588F68834
:10473000DB01CA01C7E0B695A79597958795CA95FD
:10474000D1F7C2CF40E0BC01CD01C8DE8111D1CF8D
:10475000A6CFB701A6014F77552766277727440FC5
:10476000551F440F551F44595C4EFA0180819181B9
:10477000A281B381BF70CFCF4F925F926F927F9231
:10478000AF92BF92CF92DF92EF92FF920F931F935F
:10479000CF93DF9300D01F92CDB7DEB78C01498352
:1047A0005A836B837C835901C12CD12C7601412C17
:1047B00082E0582E612C712C49815A816B817C8159
:1047C0009E012F5F3F4FC80155DF882319F1F80183
:1047D0008585A301920104C0220F331F441F551F7A
:1047E0008A95D2F7DA01C901C80ED91EEA1EFB1E4E
:1047F00049815A816B817C8187898031F1F481E024
:10480000483F5F4F61057105B8F2F501C082D18262
:10481000E282F3820F900F900F900F90DF91CF9173
:104820001F910F91FF90EF90DF90CF90BF90AF90CE
:104830007F906F905F904F90089581E0483F5F4F69
:104840006F4F7F4008F4B8CFE0CF0F931F93CF9303
:10485000DF93FC012381222331F080E0DF91CF91AF
:104860001F910F9108958B01EC01FB018789803125
:1048700039F582E08B831D8A1E8A1F8A188E808DEF
:10488000918DB0E0A0E025E0880F991FAA1FBB1F03
:104890002A95D1F7898B9A8BAB8BBC8B1A8F098F9A
:1048A00081E089831C821D821E821F8218861986E0
:1048B0001A861B861C861D861E861F86188ACECFEA
:1048C000803259F683E08B83428D538D648D758DD4
:1048D0004D8B5E8B6F8B788F9E012F5E3F4FC80193
:1048E0004BDF8111DBCFB9CF8F929F92AF92BF92F6
:1048F000CF92DF92EF92FF920F931F93CF93DF93AC
:10490000EC018B8181110EC080E0DF91CF911F916E
:104910000F91FF90EF90DF90CF90BF90AF909F905E
:104920008F90089509891A892B893C8904171507E6
:104930002607370748F34A015B01823031F4888645
:104940009986AA86BB8681E0E0CF81149104A104F8
:10495000B10449F41C821D821E821F8218861986AA
:104960001A861B86F0CF088519852A853B85E98D37
:10497000FA8D858590E00996B901A8014150510949
:1049800061097109082E04C076956795579547957A
:104990000A94D2F775016401E1E0CE1AD108E1086A
:1049A000F10804C0F694E794D794C7948A95D2F797
:1049B000C416D506E606F70620F0012B022B032BC2
:1049C00009F58D899E89AF89B88D8C839D83AE83CF
:1049D000BF838E010C5F1F4FC114D104E104F104A9
:1049E00009F4ADCF4C815D816E817F819801898D05
:1049F0009A8D40DE91E0C91AD108E108F1088111D1
:104A0000EBCF82CFC41AD50AE60AF70AE2CF40E01C
:104A100050E0BA0169CF3F924F925F926F927F92BE
:104A20008F929F92AF92BF92CF92DF92EF92FF92BE
:104A30000F931F93CF93DF93CDB7DEB72C970FB6AD
:104A4000F894DEBF0FBECDBF5C01DC0159968D909E
:104A50009C90F40181859285A385B4859C01AD016C
:104A60002F5F3F4F4F4F5F4F29873A874B875C87B8
:104A7000D50114964D905D906D907C9017974114E0
:104A800051046104710409F458C0BFEF4B1A5B0A6A
:104A90006B0A7B0A312C730162011D821E821F8208
:104AA0001886F40181859285A385B4852D813E8188
:104AB0004F815885281739074A075B0708F054C00B
:104AC00089859A85AB85BC858C159D05AE05BF058E
:104AD00050F482E0C82ED12CE12CF12C92E0492E2A
:104AE000512C612C712C9E012F5F3F4FB701A60105
:104AF000C401C0DD8823C1F189819A81AB81BC8169
:104B0000892B8A2B8B2B01F1260137019FEF491A44
:104B1000590A690A790A2D813E814F8158852F5F94
:104B20003F4F4F4F5F4F2D833E834F8358873FEF5B
:104B3000C31AD30AE30AF30AB4CF408051806280DB
:104B4000738033243394A7CFC414D504E604F70448
:104B500011F70FEF1FEF2FEF3FE0B701A601C401E0
:104B6000F8DC782E81111AC0712C872D2C960FB687
:104B7000F894DEBF0FBECDBFDF91CF911F910F9193
:104B8000FF90EF90DF90CF90BF90AF909F908F906D
:104B90007F906F905F904F903F900895F501448112
:104BA000558166817781411551056105710531F0A7
:104BB00097018601C401CDDC8823B1F2D50114969A
:104BC000CD92DD92ED92FC921797332051F0D701F0
:104BD000C6010196A11DB11DF40180839183A283BA
:104BE000B383F50185899689A789B08D892B8A2B96
:104BF0008B2B09F0BACFC58AD68AE78AF08E8181DD
:104C000080688183B2CFCF93DF93EC01462F417050
:104C10006C857D858E859F8561DC882351F0888930
:104C200020E2829FC001112484599C4EDF91CF91D4
:104C3000089590E080E0FACFCF93DF93EC018B8171
:104C4000882339F1898187FF21C061E0CE01DBDF54
:104C5000FC01892BF1F08081853ED9F08B81823077
:104C600040F489899A89AB89BC89848F958FA68FF6
:104C7000B78F8D899E89938F828F8D899E89AF8909
:104C8000B88DB58BA48B89818F778983DF91CF9184
:104C90008ECB81E0888380E0DF91CF9108952F92C1
:104CA0003F924F925F926F927F928F929F92AF92BC
:104CB000BF92CF92DF92EF92FF920F931F93CF9309
:104CC000DF9300D01F92CDB7DEB78C014B011A01E4
:104CD000DC0113968C911397813009F0C7C01196AF
:104CE0008C9181FFC3C082FDAEC06101D8011896CE
:104CF0004D915D916D917C911B97C114D10409F484
:104D000014C159968D919C915A97FC0174802FEF94
:104D1000270D2A013B0139E0769467945794479414
:104D20003A95D1F7722E74207A01F1E0FF227110CA
:104D30001FC0E114F104E1F414964D915D916D9161
:104D40007C911797411551056105710509F094C0D3
:104D500055968D919D910D90BC91A02D0097A10528
:104D6000B10509F0A1C0C80156DE882309F47EC050
:104D700080E092E08E199F0956018C159D0508F47C
:104D80005C01D80159964D915C915A9714968D917A
:104D90009D910D90BC91A02D0297A109B109FA0136
:104DA000258504C0880F991FAA1FBB1F2A95D2F71B
:104DB0004685578560897189840F951FA61FB71F87
:104DC0009C01AD01270D311D411D511D29013A01E5
:104DD000A11432E0B30609F075C080916C15909172
:104DE0006D15A0916E15B0916F15481659066A069B
:104DF0007B0669F4109274158FEF9FEFDC018093AE
:104E00006C1590936D15A0936E15B0936F1594016A
:104E1000B301A20180917515909176156ADA882305
:104E200029F1F80180859185A285B3858A0D9B1DA6
:104E3000A11DB11D80879187A287B3878A0C9B1C17
:104E4000CA18DB0853CFF8014189528963897489F4
:104E500080859185A285B385481759076A077B0726
:104E600009F443CFC80140DD81113FCF81E0D80173
:104E70008C938FEF9FEF6FC09E012F5F3F4FFADB48
:104E80008823A1F389819A81AB81BC81F801218DAE
:104E9000328DF9012789203169F4883FFFEF9F07A0
:104EA000A105B10508F05FCFF80184839583A6833F
:104EB000B7835ECF883F2FEF9207A2072FE0B2079C
:104EC00098F351CFE114F10449F5D80118964D91AA
:104ED0005D916D917C911B9751968D919D910D9057
:104EE000BC91A02D481759076A077B07B8F05FDA15
:104EF000882309F4BBCF81E08093741540926C1530
:104F000050926D1560926E1570926F15A501B401E7
:104F1000C70184599C4E0E94EFFF83CF41E0C3013B
:104F2000B201DCDA8111F2CFA1CFF8018189928937
:104F3000A389B48984179507A607B70738F4818138
:104F4000418B528B638B748B80688183F8018181E4
:104F500083FD18C0C1010F900F900F900F90DF914B
:104F6000CF911F910F91FF90EF90DF90CF90BF9066
:104F7000AF909F908F907F906F905F904F903F90F9
:104F80002F900895C80158DE8111E4CF6FCFCF93E1
:104F9000DF931F92CDB7DEB7698341E050E0BE01D9
:104FA0006F5F7F4F04967BDE0F90DF91CF91089566
:104FB000CF93DF93EC0140DE1B82DF91CF91089508
:104FC000FC0123812111F4CF0895CF93DF93EB01EE
:104FD000FC012381211104C080E0DF91CF9108956D
:104FE0002250223028F48FE28883198281E0F5CFA5
:104FF00060E009DE009781F3DC0160E080E09EE282
:105000002D91203299F0883031F49E01260F311D08
:10501000F90190836F5F9E01260F311DAD01415054
:105020005109FA014081F90140836F5F8F5F8B3036
:1050300039F7FE01E60FF11D1082D8CF2F923F9273
:105040004F925F926F927F928F929F92AF92BF9298
:10505000CF92DF92EF92FF920F931F93CF93DF9344
:1050600000D01F92CDB7DEB79C838B834B017A01B2
:10507000DC0113968C91811119C08FEF9FEF0F9077
:105080000F900F900F90DF91CF911F910F91FF9094
:10509000EF90DF90CF90BF90AF909F908F907F90D8
:1050A0006F905F904F903F902F900895EB81FC811F
:1050B000818180FFE2CF018912892389348940856B
:1050C000518562857385C701B0E0A0E028013901F0
:1050D000441A550A660A770A481659066A067B0674
:1050E00018F47801E41AF50A67018B819C81049613
:1050F0009A838983612C32E0732EC114D10409F4A0
:10510000B4C0AB81BC8118964D915D916D917C913D
:105110001B975A01B1E0BB22EB81FC81818D928DFE
:105120001A012B0129E056944794379427942A9525
:10513000D1F72381223089F5DC015A966D917D915A
:105140008D919C915D97620D731D841D951D83014A
:105150000A191B09C016D10608F486010115B2E030
:105160001B0771F420916C1530916D1540916E15EF
:1051700050916F15621773078407950709F057C0A0
:1051800040E0ACD9882309F478CFB50164597C4E4E
:10519000A801C4010E94EFFF55C0FC011481115009
:1051A0001221A114B10481F411110EC0452B462B1C
:1051B000472B79F5EB81FC8185899689A789B08D8C
:1051C00084839583A683B783AB81BC815996ED9187
:1051D000FC915A9714966D917D918D919C911797A2
:1051E0006250710981099109258504C0660F771FF6
:1051F000881F991F2A95D2F72685378540895189BE
:10520000620F731F841F951F610F711D811D911DFA
:105210009ECFAB81BC8114964D915D916D917C9137
:10522000179729813A8126DA8111CECF26CF9401B2
:10523000AB01BC018091751590917615F5D8882346
:1052400009F41BCF800E911EEB81FC818085918536
:10525000A285B385800F911FA11DB11D8087918705
:10526000A287B387C01AD10A48CFC70108CFDF92FF
:10527000EF92FF920F931F93CF93DF938C01EB017B
:105280007A018DE0D82E40E250E0BE01C801D6DEA2
:105290008032910571F021E0892B09F420E0822F02
:1052A0008195DF91CF911F910F91FF90EF90DF904B
:1052B000089528812223C1F1253E29F32E3219F3C6
:1052C000E114F10439F13B853F733F3019F54A8D04
:1052D0005B8D452BF9F42F713FEF320F3230D0F454
:1052E0002150330BD29EC001D39E900D1124D701C3
:1052F000A80FB91FFE0120E0AD01253078F43181FF
:105300003D932F5F32962D30C1F7288126FF02C0D2
:10531000FA0115862B8523FDB6CFC3CF2B3010F4B1
:105320003481EECF3681ECCF80E0BBCF4F925F92DD
:105330006F927F92AF92BF92CF92DF92EF92FF92E5
:105340000F931F93CF93DF931F92CDB7DEB78C01DE
:105350007B015A01C22EDB0159968D919C91F80177
:10536000928F818FCB0153DB712CF7018085918562
:10537000A285B38541895289638974898417950709
:10538000A607B70708F051C055E0B695A7959795C1
:1053900087955A95D1F7F82FFF70DF2ED701139616
:1053A0008C91823010F480E0D9C041E050E0BE0121
:1053B0006F5F7F4FC70142DE0197A9F7F701808534
:1053C0009185A285B3854F96A11DB11D80879187D8
:1053D000A287B387F0E2DF9EB001112464597C4EAE
:1053E0006115710501F3DB018C91882341F0853E45
:1053F00009F04BC0772029F077247394B6CF711051
:105400000EC080916C1590916D15A0916E15B091A4
:105410006F15F80184879587A687B787D08ADB0147
:105420008C918111E9CF772473948C2D827482340E
:1054300009F0B9CF772009F4A1C0F801D08861E064
:10544000C801E1DB009709F4AECF20E2DC011D9238
:105450002A95E9F72BE0F501DC0101900D922A95E0
:10546000E1F721E238E2FC01318B208B40E058E08B
:1054700057874687338B228B318F208F578B468BF4
:105480000E94D721811109C08ECF4BE050E0C501A9
:105490000E94E2FF892B09F068CFF0E2DF9ED00185
:1054A00011249D0124593C4EF9018385817121F01D
:1054B0008C2D827109F0FAC0F801818D928D409196
:1054C0006C1550916D1560916E1570916F15448734
:1054D000558766877787D08AFD01E459FC4E44885A
:1054E0005588712C612C320155244424D8015596DD
:1054F0004D925D926D927C925897428D538D70E0E3
:1055000060E0442955296629772955964D935D9386
:105510006D937C935897D9011B962C91287109F0B3
:10552000B8C0848D958DA68DB78DF801818B928B37
:10553000A38BB48B81E083838C2D8F70F8018183E2
:10554000148215821682178210861186128613869F
:1055500081E0C4FE03C0C8010E94869D0F90DF91C8
:10556000CF911F910F91FF90EF90DF90CF90BF9060
:10557000AF907F906F905F904F900895D7011396F2
:105580008C911397823009F40ECF51968D919D9195
:105590000D90BC91A02D803E9F4FAF41B10508F00A
:1055A00002CFC70138DA882309F4FDCE0E94D72143
:1055B000882309F4F8CED7015996ED91FC915A97BA
:1055C00014964D905D906D907C901797B2E04B1AB9
:1055D000510861087108858504C0440C551C661C7F
:1055E000771C8A95D2F786859785A089B189480E60
:1055F000591E6A1E7B1E81E08093741540926C15C3
:1056000050926D1560926E1570926F15ECE6F3E195
:1056100080E092E0DF019C011D9221503040E1F7D3
:10562000DD24D394D7015996ED91FC918481D8164D
:1056300098F42CE633E1B301A2014D0D511D611D1B
:10564000711D80917515909176150E94792188239E
:1056500009F4A9CED394E6CF258580E092E0A0E0BE
:10566000B0E004C0880F991FAA1FBB1F2A95D2F76C
:10567000F7014189528963897489840F951FA61F98
:10568000B71F818B928BA38BB48B8CE693E1D12CCB
:10569000DCCE203159F498012F5E3F4F6DD888231E
:1056A00029F084E0D80113968C9346CFD801139645
:1056B0001C9279CE2F923F924F925F926F927F927F
:1056C0008F929F92AF92BF92CF92DF92EF92FF9212
:1056D0000F931F93CF93DF93CDB7DEB7C254D10999
:1056E0000FB6F894DEBF0FBECDBF4C015B016A015F
:1056F000322E19821C821C8E1F8E672B11F510E032
:10570000CE014C965DDCCE0101965ADC812FCE5B3A
:10571000DF4F0FB6F894DEBF0FBECDBFDF91CF9144
:105720001F910F91FF90EF90DF90CF90BF90AF90BF
:105730009F908F907F906F905F904F903F902F90B1
:105740000895FC0183818111DACFFA0180818F32C3
:10575000B9F4CA016C010196F60120812F32D1F310
:10576000F50183818250823058F0618D728DCE01B7
:105770004C966BD88E01045E1F4F811102C0BFCFC3
:105780008501CE0101967C013C012E019CE1490E70
:10579000511C2396EFAE23972F2CFE01F796CF01D5
:1057A0000B96AF0120E22193E817F907D9F796018C
:1057B00090E067E0D9018D91882351F18F3241F15A
:1057C000282F8E3239F46A3009F499CF98E06AE0D4
:1057D0009D01F0CFE1E7F0E13491332321F03196E0
:1057E0008313FACF8CCF691708F489CF813208F47C
:1057F00086CF8F3709F483CF3FE9380F3A3110F461
:1058000020EE280FFA01E90FF11D20839F5FE0CF02
:105810008FA9803209F473CF6901F90180812F5F6C
:105820003F4F8F32C9F38823C9F021E0B801C70187
:105830007DDD882309F463CF0A151B0511F0C8012B
:10584000B7DB942D852D6E147F0421F023969FAD38
:105850002397822D8701E92EF82E9FCF232DB801A3
:10586000C40164DD182F4CCF1F93CF93DF93CDB7C6
:10587000DEB76B970FB6F894DEBF0FBECDBFAB019E
:1058800019821C8222E0BC01CE01019613DF811136
:105890000FC010E0CE01019693DB812F6B960FB6FF
:1058A000F894DEBF0FBECDBFDF91CF911F91089559
:1058B000CE0101960E94869D882359F361E0CE01B6
:1058C0000196A1D9009729F325EEFC0120831C82C3
:1058D0000E94D721182FDECF29E433E0FC01318369
:1058E000208304966DCB5F9AECE5FDE010828A9AE6
:1058F00011829FB7F894A8E0B1E08C9181608C93FD
:105900009FBF1282129A08954F925F926F927F9278
:105910008F929F92AF92BF92CF92DF92EF92FF92BF
:105920000F931F93CF93DF93EC012091960D30914D
:10593000970D4091980D5091990D688179818A81D8
:105940009B810E94CBFC6B017C0160917E07709172
:105950007F07072E000C880B990B0E944AF69B01CB
:10596000AC01C701B6010E94CBFC6B017C01209108
:105970009A0D30919B0D40919C0D50919D0D6C8125
:105980007D818E819F810E94CBFC4B015C016091E7
:10599000800770918107072E000C880B990B0E94DD
:1059A0004AF69B01AC01C501B4010E94CBFC4B013E
:1059B0005C01A701960160910D0270910E02809129
:1059C0000F02909110020E9444F6882309F44AC005
:1059D000C0920D02D0920E02E0920F02F0921002DD
:1059E0002091100730911107409112075091130731
:1059F000C701B6010E94A9F62B013C010E9441FE9D
:105A00006B017C0120E030E0A9010E9444F687FD93
:105A10006AC020E030E040E050E4C701B6010E94D7
:105A2000F2FE18162CF4C12CD12CE12CA0E4FA2E95
:105A3000A7019601C301B2010E94CBFC609300074D
:105A4000709301078093020790930307C701B60183
:105A50000E9410FE6093FF0662300CF048C06F5F3A
:105A60006093FE06D0910802C091FF06A501940143
:105A70006091090270910A0280910B0290910C02D0
:105A80000E9444F6811135C0DC137DC02091E006F0
:105A90003091E1064091E2065091E30660910007E3
:105AA0007091010780910207909103070E94A9F667
:105AB0002091E4063091E5064091E6065091E70614
:105AC0000E94CCFCDF91CF911F910F91FF90EF903E
:105AD000DF90CF90BF90AF909F908F907F906F900E
