:100000000C944A120C947B120C947B120C947B126D
:100010000C947B120C947B120C947B120C947B122C
:100020000C947B120C947B120C947B120C947B121C
:100030000C947B120C947B120C947B120C947B120C
:100040000C947B120C940DB50C947B120C947B12C7
:100050000C947B120C947B120C94A6AC0C94CFA93C
:100060000C947B120C9497630C947B120C947B126F
:100070000C947B120C947B120C947B120C947B12CC
:100080000C94AEBE0C947B120C947B120C947B12DD
:100090000C947B120C947B120C947B120C947B12AC
:1000A0000C947B120C947B120C9480BE0C947B12EB
:1000B0000C947B120C947B120C947B120C9452BE09
:1000C0000C947B120C947B120C947B120C9442A423
:1000D0000C9418A40C947B120C947B120C947B123D
:1000E0000C947B12084AD73B3BCE016E84BCBFFD0B
:1000F000C12F3D6C74319ABD56833DDA3D00C77FF8
:1001000011BED9E4BB4C3E916BAAAABE0000008090
:100110003F05A84CCDB2D44EB93836A9020C50B91F
:10012000918688083CA6AAAA2ABE000000803F004B
:100130000C94CEA60C9473A60C9455A60C94C3579D
:100140000C94E6980C9476140C9401990C949114E8
:100150000C946D980C9405990C94834A0C947A5BDA
:100160000C94DA970C948C4A0C941D990C9469A603
:100170000C9413990C94B3E90C94E8970C94099996
:100180000C94FA5A0C949A460C94E2A60C94EA98B1
:100190000C94C6970C94B7970C9483A60C94D8A68D
:1001A0000C94FB980C94C4A60C945D600C94A1A6CE
:1001B0000C94F35D0C94B0A60C9421990C943750D8
:1001C0000C940F990C94BAA60C9497A60C942098B2
:1001D0000C94F7980C94FA4D0C94F1980C94D0462A
:1001E0000C948DA60C9496480C9475140C947C5326
:1001F0000C94EE980C94CD5F0C9496560C94DE50B3
:100200000C948A970C9450A60C945A4E0C9448A6C1
:100210000C94DC980C9417990C94A7280C945BEB25
:100220000C945FA60C941C990C944B540C94E2987B
:100230000C947BA64E414E494E495459494E46CDE9
:10024000CCCC3D0AD7233C17B7D13877CC2B32958D
:1002500095E6241FB14F0A000020410000C842006B
:10026000401C4620BCBE4CCA1B0E5AAEC59D740035
:10027000407A10F35A00A0724E18090010A5D4E875
:100280000000E87648170000E40B54020000CA9A08
:100290003B000000E1F5050000809698000000405A
:1002A000420F000000A0860100000010270000009F
:1002B00000E803000000006400000000000A0000E5
:1002C0000000000100000000002C76D888DC674F99
:1002D0000823DFC1DFAE59E1B1B796E5E3E453C6C9
:1002E0003AE651997696E8E6C28426EB898C9B62C1
:1002F000ED407C6FFCEFBC9C9F40F2BAA56FA5F46B
:1003000090055A2AF75C936B6CF9676DC11BFCE092
:10031000E40D47FEF520E6B500D0ED902E030094E5
:100320003577050080841E080000204E0A0000007A
:10033000C80C333333330F986E12831141EF8D2184
:1003400014893BE65516CFFEE6DB18D1844B381BEB
:10035000F77C1D901DA4BBE424203284725E2281B0
:1003600000C9F124ECA1E53D27434F4D4D554E49C1
:10037000434154494F4E0044525952554E00455244
:10038000524F525300494E464F004543484F004D8F
:100390003234004D3233202573004D313036205336
:1003A000323535004D31303920532569004D313912
:1003B00030205325690047393220452573004730E6
:1003C000205A2573004D31303920532569004D31B5
:1003D000393020532569004D323400473238004D02
:1003E000343230205330004D343230205331004706
:1003F000312046313030205A3000473120583530D6
:1004000020593330302046333630300047312046D3
:10041000313030205A330047312046313030205AB5
:1004200030004731205833303020593330302046A7
:10043000333630300047312046313030205A3300D7
:1004400047312046313030205A3000473120583370
:100450003030205935302046333630300047312097
:1004600046313030205A3300473120463130302079
:100470005A30004731205835302059353020463326
:100480003630300047312046313030205A33004773
:10049000312046313030205A300047312058313831
:1004A0003020593138302046333630300047312043
:1004B00046313030205A3300473239004739300056
:1004C00047323800473238205A3000473238004D22
:1004D00038340047312046323030205A302E300038
:1004E0004732380047393220452573004730205ABB
:1004F0002573004D31303920532569004D31393095
:1005000020532569004732382058302059300047A1
:100510003238205830205930005072696E7465723C
:100520002073746F707065642064756520746F202B
:100530006572726F72732E20466978207468652028
:100540006572726F7220616E6420757365204D391B
:10055000393920746F20726573746172742E20288B
:1005600054656D706572617475726520697320726F
:10057000657365742E2053657420697420616674F8
:1005800065722072657374617274696E67290A00FE
:100590004E6F204C696E65204E756D6265722077D6
:1005A00069746820636865636B73756D2C204C619A
:1005B0007374204C696E653A20004E6F2043686565
:1005C000636B73756D2077697468206C696E652044
:1005D0006E756D6265722C204C617374204C696E6F
:1005E000653A2000636865636B73756D206D697390
:1005F0006D617463682C204C617374204C696E6566
:100600003A20004C696E65204E756D6265722069F6
:1006100073206E6F74204C617374204C696E65207A
:100620004E756D6265722B312C204C617374204CB9
:10063000696E653A20004D313130004D3331004D47
:10064000383420582059205A2045005344207265E0
:100650006164206572726F720A00446F6E6520706B
:1006600072696E74696E672066696C650A0020495C
:100670006E76616C69642065787472756465722049
:10068000000000000000000000000000000000B4B6
:10069000430000B4430000CD43473020463336309A
:1006A00030205831383020593138300042696C6977
:1006B0006E656172204C6576656C696E6720477265
:1006C00069643A0A0020706F736974696F6E206FF5
:1006D0007574206F662072616E67652E0A003F5048
:1006E000726F6265200052756E6E696E6720696E6A
:1006F000204452592D52554E206D6F64650A0047B3
:100700003239204175746F20426564204C657665EE
:100710006C696E670A0028422961636B00284629CC
:10072000726F6E74002852296967687400284C291A
:10073000656674003F2856296572626F7365206C88
:100740006576656C20697320696D706C617573697D
:10075000626C652028302D34292E0A004261642005
:100760005A2076616C75650A004E6F2062696C696B
:100770006E65617220677269640A0044656C657415
:10078000696F6E206661696C65642C2046696C65D2
:100790003A200046696C652064656C657465643A4E
:1007A000006F70656E206661696C65642C20466917
:1007B0006C653A20005374616E6461726420446514
:1007C00076696174696F6E3A20002052616E6765C8
:1007D0003A2000204D61783A2000204D696E3A2081
:1007E000004D65616E3A200046696E697368656404
:1007F000210A002072616E67653A2000206D6178E1
:100800003A2000206D696E3A2000207369676D619F
:100810003A2000206D65616E3A20003A207A3A2035
:1008200000206F662000205A002059002058004701
:100830006F696E6720746F3A00436C6F636B776902
:1008400073650A00436F756E7465722D00204469EC
:1008500072656374696F6E3A2000202020616E67B4
:100860006C653A20005374617274696E672072611E
:10087000646975733A2000506F736974696F6E69AB
:100880006E67207468652070726F62652E2E2E0A66
:10089000003F4E756D626572206F66206C656773F0
:1008A00020696E206D6F76656D656E74206E6F7455
:1008B00020706C61757369626C652028302D31354C
:1008C000292E0A00590058003F53616D706C652055
:1008D00073697A65206E6F7420706C6175736962DC
:1008E0006C652028342D3530292E0A004D343820EF
:1008F0005A2D50726F626520526570656174616235
:10090000696C69747920546573740A003F2856290C
:100910006572626F7365206C6576656C2069732003
:10092000696D706C61757369626C652028302D3457
:10093000292E0A00202F002042403A0020403A0091
:100940004732382058302059300020573A0047327B
:10095000382058302059300020573A00205A3A00A9
:1009600020593A0020436F756E7420583A00204594
:100970003A00205A3A0020593A00583A0043617030
:100980003A454D455247454E43595F5041525345B4
:10099000523A300A004361703A434153455F4C4933
:1009A0004748545F4252494748544E4553533A30A2
:1009B0000A004361703A544F47474C455F4C4947E2
:1009C0004854533A300A004361703A534F465457E3
:1009D0004152455F504F5745523A300A00436170CB
:1009E0003A4C4556454C494E475F444154413A3193
:1009F0000A004361703A5A5F50524F42453A310AF9
:100A0000004361703A4155544F4C4556454C3A317C
:100A10000A004361703A5052494E545F4A4F423A7D
:100A2000310A004361703A50524F47524553533A8E
:100A3000300A004361703A4155544F5245504F526D
:100A4000545F54454D503A310A004361703A454570
:100A500050524F4D3A310A004649524D5741524586
:100A60005F4E414D453A4D61726C696E205665721C
:100A700020312E37312E30204B46205049445445EA
:100A80004D5042454420284B65727365792046617C
:100A9000627269636174696F6E732920534F555296
:100AA00043455F434F44455F55524C3A68747470F8
:100AB000733A2F2F6769746875622E636F6D2F4BC1
:100AC00065727365794661627269636174696F6E9C
:100AD000732F6D61726C696E5F6535702050524F77
:100AE000544F434F4C5F56455253494F4E3A312E67
:100AF00030204D414348494E455F545950453A4591
:100B00006E6465722D3520506C75732045585452B3
:100B1000554445525F434F554E543A31205555493F
:100B2000443A63656465326132662D343161322D39
:100B3000343734382D396231322D633535633632EE
:100B40006633363766660A00205A0020590058007E
:100B500020204D61783A2000205A0020590058008A
:100B600020204D696E3A20004F6E20004F666600CF
:100B7000536F667420656E6473746F70733A2000EF
:100B800020643A0020693A0020703A004B6420004B
:100B900023646566696E65202044454641554C5482
:100BA0005F004B69200023646566696E6520204400
:100BB000454641554C545F004B70200023646566E8
:100BC000696E65202044454641554C545F005049AC
:100BD00044204175746F74756E652066696E697323
:100BE000686564212050757420746865206C617399
:100BF00074204B702C204B6920616E64204B642064
:100C0000636F6E7374616E74732066726F6D2062B1
:100C1000656C6F7720696E746F20436F6E666967CD
:100C200075726174696F6E2E680A005049442041E4
:100C300075746F74756E65206661696C65642120DA
:100C400074696D656F75740A00504944204175746C
:100C50006F74756E65206661696C656421205465EA
:100C60006D706572617475726520746F6F2068694C
:100C700067680A00204B643A2000204B693A200044
:100C8000204B703A20000A20436C61737369632023
:100C9000504944200A002054753A2000204B753AF0
:100CA0002000206D61783A2000206D696E3A2000A6
:100CB00020643A200020626961733A20004F666622
:100CC0000A004661646520486569676874200042CF
:100CD0006564204C6576656C696E672000466169C5
:100CE0006C656420746F20656E61626C652042657E
:100CF00064204C6576656C696E670A004D657368A3
:100D000020706F696E742063616E6E6F742062650F
:100D1000207265736F6C7665640A004D3432312041
:100D2000696E636F727265637420706172616D6564
:100D30007465722075736167650A004175746F0090
:100D400020452F443D00416476616E6365204B3D34
:100D50000047322F47332062616420706172616DF9
:100D600065746572730A005A2070726F6265206F35
:100D700075742E206265640A00473238205A204676
:100D80006F7262696464656E0A0047323900205AE6
:100D90003A200020593A200042656420583A200049
:100DA0004D65736820706F696E742063616E6E6F3D
:100DB00074206265207265736F6C7665640A004505
:100DC0006E642066696C65206C6973740A00426504
:100DD00067696E2066696C65206C6973740A002E01
:100DE0000A0044656C6574696F6E2862696E29201B
:100DF0006661696C65640046696C652862696E2984
:100E00002064656C65746564005344207072696E7B
:100E100074696E67206279746520004E6F74205388
:100E200044207072696E74696E670A0025697300E8
:100E300025696D20256973002569682025696D2065
:100E400025697300256964202569682025696D205E
:100E50002569730025697920256964202569682042
:100E600025696D20256973005072696E742074695C
:100E70006D653A200050726F74656374656420502C
:100E8000696E0A006F6666008A0385037E03770336
:100E9000690344454255473A004D313133205300F0
:100EA0006F6B002F2F200053657474696E67205498
:100EB000726176656C20416363656C65726174690B
:100EC0006F6E3A200053657474696E6720526574C2
:100ED0007261637420416363656C65726174696FEC
:100EE0006E3A200053657474696E67205072696EA3
:100EF0007420416363656C65726174696F6E3A203A
:100F00000053657474696E67205072696E74206155
:100F10006E642054726176656C20416363656C6514
:100F2000726174696F6E3A20000001363726FF0344
:100F30003C3D38FF0E2E303E12FFFF0C0809FFFF2C
:100F4000FF1A1C18FFFF08440AFF43FFFFFFFFFFC3
:100F5000FF3A200020536572766F2000206F757471
:100F6000206F662072616E67650A00536572766F46
:100F7000200020643A0020693A0020703A0043299A
:100F80000A0061626C656420286D696E2074656D6D
:100F9000702000436F6C64206578747275646573AB
:100FA000206172652000546F6F2066617220667246
:100FB0006F6D207265666572656E636520706F691E
:100FC0006E740A00207A70726F62655F7A6F66666F
:100FD0007365743D20007A5F6D696E3A20202D3272
:100FE00030207A5F6D61783A20203230005A204FED
:100FF000666673657420004E6F2063617365206CB4
:10100000696768740A00416374697665204578747D
:1010100072756465723A2000556E6B6E6F776E2044
:10102000636F6D6D616E643A202200526573656E68
:10103000643A20006F6B0020746F6F206C6F6E67D6
:1010400020657874727573696F6E2070726576654D
:101050006E7465640A0020636F6C64206578747236
:101060007573696F6E2070726576656E7465640A5B
:1010700000627573793A2070617573656420666FDC
:101080007220696E7075740A00627573793A207007
:10109000617573656420666F7220757365720A00EE
:1010A000627573793A2070726F63657373696E67E6
:1010B0000A004B494C4C206361757365642062796A
:1010C000204B494C4C20627574746F6E2F70696EA2
:1010D0000A004B494C4C206361757365642062794A
:1010E00020746F6F206D75636820696E6163746929
:1010F00076652074696D65202D2063757272656E4A
:101100007420636F6D6D616E643A20000000B4431B
:101110000000B443000000000000484200004842C4
:1011200000008040000000005761726E696E673AEF
:1011300020486F6D696E672042756D702044697636
:1011400069736F72203C20310A000202040000A083
:10115000400000A040000000400000B4430000B484
:10116000430000CD430101FF62696E004D3131370C
:1011700020494E56414C494420444154412E004799
:101180003932205A2573204525730062696E007C30
:101190003C3E5E2B3D3F2F5B5D3B2C2A225C004595
:1011A00072726F722077726974696E6720746F2033
:1011B000454550524F4D210A00290A00206279749A
:1011C00065733B20637263200053657474696E67B6
:1011D000732053746F726564202800202863616C4B
:1011E00063756C6174656429210A0020213D20002B
:1011F000454550524F4D20435243206D69736D61F8
:10120000746368202D202873746F72656429200030
:10121000290A002062797465733B206372632000A1
:101220002073746F7265642073657474696E67737C
:1012300020726574726965766564202800204D61AE
:10124000726C696E3D563431290A0028454550526A
:101250004F4D3D00454550524F4D207665727369A4
:101260006F6E206D69736D617463682000486172F0
:1012700064636F6465642044656661756C742053B3
:10128000657474696E6773204C6F616465640A00ED
:10129000F4010000F401000064000000E803000015
:1012A00000009643000096430000A0400000C841A3
:1012B0000000A0420000A042000048440000BA42E2
:1012C00020520020204D393030204B004C696E6593
:1012D000617220416476616E63653A0A0020204D98
:1012E000383531205A005A2D50726F6265204F6692
:1012F0006673657420286D6D293A0A002044002029
:10130000490020204D333034205000204400204933
:101310000020204D33303120500050494420736567
:101320007474696E67733A0A00205A0020204D34A5
:1013300032302053004175746F20426564204C6543
:1013400076656C696E673A0A00205A0020590020C1
:10135000204D323036205800486F6D65206F66662C
:101360007365743A0A00204500205A002059002075
:10137000580020420020540020204D3230352053A8
:1013800000416476616E6365643A20533C6D696E1A
:101390005F66656564726174653E20543C6D696E7C
:1013A0005F74726176656C5F6665656472617465B1
:1013B0003E20423C6D696E5F7365676D656E745F5C
:1013C00074696D655F6D733E20583C6D61785F7820
:1013D000795F6A65726B3E205A3C6D61785F7A5F17
:1013E0006A65726B3E20453C6D61785F655F6A653A
:1013F000726B3E0A0020540020520020204D3230F3
:1014000034205000416363656C65726174696F6E6E
:101410002028756E6974732F7332293A20503C70FE
:1014200072696E745F616363656C3E20523C7265E5
:1014300074726163745F616363656C3E20543C74D5
:10144000726176656C5F616363656C3E0A0020457E
:1014500000205A0020590020204D32303120580001
:101460004D6178696D756D20416363656C6572616E
:1014700074696F6E2028756E6974732F7332293A00
:101480000A00204500205A0020590020204D32300B
:10149000332058004D6178696D756D20666565640F
:1014A00072617465732028756E6974732F73293A9D
:1014B0000A00204500205A0020590020204D3932D2
:1014C00020580053746570732070657220756E69C2
:1014D000743A0A0020204D3230302044300A002077
:1014E000204D3230302044002044697361626C65C5
:1014F000640A0046696C616D656E7420736574746E
:10150000696E67733A0020204D3134392043203B07
:1015100020556E69747320696E2043656C7369751C
:10152000730A002020473231202020203B20556EB6
:1015300069747320696E206D6D0A007A5F6D696E43
:101540003A2000795F6D61783A2000785F6D6178AC
:101550003A20005265706F7274696E6720656E6420
:1015600073746F70207374617475730A0020746FE4
:101570006F206C6F6E6720657874727573696F6E1B
:101580002070726576656E7465640A0020636F6C06
:101590006420657874727573696F6E2070726576F9
:1015A000656E7465640A0024F4D43050C38E20C282
:1015B000A24017828B7011127A910D816CD90AA802
:1015C00061E108C7586607615143061E4B5D05C1BE
:1015D00045A7041A411104093D98037139310340AC
:1015E00036DB0265339102D4305402802E1D026333
:1015F0002CEE01752AC501B028A001102781018FAA
:101600002564012B244B01E0223401AC211F018D04
:10161000200D01801FFC00841EED00971DDF00B827
:101620001CD200E61BC600201BBC00641AB200B22C
:1016300019A8000A19A0006A189900D11791004052
:10164000178B00B516840031167E00B31579003A69
:10165000157300C7146F0058146A00EE13660088F3
:1016600013630025135E00C7125B006C1257001550
:10167000125400C111510070114F0021114B00D6BE
:101680001049008D1047004610440002104200C06F
:101690000F4000800F3E00420F3C00060F3B00CB86
:1016A0000E3800930E37005C0E3500270E3400F321
:1016B0000D3200C10D3100900D3000600D2E003252
:1016C0000D2D00050D2C00D90C2B00AE0C2900852A
:1016D0000C29005C0C2700350C27000E0C2600E8B6
:1016E0000B2400C40B2400A00B23007D0B23005A05
:1016F0000B2100390B2100180B2000F80A1F00D91C
:101700000A1E00BB0A1E009D0A1D00800A1D006300
:101710000A1C00470A1B002C0A1B00110A1A00F7BA
:10172000091A00DD091900C4091900AB0919009252
:101730000917007B091800630917004C09160036C9
:10174000091600200916000A091500F5081500E021
:10175000081400CC081400B8081400A40814009061
:101760000813007D0812006B081300580812004689
:10177000081200340811002308110012081100019A
:10178000081100F0071000E0071000D0071000C09B
:10179000071000B0070F00A107100091070E00838B
:1017A000070F0074070F0065070E0057070E00496A
:1017B000070E003B070D002E070E0020070D00133B
:1017C000070D0006070D00F9060C00ED060D00E000
:1017D000060C00D4060C00C8060C00BC060C00B0B9
:1017E000060C00A4060B0099060C008D060B008267
:1017F000060B0077060B006C060B0061060A00570B
:10180000060B004C060A0042060A0038060A002EA3
:10181000060A0024060A001A060A00100609000734
:10182000060A00FD050900F4050900EB050900E2C0
:10183000050900D9050900D0050900C7050900BE42
:10184000050900B5050800AD050800A50509009CBF
:10185000050800940508008C050800840508007C34
:10186000050800740508006C050700650508005DA3
:10187000050700560508004E05070047050700400C
:1018800005080038050700310507002A0507002371
:101890000507001C050600160507000F05070008D0
:1018A00005060002050700FB040600F5040700EE2C
:1018B000040600E8040600E2040700DB040600D585
:1018C000040600CF040600C9040600C3040600BDD8
:1018D000040600B7040600B1040500AC040600A627
:1018E000040600A00405009B040600950405009072
:1018F0000406008A04050085040500800406007AB9
:1019000004050075040500700405006B04050066FD
:10191000040500610405005C04050057040500523D
:101920000405004D04050048040500430405003E7D
:101930000404003A04050035040500300404002CBA
:1019400004050027040400230405001E0404001AF3
:1019500004040016040500110404000D0404000929
:101960000405000404040000040400FC030400F85F
:10197000030400F4030400F0030400EC030400E893
:10198000030400E4030400E0030400DC030400D8C3
:10199000030400D4030400D0030400CC030400C8F3
:1019A000030300C503030024F404D9201BC40C5C0A
:1019B0000E9804C4095F0265077101F405F900FB84
:1019C00004B30048048700C10369005803550003AD
:1019D000034500BE023A008402310053022A002966
:1019E00002250004022000E4011C00C8011900AF18
:1019F00001170098011400840113007101100061A7
:101A000001100051010E0043010D0036010B002BA7
:101A1000010B0020010B00150109000C0109000356
:101A2000010800FB000800F3000800EB000700E4D9
:101A3000000600DE000600D8000600D2000600CC3A
:101A4000000500C7000500C2000500BD000400B984
:101A5000000400B5000400B1000400AD000400A9BA
:101A6000000400A5000300A20003009F0004009BE7
:101A7000000300980003009500020093000300900B
:101A80000003008D0002008B000300880002008626
:101A900000020084000300810002007F0002007D3C
:101AA0000002007B0002007900020077000100764E
:101AB0000002007400020072000100710002006F59
:101AC0000002006D0001006C0002006A0001006964
:101AD000000200670001006600010065000100646B
:101AE0000002006200010061000100600001005F6F
:101AF0000002005D0001005C0001005B0001005A73
:101B00000001005900010058000100570001005673
:101B10000001005500010054000100530000005373
:101B20000001005200010051000100500001004F6F
:101B30000001004E0000004E0001004D0001004C6D
:101B40000001004B0000004B0001004A0001004969
:101B50000001004800000048000100470001004665
:101B6000000000460001004500000045000100445F
:101B70000001004300000043000100420000004259
:101B80000001004100000041000100400001003F51
:101B90000000003F0001003E0000003E0001003D4B
:101BA0000000003D0001003C0000003C0000003C43
:101BB0000001003B0000003B0001003A0000003A39
:101BC0000001003900000039000100380000003831
:101BD0000000003800010037000000370001003627
:101BE000000000360000003600010035000000351E
:101BF0000000003500010034000000340000003413
:101C00000001003300000033000000330001003207
:101C100000000032000000320001003100000031FD
:101C200000000031000100300000003000000030F2
:101C30000001002F0000002F0000002F0000002FE7
:101C40000001002E0000002E0000002E0001002DDB
:101C50000000002D0000002D0000002D0001002CD0
:101C60000000002C0000002C0000002C0001002BC4
:101C70000000002B0000002B0000002B0001002AB8
:101C80000000002A0000002A0000002A00010029AC
:101C900000000029000000290000002900000029A0
:101CA0000001002800000028000000280000002893
:101CB0000000002800010027000000270000002786
:101CC0000000002700000027000100260000002679
:101CD000000000260000002600000026000100256C
:101CE0000000002500000025000000250000002560
:101CF0000000002500010024000000240000002452
:101D00000000002400000024000100230000002344
:101D10000000002300000023000000230000002337
:101D20000000002300010022000000220000002229
:101D3000000000220000002200000022000100211B
:101D4000000000210000002100000021000000210F
:101D50000000002100000021000100200000002000
:101D600000000020000000200000002000000020F3
:101D700000000020000000200001001F0000001FE4
:101D80000000001F0000001F0000001F0000001FD7
:101D90000000001F0001001E0000001E0000001EC9
:101DA0000000001E0000004D383420582059205AF1
:101DB0002045006265640A002C2073797374656D98
:101DC0002073746F7070656421204865617465725A
:101DD0005F49443A200048656174696E6720666116
:101DE000696C65640048656174696E672066616945
:101DF0006C65640048656174696E67206661696C32
:101E000065640048656174696E67206661696C6528
:101E1000640070012C0190012701B0012201C00172
:101E20001D01F00118011002130130020E016002C1
:101E3000090190020401C002FF000003FA00400300
:101E4000F5008003F000D003EB002004E6007004EE
:101E5000E100E004DC004005D700C005D2004006E8
:101E6000CD00D006C8008007C3003008BE00F008CF
:101E7000B900C009B400B00AAF00B00BAA00D00C82
:101E8000A500000EA000500F9B00C010960050123D
:101E9000910000148C00C0158700B0178200B019A3
:101EA0007D00D01B7800001E730040206E00902241
:101EB0006900F024640040275F0090295A00E02B5D
:101EC0005500102E500020304B0010324600E033F9
:101ED000410090353C001037370070383200A0398F
:101EE0002D00B03A2800A03B2300603C1E00103DAE
:101EF0001900903D1400103E0F00703E0A00C03ED5
:101F00000500003F0000403FFBFF803FF6FFC03F61
:101F1000F1FF544845524D414C2052554E415741D6
:101F20005900546865726D616C2052756E617761FD
:101F300079004572723A204D494E54454D50204229
:101F40004544004572723A204D494E54454D50006B
:101F50004D494E54454D50207472696767657265EE
:101F600064004572723A204D415854454D5020420C
:101F70004544004572723A204D415854454D500039
:101F80004D415854454D50207472696767657265BC
:101F9000640000002100240027002A002D003000EA
:101FA000330001010000040107010A0100002200C2
:101FB000250028002B002E00310034000201000013
:101FC000050108010B010000200023002600290064
:101FD0002C002F003200000100000301060109015E
:101FE00005050505070508080808020202020A0A95
:101FF00008080404040401010101010101010303B3
:10200000030303030303040707070C0C0C0C0C0C5D
:102010000C0C0202020206060606060606060B0B5A
:102020000B0B0B0B0B0B010210202008081020409B
:10203000102040800201020108040201010204088C
:10204000102040808040201008040201800402011A
:102050008040201008040201080402010102040863
:1020600010204080010204081020408000000A0B6C
:1020700002090C0D0E080703040100000000000017
:102080000000000000000000000000000000000050
:10209000000000000000000012111000000000000D
:1020A0000000000000000000000000000000000030
:1020B00000004D343230205331004D343230205343
:1020C00030002020506C616E6E65724275666665E8
:1020D0007242797465733A20002046726565204D1E
:1020E000656D6F72793A2000436F6D70696C65643D
:1020F0003A204F637420323720323032310A0020C8
:102100007C20417574686F723A20456E6465722D4B
:102110003520506C75730A00323032302D30342D3A
:10212000303100204C6173742055706461746564B3
:102130003A200056657220312E37312E30204B4622
:102140002050494454454D504245440A004D617267
:102150006C696E0020536F667477617265205265FA
:102160007365740A00205761746368646F67205256
:10217000657365740A002042726F776E206F757404
:102180002052657365740A002045787465726E612B
:102190006C2052657365740A00506F7765725570D4
:1021A0000A0073746172740A006572726F7220772C
:1021B000726974696E6720746F2066696C650A00C5
:1021C000205A3A0020593A0020583A00656E64734C
:1021D000746F7073206869743A2000446F6E6520D4
:1021E000736176696E672066696C652E0A004D32F0
:1021F000390050726F62696E67206661696C656450
:102200000A00205A3A200020593A200042656420F2
:10221000583A20005072696E7465722073746F7042
:102220007065642064756520746F206572726F72CA
:10223000732E2046697820746865206572726F720B
:1022400020616E6420757365204D39393920746FB3
:1022500020726573746172742E202854656D7065E8
:102260007261747572652069732072657365742E6E
:1022700020536574206974206166746572207265EC
:102280007374617274696E67290A0053544F502049
:1022900063616C6C65642062656361757365206F52
:1022A0006620424C546F756368206572726F7220AD
:1022B0002D20726573746172742077697468204D83
:1022C0003939390A002066697273740A005A005954
:1022D000005800486F6D65200057726974696E6719
:1022E00020746F2066696C653A20006F70656E20FF
:1022F0006661696C65642C2046696C653A20006FE4
:1023000070656E206661696C65642C2046696C6539
:102310003A200046696C652073656C65637465647A
:102320000A002053697A653A200046696C65206F7F
:1023300070656E65643A20006F70656E2066616935
:102340006C65642C2046696C653A20002066696CD7
:10235000653A20004E6F7720002220706F730022B4
:1023600020706172656E743A2200535542524F5587
:1023700054494E452043414C4C207461726765744A
:102380003A2200747279696E6720746F2063616C01
:102390006C207375622D67636F64652066696C6578
:1023A00073207769746820746F6F206D616E792077
:1023B0006C6576656C732E204D4158206C65766592
:1023C0006C2069733A0043616E6E6F74206F7065A4
:1023D0006E2073756264697220002E0A006F70654A
:1023E0006E206661696C65642C2046696C653A20D4
:1023F0000057726974696E6720746F2066696C6536
:102400003A200053442063617264206F6B0A006FAE
:1024100070656E526F6F74206661696C65640A0046
:10242000766F6C756D652E696E6974206661696C76
:1024300065640A00534420696E6974206661696CA2
:102440000A004D3234004D3233202573006175741B
:102450006F25692E6700656E7175657565696E67B4
:102460002022006563686F3A005072696E7465726D
:102470002068616C7465642E206B696C6C2829205F
:1024800063616C6C6564210A004572726F723A0078
:102490005BEBB3E911241FBECFEFD1E2DEBFCDBFAE
:1024A00000E00CBF15E0A0E0B2E0E4E1FAE002E0F9
:1024B0000BBF02C007900D92A437B107D9F72CE1EA
:1024C000A4E7B5E001C01D92AD3BB207E1F712E110
:1024D000C9E4D2E100E006C021970109802FFE0186
:1024E0000F944504C834D10780E00807A9F70E947B
:1024F000A1EC0D94F8040C940000CF92DF92EF92BF
:10250000FF92CF93DF93EC01C0903D07D0903E0740
:10251000E0903F07F0904007A7019601688179811C
:102520008A819B810E9457FA87FF04C0C882D982A2
:10253000EA82FB82C0904107D0904207E0904307B7
:10254000F0904407A70196016C817D818E819F8167
:102550000E9457FA87FF04C0CC82DD82EE82FF82A0
:10256000C0904507D0904607E0904707F090480795
:10257000A7019601688579858A859B850E9457FA0F
:1025800087FF04C0C886D986EA86FB86C0901602FB
:10259000D0901702E0901802F0901902A70196015E
:1025A000688179818A819B810F945F03181624F4D6
:1025B000C882D982EA82FB82C0901A02D0901B02A4
:1025C000E0901C02F0901D02A70196016C817D81B4
:1025D0008E819F810F945F03181624F4CC82DD82D4
:1025E000EE82FF82C0901E02D0901F02E090200277
:1025F000F0902102A7019601688579858A859B85DF
:102600000F945F03181624F4C886D986EA86FB86E1
:10261000DF91CF91FF90EF90DF90CF9008955F987A
:102620008A989FB7F894E8E0F1E080818E7F8083FC
:102630009FBF12980895CF92DF92EF92FF92C090C1
:102640009507D0909607E0909707F09098078091B3
:102650009907882381F120E030E0A901C701B60184
:102660000E9457FA882339F120E030E040E05FE330
:10267000C701B6010E94BDFA9B01AC010E94BDFAE0
:102680002BED3FE049E450E40E94BDFA9B01AC0110
:1026900060E070E080E89FE30F94F9016093E30746
:1026A0007093E4078093E5079093E607FF90EF901F
:1026B000DF90CF90089560E070E080E89FE3EECF78
:1026C000CF92DF92EF92FF92609190077091910705
:1026D000072E000C880B990B0E945EFA6B017C019F
:1026E0002DEB37E346E855EB0F945F0387FD0BC0F6
:1026F0002DEB37E346E855E3C701B6010E9457FAD0
:1027000018160CF043C0A701960160E070E080E865
:102710009FE30F94F90160931E0770931F07809346
:102720002007909321076091920770919307072EDD
:10273000000C880B990B0E945EFA6B017C012DEB5B
:1027400037E346E855EB0F945F0387FD0AC02DEB96
:1027500037E346E855E3C701B6010E9457FA181659
:10276000CCF4A701960160E070E080E89FE30F944D
:10277000F9016093220770932307809324079093B5
:102780002507FF90EF90DF90CF90089560E070E014
:10279000CB01C1CF60E070E0CB01EBCF80E1E0EA9C
:1027A000FDE0A5E5B7E001900D928A95E1F7089567
:1027B00080E1E5E5F7E0A0EABDE001900D928A95A1
:1027C000E1F70895CF92DF92EF92FF920F931F935C
:1027D000CF93DF93EC01CC0FDD1FCC0FDD1FFE018B
:1027E000E357F24F20E030E0A901608171818281DE
:1027F00093810F94FF00FE01E75BF84F2081318148
:10280000428153810F94FF006B017C01FE01E05572
:10281000F24FC082D182E282F382FE01EF57F94F7C
:1028200025913591459154918E01035C184F0F9479
:10283000FF00F8016083718382839383FE01E35775
:10284000F94F2591359145915491CA5EDD4FC701ED
:10285000B6010F94FF00688379838A839B83DF919D
:10286000CF911F910F91FF90EF90DF90CF9008953F
:102870008F929F92AF92BF92EF92FF920F931F930E
:10288000CF93DF938C014A015B01EC01CC0FDD1F7C
:10289000CC0FDD1FCE018056924F7C01C357D24F23
:1028A000288139814A815B81CB01B4010F94FE00FC
:1028B000F70120813181428153810F94FF00F7019C
:1028C000608371838283938388829982AA82BB8288
:1028D000C801DF91CF911F910F91FF90EF90BF90B2
:1028E000AF909F908F900C94E213089590E080E059
:1028F00008958FB7F8949091ED062091EC06291772
:1029000069F0E92FF0E0E459F94F208130E09F5F52
:102910009F779093ED068FBFC90108952FEF3FEF8A
:10292000FACF0F931F93CF93DF93EC010E9478A708
:102930000E811F8128853985011511052105310575
:1029400079F52C85222339F1EA8521502C8721E065
:102950002E0F2A873D85231301C01A86F0E0319699
:10296000EE0FFF1FEE0FFF1FEC0FFD1F02851385FB
:10297000248535850A831B832C833D83600F711F5B
:10298000811D911D6E837F83888799878C819D81AE
:10299000892B09F0409ADF91CF911F910F910895F3
:1029A000601B710B820B930B97FDF5CF40981E8235
:1029B0001F8218861986EFCF8091890790918A0728
:1029C000019759F40E9441A970938A07609389077F
:1029D0001092870710928807089510928A07109224
:1029E0008907F6CFCF93DF93EC0190E080E00E945F
:1029F000D7B46093120770931307809314079093D2
:102A0000150781E090E00E94D7B460931607709399
:102A10001707809318079093190782E090E00E94AF
:102A2000D7B460931A0770931B0780931C07909389
:102A30001D0782E197E00E948AD0C436D10561F477
:102A40008CE0E2E1F7E0A0EABDE001900D928A950A
:102A5000E1F7DF91CF910895CC0FDD1FCC0FDD1F83
:102A6000FE01E056F24FCE5ED84F88819981AA814F
:102A7000BB8180839183A283B383EBCFCF92DF921C
:102A8000EF92FF92CF936B017C01C091A207C0929D
:102A90009E07D0929F07E092A007F092A1072DEB2E
:102AA00037E346E855EB0F945F0387FD0AC02DEB33
:102AB00037E346E855E3C701B6010E9457FA1816F6
:102AC000DCF4A701960160E070E080E89FE30F94DA
:102AD000F90160939A0770939B0780939C079093EA
:102AE0009D07CC2369F082E090E0CF91FF90EF90BA
:102AF000DF90CF900C94F21460E070E0CB01E9CF4E
:102B0000CF91FF90EF90DF90CF9008958F929F929A
:102B1000AF92BF92CF92EF92FF920F931F93CF93FA
:102B2000DF93CDB7DEB72C970FB6F894DEBF0FBE9C
:102B3000CDBF4B015C01C090630680915D07909111
:102B40005E07A0915F07B0916007409159075091CF
:102B50005A0760915B0770915C07009155071091CF
:102B60005607209157073091580709831A832B8302
:102B70003C834D835E836F83788789879A87AB8791
:102B8000BC8780918B0D81110AC0AE01475F5F4FFA
:102B9000BE016B5F7F4FCE0101960E9409D1850176
:102BA000740121E637E0AE01475F5F4FBE016B5F06
:102BB0007F4FCE0101960E943EC22C960FB6F8942C
:102BC000DEBF0FBECDBFDF91CF911F910F91FF9060
:102BD000EF90CF90BF90AF909F908F9008952F92DD
:102BE0003F924F925F926F927F928F929F92AF929D
:102BF000BF92CF92DF92EF92FF920F931F93CF93EA
:102C0000DF93CDB7DEB7EC970FB6F894DEBF0FBEFB
:102C1000CDBF69AF7AAF8BAF9CAF5A8F498F3C8FD6
:102C20002B8F8090A00D9090A10DA090A20DB09040
:102C3000A30D8091B00D9091B10DA091B20DB09106
:102C4000B30D8D8F9E8FAF8FB8A3A0918C07B091DD
:102C50008D07BEA3ADA3BD01BB0F880B990B0E94CE
:102C60005EFA6FA378A789A79AA780911E07909113
:102C70001F07A0912007B09121078BA79CA7ADA7A4
:102C8000BEA74090A40D5090A50D6090A60D709029
:102C9000A70D8091B40D9091B50DA091B60DB09196
:102CA000B70D89A39AA3ABA3BCA3A0918E07B09143
:102CB0008F07B8ABAFA7BD01BB0F880B990B0E9464
:102CC0005EFA69AB7AAB8BAB9CAB8091220790919B
:102CD0002307A0912407B09125078DAB9EABAFAB26
:102CE000B8AF8091550790915607A0915707B091C2
:102CF0005807898B9A8BAB8BBC8B8091590790912D
:102D00005A07A0915B07B0915C078D8B9E8BAF8BB0
:102D1000B88F2D8D3E8D4F8D58A1C501B4010F94F4
:102D2000FE002FA138A549A55AA50F94FE002BA59A
:102D30003CA54DA55EA50E94BDFA0F946B027B01D8
:102D400093E0E916F1041CF092E0E92EF12CF7FE75
:102D500002C0F12CE12C29A13AA14BA15CA1C30135
:102D6000B2010F94FE0029A93AA94BA95CA90F94BE
:102D7000FE002DA93EA94FA958AD0E94BDFA0F949F
:102D80006B021B01633071051CF082E0282E312C90
:102D900037FE02C0312C212C2D8D3E8D4F8D58A138
:102DA00069897A898B899C890F94FE002FA138A5A7
:102DB00049A55AA50F94FE002BA53CA54DA55EA5DF
:102DC0000E94BDFA0F946B028B016330710514F001
:102DD00002E010E017FF02C010E000E029A13AA1D4
:102DE0004BA15CA16D897E898F89988D0F94FE001F
:102DF00029A93AA94BA95CA90F94FE002DA93EA9C7
:102E00004FA958AD0E94BDFA0F946B026330710553
:102E100014F062E070E077FF02C070E060E0E0165E
:102E2000F10621F56215730509F0A6C069AD7AAD0A
:102E30008BAD9CAD0E948615EC960FB6F894DEBF64
:102E40000FBECDBFDF91CF911F910F91FF90EF90FB
:102E5000DF90CF90BF90AF909F908F907F906F90BA
:102E60005F904F903F902F900C94D8130E151F0534
:102E70000CF082C03E2D621573050CF467C1262F3D
:102E8000E016F10609F082C06215730579F2822F0F
:102E9000022E000C990B01E010E002C0000F111F80
:102EA0002A95E2F72B8D3C8D20233123232B09F427
:102EB000BDCF20E1E5E5F7E0DE01119601900D922E
:102EC0002A95E1F72091920730919307829FB001F4
:102ED000839F700D929F700D1124AFA5B8A96A0F42
:102EE0007B1F072E000C880B990B0E945EFA29A10C
:102EF0003AA14BA15CA10F94FF0060935907709316
:102F00005A0780935B0790935C07A30192010F948B
:102F1000FE006B017C01A30192016D897E898F897E
:102F2000988D0F94FE009B01AC01C701B6010F9470
:102F3000F9016B017C01A501940169897A898B896A
:102F40009C890F94FE00A70196010E94BDFAA5017D
:102F500094010F94FF006093550770935607809378
:102F6000570790935807009510952B8D3C8D202383
:102F700031233C8F2B8F7EC0302F621573050CF0F0
:102F80007ECF222DE016F10609F481CF832F032E88
:102F9000000C990B01E010E002C0000F111F3A95E0
:102FA000E2F7498D5A8D40235123452B09F46CCF0C
:102FB00020E1E5E5F7E0DE01119601900D922A95FA
:102FC000E1F72091900730919107829FB001839F94
:102FD000700D929F700D11242DA13EA1620F731FE1
:102FE000072E000C880B990B0E945EFA2D8D3E8DEA
:102FF0004F8D58A10F94FF006093550770935607AB
:103000008093570790935807A50194010F94FE00F1
:103010006B017C01A501940169897A898B899C895E
:103020000F94FE009B01AC01C701B6010F94F9019A
:103030006B017C01A30192016D897E898F89988D36
:103040000F94FE00A70196010E94BDFAA301920110
:103050000F94FF006093590770935A0780935B07A2
:1030600090935C0700951095898D9A8D802391230C
:103070009A8F898F8090A80D9090A90DA090AA0D8D
:10308000B090AB0DA501940160915D0770915E0752
:1030900080915F07909160070F94FE00A701960151
:1030A0000E94BDFAA50194010F94FF0060935D0793
:1030B00070935E0780935F07909360078090AC0DDC
:1030C0009090AD0DA090AE0DB090AF0DA501940104
:1030D0006091610770916207809163079091640726
:1030E0000F94FE00A70196010E94BDFAA50194016C
:1030F0000F94FF00609361077093620780936307EA
:10310000909364072B8D3C8D498D5A8D69AD7AADB6
:103110008BAD9CAD0E94EF1589899A89AB89BC89DA
:1031200089839A83AB83BC838D899E89AF89B88D4F
:103130008D839E83AF83B88780E1FE013196A5E53C
:10314000B7E001900D928A95E1F76BCD222D1ECF4D
:10315000CF92EF92FF920F931F93CF93DF93CDB750
:10316000DEB72C970FB6F894DEBF0FBECDBFC09070
:1031700063068091A80D9091A90DA091AA0DB09120
:10318000AB0D4091A40D5091A50D6091A60D7091CD
:10319000A70D0091A00D1091A10D2091A20D3091CD
:1031A000A30D09831A832B833C834D835E836F8336
:1031B000788789879A87AB87BC8780918B0D81112F
:1031C0000AC0AE01475F5F4FBE016B5F7F4FCE010C
:1031D00001960E9409D1E0905902F0905A020091A4
:1031E0005B0210915C022CEA3DE0AE01475F5F4F4D
:1031F000BE016B5F7F4FCE0101960E943EC22C96AE
:103200000FB6F894DEBF0FBECDBFDF91CF911F91F7
:103210000F91FF90EF90CF9008958F929F92AF9271
:10322000BF92CF92EF92FF920F931F93CF93DF93B2
:10323000CDB7DEB72C970FB6F894DEBF0FBECDBF6B
:10324000FC012091E9178091E81790E001968F70BA
:1032500099272817190609F450C0C0906306EE0F8D
:10326000FF1FEE0FFF1FEB58FD4F20E030E040E75F
:1032700052E460817181828193810F94F9014B0145
:103280005C018091A00D9091A10DA091A20DB09133
:10329000A30D89839A83AB83BC838091A40D909105
:1032A000A50DA091A60DB091A70D8D839E83AF8330
:1032B000B8878091A80D9091A90DA091AA0DB09109
:1032C000AB0D89879A87AB87BC87AE01475F5F4F9D
:1032D000BE016B5F7F4FCE0101960E9409D185012F
:1032E00074012CEA3DE0AE01475F5F4FBE016B5FAA
:1032F0007F4FCE0101960E943EC22C960FB6F894E5
:10330000DEBF0FBECDBFDF91CF911F910F91FF9018
:10331000EF90CF90BF90AF909F908F900895809145
:103320005C0690915D06009731F04AE050E070E055
:1033300060E00C94ACF760E070E0CB0108950E946F
:103340008F1997FD0CC00E948F196F3F7105810581
:10335000910509F034F40E948F19862F089580E0BA
:1033600008958FEF089580915C0690915D06892BFA
:1033700041F00E949F1991E0811101C090E0892FD6
:10338000089591E0FCCF4F925F926F927F928F925F
:103390009F92AF92BF92CF92DF92EF92FF920F93E4
:1033A0001F93CF93DF93CDB7DEB768970FB6F8942E
:1033B000DEBF0FBECDBF0E9478A76B017C0180915C
:1033C000750590917605A0917705B09178058C15DB
:1033D0009D05AE05BF0508F048C1809162028823B3
:1033E00009F443C180917B0590917C05892B09F0FC
:1033F000A1C280910F0E9091100E2091140E2223E5
:1034000009F489C1181619060CF085C18091BD0513
:103410009091BE05892B09F07CC084E096E09093E2
:103420008E1B80938D1B80EA90E89093901B809375
:103430008F1B87E08093811B12E81093841B80EA26
:1034400090E0A0E0B0E08093851B9093861BA09352
:10345000871BB093881B0E94419F809150029091DE
:103460005102A0915202B09153020097A105B105FB
:1034700009F012C110928E1B10928D1B05E0009373
:10348000811B1093841B8AE890E1A0E0B0E0809358
:10349000851B9093861BA093871BB093881B0E946B
:1034A000419F89E090E090938E1B80938D1B009349
:1034B000811B1093841B8CE890E1A0E0B0E0809326
:1034C000851B9093861BA093871BB093881B0E943B
:1034D000419F6091500270915102809152029091EF
:1034E000530228E830E140E050E00E94E49F609100
:1034F0005002709151028091520290915302982F84
:10350000872F762F662721EA30E040E050E00E94C6
:10351000E49F8091BD059091BE05853691050CF024
:10352000DBC090938E1B80938D1B85E08093811B65
:1035300082E88093841B80E090E1A0E0B0E080937B
:10354000851B9093861BA093871BB093881B0E94BA
:10355000419F6EE170E080E090E00E94E7A68091DC
:10356000BD059091BE0501969093BE058093BD0563
:10357000893C91050CF479C081E090E090937C0542
:1035800080937B05C090160ED090170E10E000E0DF
:10359000F12CE12CCE14DF0409F467C069EE72E16E
:1035A000C8018053904F0F949B0498012E5E3F4FAB
:1035B000892B09F0ABC081E080936202C801885971
:1035C000914F7C01FC0101900020E9F78E1B9F0BBD
:1035D000439697FD01968C011595079540E050E2C2
:1035E00060E070E0C70110161106C4F4FE013196C8
:1035F0006F0184E111928A95E9F7A80161E573E012
:10360000C6010F94B904B701C601800F911F0F9432
:10361000A40440E050E260E070E0C6010E9409A10D
:1036200080913811882309F468C081E09AE590936D
:103630008E1B80938D1B84E290E09093901B80936F
:103640008F1B87E08093811B82E88093841B84E832
:1036500090E0A0E0B0E08093851B9093861BA09340
:10366000871BB093881B0E94419F68960FB6F89401
:10367000DEBF0FBECDBFDF91CF911F910F91FF90A5
:10368000EF90DF90CF90BF90AF909F908F907F9002
:103690006F905F904F9008950196A11DB11DBC01E0
:1036A000CD01B5E09695879577956795BA95D1F751
:1036B00061507109810991092AE830E140E050E048
:1036C0000E94E49F88E090E090938E1B80938D1B76
:1036D00085E08093811BEDCE8456910990938E1BDB
:1036E00080938D1B85E08093811B82E88093841BEF
:1036F00081E090E1A0E0B0E022CF81E09AE59093F4
:103700008E1B80938D1B8CE490E097CFFFEFEF1A18
:10371000FF0A89013FCF892B09F00CC18091BD05BB
:103720009091BE05892B09F07CC084E096E09093CF
:103730008E1B80938D1B80EA90E89093901B809362
:103740008F1B87E08093811B12E81093841B80EA13
:1037500090E0A0E0B0E08093851B9093861BA0933F
:10376000871BB093881B0E94419F809150029091CB
:103770005102A0915202B09153020097A105B105E8
:1037800009F09EC010928E1B10928D1B05E00093D5
:10379000811B1093841B8AE890E1A0E0B0E0809345
:1037A000851B9093861BA093871BB093881B0E9458
:1037B000419F89E090E090938E1B80938D1B009336
:1037C000811B1093841B8CE890E1A0E0B0E0809313
:1037D000851B9093861BA093871BB093881B0E9428
:1037E000419F6091500270915102809152029091DC
:1037F000530228E830E140E050E00E94E49F6091ED
:103800005002709151028091520290915302982F70
:10381000872F762F662721EA30E040E050E00E94B3
:10382000E49F8091BD059091BE05853691050CF011
:1038300067C090938E1B80938D1B85E08093811BC6
:1038400082E88093841B80E090E1A0E0B0E0809368
:10385000851B9093861BA093871BB093881B0E94A7
:10386000419F6EE170E080E090E00E94E7A68091C9
:10387000BD059091BE0501969093BE058093BD0550
:10388000893C91050CF4F1CE81E090E090937C05A9
:1038900080937B0521E0209362021092080E20EABB
:1038A0003FE03093660D2093650D2091381122235F
:1038B000C1F121E03AE530938E1B20938D1BBDCEE4
:1038C0000196A11DB11DBC01CD01E5E0969587953E
:1038D00077956795EA95D1F761507109810991094A
:1038E0002AE830E140E050E00E94E49F88E090E068
:1038F00090938E1B80938D1B85E08093811B61CFFD
:103900008456910990938E1B80938D1B85E0809344
:10391000811B82E88093841B81E090E1A0E0B0E00D
:1039200096CF81E09AE590938E1B80938D1B8DE25C
:1039300090E083CE8091080E882309F4DAC180914B
:10394000650790916607A0916707B0916807892B7A
:103950008A2B8B2B09F4CDC10E9441A94B015C013C
:1039600020E13EE040E050E00F949B002D8B3E8B29
:103970004F8B588F2B013C0120E130E140E050E0BB
:103980006D897E898F89988D0E94E49FC301B20161
:103990002CE330E040E050E00F949B00CA01B901F5
:1039A00022E130E140E050E00E94E49F80918718DE
:1039B000882309F425C11091551A112309F479C0FF
:1039C00080911E1B90911F1BA091201BB091211B69
:1039D0000097A105B10509F46CC0BC01CD016D597A
:1039E0007F4F8F4F9F4F24E630E040E050E00F9430
:1039F0009B006091221B7091231B8091241B90914E
:103A0000251B0F949B0080910002909101022817C2
:103A1000190609F4F5C0112309F486C380911E1B11
:103A200090911F1BA091201BB091211B0097A10515
:103A3000B10509F479C3BC01CD016D597F4F8F4F9A
:103A40009F4F24E630E040E050E00F949B006091EF
:103A5000221B7091231B8091241B9091251B0F9496
:103A60009B00222309F460C32F5F20937405233346
:103A700010F530E0220F331F30938E1B20938D1BE7
:103A800005E00093811B12E81093841B8EE090E107
:103A9000A0E0B0E08093851B9093861BA093871BCA
:103AA000B093881B0E94419F10928E1B10928D1B19
:103AB00027C020E0A8CF84E690E090938E1B8093EF
:103AC0008D1B05E00093811B12E81093841B8EE090
:103AD00090E1A0E0B0E08093851B9093861BA093BB
:103AE000871BB093881B0E94419F8091740590E0D2
:103AF00082539048880F991F90938E1B80938D1B43
:103B00000093811B1093841B8FE090E1A0E0B0E054
:103B10008093851B9093861BA093871BB093881B73
:103B20000E94419F8091551A882309F402C3809115
:103B30001E1B90911F1BA091201BB091211B009771
:103B4000A105B10509F4F5C2BC01CD016D597F4F46
:103B50008F4F9F4F24E630E040E050E00F949B00F1
:103B60006091221B7091231B8091241B9091251B37
:103B70000F949B0030E030938E1B20938D1B85E0CB
:103B80008093811B82E88093841B86E190E1A0E012
:103B9000B0E08093851B9093861BA093871BB09306
:103BA000881B0E94419F8091551A882309F4C3C243
:103BB00080911E1B90911F1BA091201BB091211B77
:103BC0000097A105B10509F4B6C2BC01CD016D593C
:103BD0007F4F8F4F9F4F24E630E040E050E00F943E
:103BE0009B006091221B7091231B8091241B90915C
:103BF000251B0F949B0030E03093010220930002BC
:103C00002091870D3091880D4091890D50918A0D3A
:103C10006091030E7091040E8091050E9091060E36
:103C20000E9457FA882391F00E9408DD8091030ECC
:103C30009091040EA091050EB091060E8093870D11
:103C40009093880DA093890DB0938A0D8091060200
:103C5000882309F44EC080918718882309F449C04D
:103C600020E030E040E050E46091A80D7091A90D93
:103C70008091AA0D9091AB0D0F945F031816CCF5AF
:103C80008091890790918A07845D9E4F092E000CD0
:103C9000AA0BBB0B88159905AA05BB0550F58091A9
:103CA0004F02882321F180919D0D90919E0D90935C
:103CB000C0058093BF0510929E0D10929D0D10922D
:103CC0008E1B10928D1B85E08093811B82E8809370
:103CD000841B8AE390E1A0E0B0E08093851B909381
:103CE000861BA093871BB093881B0E94419F109254
:103CF000060260911717709118178091191790910B
:103D00001A170F946B0270938E1B60938D1B05E046
:103D10000093811B12E81093841B86E390E1A0E0DE
:103D2000B0E08093851B9093861BA093871BB09374
:103D3000881B0E94419F6091790D70917A0D80914E
:103D40007B0D90917C0D0F946B0270938E1B609392
:103D50008D1B0093811B1093841B8CE390E1A0E0EA
:103D6000B0E08093851B9093861BA093871BB09334
:103D7000881B0E94419F4091850D5091860D209196
:103D80009D0D30919E0D8091151790911617421739
:103D9000530741F420917D0D30917E0D281739078E
:103DA00009F49CC00E9419AA80919D0D90919E0DCE
:103DB0008E37910514F08DE790E090939E0D8093DF
:103DC0009D0D0E941FAA8091151790911617909330
:103DD0008E1B80938D1B05E00093811B12E81093CE
:103DE000841B84E390E1A0E0B0E08093851B909376
:103DF000861BA093871BB093881B0E94419F8091D4
:103E00009D0D90919E0D90938E1B80938D1B009322
:103E1000811B1093841B8AE390E1A0E0B0E08093C3
:103E2000851B9093861BA093871BB093881B0E94D1
:103E3000419F80918718811141C06091850D7091DB
:103E4000860D40919D0D50919E0D6417750764F08D
:103E500020917D0D30917E0D809115179091161750
:103E6000281739070CF06CC180913811882309F4A8
:103E700064C181E090E090938E1B80938D1B85E060
:103E80008093811B82E88093841B84E190E1A0E011
:103E9000B0E08093851B9093861BA093871BB09303
:103EA000881B0E94419F1092660D1092650D8091B3
:103EB0000C0E811101C081E080930C0E80919D0D4C
:103EC00090919E0D9093860D8093850D809115178E
:103ED0009091161790937E0D80937D0D80919C0597
:103EE000811105C080919E05882309F4DBC00091F3
:103EF0001517109116170115110509F120E030E092
:103F000048EC52E4609117177091181780911917B7
:103F100090911A170E94BDFA4B015C01B801110F74
:103F2000880B990B0E945EFA9B01AC01C501B4019C
:103F30000F94F9010F9472026536710510F064E672
:103F400070E070938E1B60938D1B05E00093811BC6
:103F500012E81093841B84E290E1A0E0B0E080932B
:103F6000851B9093861BA093871BB093881B0E9490
:103F7000419F6091151770911617072E000C880B42
:103F8000990B0E945EFA9B01AC016091171770912A
:103F900018178091191790911A170F945F0387FDD6
:103FA0005DC180919C05882309F405C110929D058F
:103FB00010929C0520E030E040E251E460919305CE
:103FC0007091940580919505909196050E94BDFA97
:103FD0000F946B0270938E1B60938D1B0093811B5B
:103FE0001093841B84E590E1A0E0B0E08093851BF2
:103FF0009093861BA093871BB093881B0E94419FC0
:1040000020E030E040E251E460919705709198051E
:104010008091990590919A050E94BDFA0F946B02C8
:1040200070938E1B60938D1B0093811B1093841BD8
:1040300088E590E1A0E0B0E08093851B9093861B1B
:10404000A093871BB093881B0E94419F80913811D9
:10405000882309F4A7C081E09AE590938E1B809392
:104060008D1B87E190E09093901B80938F1B87E0DE
:104070008093811B1093841B84E890E0A0E0B0E063
:104080008093851B9093861BA093871BB093881BFE
:104090000E94419F83E090E00E940D19809192055B
:1040A000809363068091090E882329F180919B05F6
:1040B00091E0980F90939B0590E090938E1B8093D6
:1040C0008D1B85E08093811B82E88093841B82E4B2
:1040D00090E1A0E0B0E08093851B9093861BA093B5
:1040E000871BB093881B0E94419F80919B058A305B
:1040F00010F010929B056091650D7091660D072E72
:10410000000C880B990B6053784F8F4F9F4FC60E52
:10411000D71EE81EF91EC0927505D0927605E09272
:104120007705F0927805A1CA10928E1B10928D1B14
:10413000A7CC20E01FCD20E05ECD8DE090E09BCEAF
:104140004617570724F0821793070CF0B7CE8091DB
:104150003811882321F188E090E090938E1B8093A2
:104160008D1B85E08093811B82E88093841B84E112
:1041700090E1A0E0B0E08093851B9093861BA09314
:10418000871BB093881B0E94419F1092660D10926E
:10419000650D80910C0E81118FCE82E08DCE84E171
:1041A00090E0DBCF81E09AE590938E1B80938D1B8E
:1041B00081E490E058CF80919E05882309F44EC099
:1041C00010929E051092BE051092BD0581E080936D
:1041D000080E84E090E090938E1B80938D1B0093DB
:1041E000811B1093841B8EE890E1A0E0B0E08093E7
:1041F000851B9093861BA093871BB093881B0E94FE
:10420000419F80913811882301F181E09AE59093D4
:104210008E1B80938D1B88E090E09093901B809381
:104220008F1B87E08093811B1093841B84E890E0B0
:10423000A0E0B0E08093851B9093861BA093871B22
:10424000B093881B0E94419F2DCF81E09AE5909307
:104250008E1B80938D1B83E590E0DFCF80919E05C0
:10426000882309F41FCF8091BD059091BE059C0164
:104270002F5F3F4F3093BE052093BD0565E070E092
:104280000F94310490938E1B80938D1B85E0809357
:10429000811B82E88093841B8EE890E1A0E0B0E06F
:1042A000C9CFAF92BF92CF92DF92EF92FF920F935E
:1042B0001F93CF93DF931F92CDB7DEB76C018B01B5
:1042C000590180918B0781111BC07B01E40EF51E03
:1042D000F601808191810F9475008983F8018193A3
:1042E0008F01BE016F5F7F4FC5010E9458A1F6018B
:1042F00080819181019691838083E016F10641F7D8
:104300000F90DF91CF911F910F91FF90EF90DF9071
:10431000CF90BF90AF9008950E94E7C00E94DDD17A
:104320000E941B1390E080E00E94E21381E090E085
:104330000E94E21382E090E00E94E21360919E07E7
:1043400070919F078091A0079091A1070E943E1550
:104350000E946EA10C946013FC0120E03EE2DB01A0
:104360004D91BD01403249F0283011F4308331962F
:10437000DB0111974C91408331962F5F2B3079F7F9
:104380001082089561E0FC0180810C9478A48EBDB8
:104390000DB407FEFDCF08958FEF8EBD0DB407FE5F
:1043A000FDCF8EB508958F929F92AF92BF92EF92FC
:1043B000FF920F931F93CF937C01C62F49015A019F
:1043C000FC019281892F806A86958CBD90FD03C087
:1043D00081E0963009F480E08DBD60E0F7018081D6
:1043E0000E9478A48CE291E00E94E7A78C2F806461
:1043F0000E94C72108E110E0D501C401002E04C0CD
:10440000B695A795979587950A94D2F70E94C721EC
:1044100008501109083FFFEF1F0771F785E9CC230A
:1044200021F087E8C83009F08FEF0E94C721CC3017
:1044300011F40E94CC21C0E00E94CC21F7018383BB
:1044400087FF04C0CF3F11F0CF5FF6CFCF911F9110
:104450000F91FF90EF90BF90AF909F908F90089535
:104460000F931F93CF93DF93EC0189018C818330ED
:1044700039F089E0440F551F661F771F8A95D1F7E1
:104480009A01AB0168E1CE010E94D321882319F083
:1044900086E089833AC08EEF8EBDF801C8019E5F29
:1044A0000DB407FEFDCF20812EBD0DB407FEFDCF5C
:1044B00021812EBD3296E817F90791F70DB407FE5A
:1044C000FDCF8FEF0E94C7218FEF0E94C7210E946E
:1044D000CC218B838F71853099F488E592E00E941E
:1044E000E7A7182F87E11123A1F220E030E0A9010E
:1044F0006DE0CE010E94D321882361F086E1C9CF0F
:1045000083E18983CE010E94C221CE010E94C22193
:1045100010E007C00E94CC218111F0CFCE010E9493
:10452000C221812FDF91CF911F910F910895CF93D9
:1045300080918E15C1E08823A1F04091861550919D
:104540008715609188157091891526E833E180916F
:104550008F15909190150E943022C82F811104C0B0
:10456000C0E08C2FCF91089540918A1550918B1502
:1045700060918C1570918D1541155105610571057E
:1045800091F026E833E180918F15909190150E946B
:104590003022882329F310928A1510928B151092DD
:1045A0008C1510928D1510928E15DBCFEF92FF9225
:1045B0000F931F93CF93DF93EC0179018C818330AC
:1045C00039F089E0440F551F661F771F8A95D1F790
:1045D0009A01AB0161E1CE010E94D321882339F019
:1045E00084E08983CE010E94C22180E03BC00E940A
:1045F00078A78B010E94CC218B838F3F81F40E948E
:1046000078A7601B710B6D327140A0F381E1898343
:10461000CE010E94C2218FEF0E94C721E6CF8E3FBC
:1046200011F08FE0F4CF8FEF8EBDF701D701A150CD
:10463000BE4F0DB407FEFDCF9EB591938EBDAE1754
:10464000BF07B9F70DB407FEFDCF8EB58C930E945E
:10465000CC210E94CC21CE010E94C2218FEF0E946A
:10466000C72181E0DF91CF911F910F91FF90EF90D3
:104670000895CF92DF92EF92FF92CF936B017C016E
:10468000C42F8091861590918715A0918815B091BF
:1046900089158C159D05AE05BF0501F10E94972275
:1046A000811108C0C0E08C2FCF91FF90EF90DF9078
:1046B000CF90089526E833E1B701A60180918F15C8
:1046C000909190150E94D622882361F3C09286159E
:1046D000D0928715E0928815F0928915CC2321F0AD
:1046E00081E080938E15DFCFC1E0DDCF4F925F92E6
:1046F0006F927F928F929F92AF92BF92CF92DF92F2
:10470000EF92FF920F931F93CF93DF93EC01423010
:1047100051056105710590F480E0DF91CF911F9103
:104720000F91FF90EF90DF90CF90BF90AF909F9050
:104730008F907F906F905F904F90089589859A85B4
:10474000AB85BC850196A11DB11D84179507A607F1
:10475000B70710F38F898031C9F5852E962EA72EC5
:10476000BB248B899C89AD89BE89880E991EAA1E9F
:10477000BB1E280139016A017B0141E0C501B4017A
:104780000E943923882341F29F89903181F5DD24ED
:10479000EE24FF24F601EE0FFF1FEA57FC4E1183B3
:1047A00000839A89923008F4B8CF4D815E816F8181
:1047B0007885840E951EA61EB71E80928A1590924B
:1047C0008B15A0928C15B0928D15A7CF803209F071
:1047D000A3CF8B899C89AD89BE894A015B01E7E043
:1047E000B694A79497948794EA95D1F7BECFE894AE
:1047F000C7F8DD24EE24FF24F601EE0FFF1FEE0FB5
:10480000FF1FEA57FC4E4082518262827382C9CFF9
:10481000CF92DF92EF92FF920F931F93CF93DF938C
:10482000FC0181859285A385B4850196A11DB11DEA
:1048300084179507A607B70750F480E0DF91CF9162
:104840001F910F91FF90EF90DF90CF90089587898F
:104850008031A9F5BB27A72F962F852FC388D48831
:10486000E588F6888C0D9D1DAE1DBF1DE9016A010E
:104870007B018F01409186155091871560918815B5
:104880007091891584179507A607B70749F5F801B0
:104890008789803169F5B701A601552766277727F3
:1048A000440F551F4A575C4EFA0180819181B0E058
:1048B000A0E088839983AA83BB8381E0BFCF803245
:1048C00009F0BBCFC388D488E588F688DB01CA012C
:1048D000C7E0B695A79597958795CA95D1F7C2CFAA
:1048E00040E0BC01CD010E9439238111D0CFA5CF7A
:1048F000B701A6014F77552766277727440F551F25
:10490000440F551F4A575C4EFA0180819181A28164
:10491000B381BF70CECF4F925F926F927F92AF9272
:10492000BF92CF92DF92EF92FF920F931F93CF939C
:10493000DF9300D01F92CDB7DEB78C0149835A8335
:104940006B837C835901C12CD12C7601412C82E0F0
:10495000582E612C712C49815A816B817C819E017A
:104960002F5F3F4FC8010E940824882319F1F801E6
:104970008585A301920104C0220F331F441F551FD8
:104980008A95D2F7DA01C901C80ED91EEA1EFB1EAC
:1049900049815A816B817C8187898031F1F481E082
:1049A000483F5F4F61057105B0F2F501C082D182C9
:1049B000E282F3820F900F900F900F90DF91CF91D2
:1049C0001F910F91FF90EF90DF90CF90BF90AF902D
:1049D0007F906F905F904F90089581E0483F5F4FC8
:1049E0006F4F7F4008F4B7CFE0CF0F931F93CF9363
:1049F000DF93FC012381222331F080E0DF91CF910E
:104A00001F910F9108958B01EC01FB018789803183
:104A100039F582E08B831D8A1E8A1F8A188E808D4D
:104A2000918DB0E0A0E025E0880F991FAA1FBB1F61
:104A30002A95D1F7898B9A8BAB8BBC8B1A8F098FF8
:104A400081E089831C821D821E821F82188619863E
:104A50001A861B861C861D861E861F86188ACECF48
:104A6000803259F683E08B83428D538D648D758D32
:104A70004D8B5E8B6F8B788F9E012F5E3F4FC801F1
:104A80000E948B248111DACFB8CF8F929F92AF9280
:104A9000BF92CF92DF92EF92FF920F931F93CF932B
:104AA000DF93EC018B8181110EC080E0DF91CF910B
:104AB0001F910F91FF90EF90DF90CF90BF90AF903C
:104AC0009F908F90089509891A892B893C89041732
:104AD00015072607370748F34A015B01823031F496
:104AE00088869986AA86BB8681E0E0CF81149104EE
:104AF000A104B10449F41C821D821E821F82188603
:104B000019861A861B86F0CF088519852A853B856C
:104B1000E98DFA8D858590E00996B901A80141508B
:104B2000510961097109082E04C07695679557955A
:104B300047950A94D2F775016401E1E0CE1AD108D5
:104B4000E108F10804C0F694E794D794C7948A95D5
:104B5000D2F7C416D506E606F70620F0012B022B85
:104B6000032B11F58D899E89AF89B88D8C839D8328
:104B7000AE83BF838E010C5F1F4FC114D104E104CB
:104B8000F10409F4ADCF4C815D816E817F81980184
:104B9000898D9A8D0E94082491E0C91AD108E108F4
:104BA000F1088111EACF81CFC41AD50AE60AF70AC3
:104BB000E1CF40E050E0BA010C9445253F924F927E
:104BC0005F926F927F928F929F92AF92BF92CF929D
:104BD000DF92EF92FF920F931F93CF93DF93CDB7A6
:104BE000DEB72C970FB6F894DEBF0FBECDBF5C01C9
:104BF000DC0159968D909C90F40181859285A38566
:104C0000B4859C01AD012F5F3F4F4F4F5F4F298708
:104C10003A874B875C87D50114964D905D906D90D7
:104C20007C901797411451046104710409F459C030
:104C3000BFEF4B1A5B0A6B0A7B0A312C73016201CE
:104C40001D821E821F821886F40181859285A385AC
:104C5000B4852D813E814F815885281739074A0731
:104C60005B0708F056C089859A85AB85BC858C1595
:104C70009D05AE05BF0550F482E0C82ED12CE12C75
:104C8000F12C92E0492E512C612C712C9E012F5F4A
:104C90003F4FB701A601C4010E9408248823C9F12F
:104CA00089819A81AB81BC81892B8A2B8B2B01F165
:104CB000260137019FEF491A590A690A790A2D819D
:104CC0003E814F8158852F5F3F4F4F4F5F4F2D8360
:104CD0003E834F8358873FEFC31AD30AE30AF30A90
:104CE000B3CF408051806280738033243394A6CF49
:104CF000C414D504E604F70411F70FEF1FEF2FEFEC
:104D00003FE0B701A601C4010E947623782E8111ED
:104D10001AC0712C872D2C960FB6F894DEBF0FBEEB
:104D2000CDBFDF91CF911F910F91FF90EF90DF905A
:104D3000CF90BF90AF909F908F907F906F905F903B
:104D40004F903F900895F5014481558166817781A8
:104D5000411551056105710539F097018601C401BE
:104D60000E9476238823A9F2D5011496CD92DD9274
:104D7000ED92FC921797332051F0D701C6010196AE
:104D8000A11DB11DF40180839183A283B383F5013A
:104D900085899689A789B08D892B8A2B8B2B09F061
:104DA000B9CFC58AD68AE78AF08E818180688183EF
:104DB000B1CFCF93DF93EC01462F41706C857D8599
:104DC0008E859F850E943923882351F0888920E2AF
:104DD000829FC00111248A579C4EDF91CF91089584
:104DE00090E080E0FACFCF93DF93EC018B818823B2
:104DF00049F1898187FF22C061E0CE010E94D92656
:104E0000FC01892BF9F08081853EE1F08B818230B5
:104E100040F489899A89AB89BC89848F958FA68F44
:104E2000B78F8D899E89938F828F8D899E89AF8957
:104E3000B88DB58BA48B89818F778983DF91CF91D2
:104E40000C94972281E0888380E0DF91CF910895D0
:104E50002F923F924F925F926F927F928F929F928A
:104E6000AF92BF92CF92DF92EF92FF920F931F9378
:104E7000CF93DF9300D01F92CDB7DEB78C014B01EB
:104E80001A01DC0113968C911397813009F0CAC086
:104E900011968C9181FFC6C082FDB0C06101D8011E
:104EA00018964D915D916D917C911B97C114D10421
:104EB00009F41AC159968D919C915A97FC017480FE
:104EC0002FEF270D2A013B0139E076946794579420
:104ED00047943A95D1F7722E74207A01F1E0FF22BF
:104EE000711020C0E114F104E9F414964D915D9124
:104EF0006D917C911797411551056105710509F078
:104F000097C055968D919D910D90BC91A02D0097C5
:104F1000A105B10509F0A5C0C8010E94DE258823BE
:104F200009F480C080E092E08E199F0956018C152B
:104F30009D0508F45C01D80159964D915C915A97F2
:104F400014968D919D910D90BC91A02D0297A10971
:104F5000B109FA01258504C0880F991FAA1FBB1F3C
:104F60002A95D2F74685578560897189840F951FE8
:104F7000A61FB71F9C01AD01270D311D411D511DFD
:104F800029013A01A11432E0B30609F078C08091FA
:104F9000861590918715A0918815B09189154816AE
:104FA00059066A067B0669F410928E158FEF9FEF03
:104FB000DC018093861590938715A0938815B09394
:104FC00089159401B301A20180918F1590919015DC
:104FD0000E943022882331F1F80180859185A285D5
:104FE000B3858A0D9B1DA11DB11D80879187A28766
:104FF000B3878A0C9B1CCA18DB0851CFF801418982
:1050000052896389748980859185A285B385481703
:1050100059076A077B0709F441CFC8010E9445255B
:1050200081113CCF81E0D8018C938FEF9FEF72C04C
:105030009E012F5F3F4F0E940824882399F38981A6
:105040009A81AB81BC81F801218D328DF9012789CC
:10505000203169F4883FFFEF9F07A105B10508F0F3
:105060005BCFF80184839583A683B7835BCF883FAA
:105070002FEF9207A2072FE0B20798F34DCFE1146C
:10508000F10451F5D80118964D915D916D917C9187
:105090001B9751968D919D910D90BC91A02D481715
:1050A00059076A077B07C0F00E949722882309F4FA
:1050B000B9CF81E080938E15409286155092871566
:1050C0006092881570928915A501B401C7018A57AD
:1050D0009C4E0F94690480CF41E0C301B2010E944D
:1050E00039238111F1CF9ECFF80181899289A3895B
:1050F000B48984179507A607B70738F48181418BD7
:10510000528B638B748B80688183F801818183FD6E
:1051100018C0C1010F900F900F900F90DF91CF91A9
:105120001F910F91FF90EF90DF90CF90BF90AF90C5
:105130009F908F907F906F905F904F903F902F90B7
:105140000895C8010E94F3268111E3CF6BCFCF935E
:10515000DF931F92CDB7DEB7698341E050E0BE0117
:105160006F5F7F4F04960E9428270F90DF91CF91A9
:105170000895CF93DF93EC010E94F3261B82DF9109
:10518000CF910895FC01238121110C94B928089531
:10519000CF93DF93EB01FC012381211104C080E058
:1051A000DF91CF9108952250223028F48FE2888336
:1051B000198281E0F5CF60E00E94D926009779F34B
:1051C000DC0160E080E09EE22D91203299F0883091
:1051D00031F49E01260F311DF90190836F5F9E010E
:1051E000260F311DAD0141505109FA014081F901ED
:1051F00040836F5F8F5F8B3039F7FE01E60FF11D43
:105200001082D7CF2F923F924F925F926F927F92F0
:105210008F929F92AF92BF92CF92DF92EF92FF92C6
:105220000F931F93CF93DF9300D01F92CDB7DEB7BC
:105230009C838B834B017A01DC0113968C91811145
:1052400019C08FEF9FEF0F900F900F900F90DF918D
:10525000CF911F910F91FF90EF90DF90CF90BF9073
:10526000AF909F908F907F906F905F904F903F9006
:105270002F900895EB81FC81818180FFE2CF01892D
:105280001289238934894085518562857385C701D8
:10529000B0E0A0E028013901441A550A660A770AED
:1052A000481659066A067B0618F47801E41AF50ACE
:1052B00067018B819C8104969A838983612C32E0FB
:1052C000732EC114D10409F4B7C0AB81BC81189608
:1052D0004D915D916D917C911B975A01B1E0BB227C
:1052E000EB81FC81818D928D1A012B0129E056946E
:1052F0004794379427942A95D1F72381223091F54A
:10530000DC015A966D917D918D919C915D97620D16
:10531000731D841D951D83010A191B09C016D10632
:1053200008F486010115B2E01B0771F4209186157F
:105330003091871540918815509189156217730730
:105340008407950709F059C040E00E94392388235B
:1053500009F477CFB5016A577C4EA801C4010F94B8
:10536000690457C0FC01148111501221A114B10429
:1053700081F411110EC0452B462B472B79F5EB819B
:10538000FC8185899689A789B08D84839583A683BE
:10539000B783AB81BC815996ED91FC915A971496D5
:1053A0006D917D918D919C91179762507109810942
:1053B0009109258504C0660F771F881F991F2A95BC
:1053C000D2F72685378540895189620F731F841F64
:1053D000951F610F711D811D911D9DCFAB81BC81FA
:1053E00014964D915D916D917C91179729813A8129
:1053F0000E9408248111CDCF24CF9401AB01BC01C0
:1054000080918F15909190150E94D622882309F4DF
:1054100018CF800E911EEB81FC8180859185A2853D
:10542000B385800F911FA11DB11D80879187A28731
:10543000B387C01AD10A45CFC70105CFDF92EF92DB
:10544000FF920F931F93CF93DF938C01EB017A01AF
:105450008DE0D82E40E250E0BE01C8010E94022932
:105460008032910571F021E0892B09F420E0822F30
:105470008195DF91CF911F910F91FF90EF90DF9079
:10548000089528812223C1F1253E21F32E3211F304
:10549000E114F10439F13B853F733F3019F54A8D32
:1054A0005B8D452BF9F42F713FEF320F3230D0F482
:1054B0002150330BD29EC001D39E900D1124D701F1
:1054C000A80FB91FFE0120E0AD01253078F431812D
:1054D0003D932F5F32962D30C1F7288126FF02C001
:1054E000FA0115862B8523FDB5CFC3CF2B3010F4E1
:1054F0003481EECF3681ECCF80E0BBCF4F925F920C
:105500006F927F92AF92BF92CF92DF92EF92FF9213
:105510000F931F93CF93DF931F92CDB7DEB78C010C
:105520007B015A01C22EDB0159968D919C91F801A5
:10553000928F818FCB010E94D925712CF701808534
:105540009185A285B38541895289638974898417BD
:105550009507A607B70708F052C055E0B695A7957E
:10556000979587955A95D1F7F82FFF70DF2ED701C1
:1055700013968C91823010F480E0DBC041E050E063
:10558000BE016F5F7F4FC7010E9402290197A1F7FB
:10559000F70180859185A285B3854F96A11DB11D28
:1055A00080879187A287B387F0E2DF9EB001112444
:1055B0006A577C4E61157105F9F2DB018C918823E5
:1055C00041F0853E09F04CC0772029F07724739490
:1055D000B5CF71100EC08091861590918715A0915E
:1055E0008815B0918915F80184879587A687B787B4
:1055F000D08ADB018C918111E9CF772473948C2DB3
:105600008274823409F0B8CF772009F4A2C0F8017F
:10561000D08861E0C8010E94D926009709F4ACCF78
:1056200020E2DC011D922A95E9F72BE0F501DC016F
:1056300001900D922A95E1F721E238E2FC01318BCD
:10564000208B40E058E057874687338B228B318F81
:10565000208F578B468B0E949722811109C08CCFD7
:105660004BE050E0C5010F945C04892B09F066CF34
:10567000F0E2DF9ED00111249D012A573C4EF90132
:105680008385817121F08C2D827109F0FCC0F801B5
:10569000818D928D40918615509187156091881566
:1056A000709189154487558766877787D08AFD0171
:1056B000EA57FC4E44885588712C612C32015524E0
:1056C0004424D80155964D925D926D927C925897E4
:1056D000428D538D70E060E0442955296629772971
:1056E00055964D935D936D937C935897D9011B9676
:1056F0002C91287109F0B9C0848D958DA68DB78D38
:10570000F801818B928BA38BB48B81E083838C2DEA
:105710008F70F80181831482158216821782108699
:1057200011861286138681E0C4FE03C0C8010E9460
:1057300008A00F90DF91CF911F910F91FF90EF90F4
:10574000DF90CF90BF90AF907F906F905F904F9021
:105750000895D70113968C911397823009F40CCFDA
:1057600051968D919D910D90BC91A02D803E9F4FA3
:10577000AF41B10508F000CFC7010E94DE258823A4
:1057800009F4FACE0E949722882309F4F5CED701B6
:105790005996ED91FC915A9714964D905D906D90AD
:1057A0007C901797B2E04B1A510861087108858503
:1057B00004C0440C551C661C771C8A95D2F786855C
:1057C0009785A089B189480E591E6A1E7B1E81E00B
:1057D00080938E1540928615509287156092881599
:1057E00070928915E6E8F3E180E092E0DF019C0128
:1057F0001D9221503040E1F7DD24D394D701599612
:10580000ED91FC918481D81698F426E833E1B30138
:10581000A2014D0D511D611D711D80918F1590913B
:1058200090150E943022882309F4A6CED394E6CFA7
:10583000258580E092E0A0E0B0E004C0880F991FC9
:10584000AA1FBB1F2A95D2F7F701418952896389A4
:105850007489840F951FA61FB71F818B928BA38B12
:10586000B48B86E893E1D12CDBCE203161F4980132
:105870002F5E3F4F0E948B24882329F084E0D801BB
:1058800013968C9344CFD80113961C9275CE2F9209
:105890003F924F925F926F927F928F929F92AF92C0
:1058A000BF92CF92DF92EF92FF920F931F93CF930D
:1058B000DF93CDB7DEB7C254D1090FB6F894DEBF7F
:1058C0000FBECDBF4C015B016A01322E19821C82D2
:1058D0001C8E1F8E672B21F510E0CE014C960E9486
:1058E000C228CE0101960E94C228812FCE5BDF4FD5
:1058F0000FB6F894DEBF0FBECDBFDF91CF911F91E1
:105900000F91FF90EF90DF90CF90BF90AF909F905E
:105910008F907F906F905F904F903F902F90089561
:10592000FC0183818111D8CFFA0180818F32C1F4CB
:10593000CA016C010196F60120812F32D1F3F501E5
:1059400083818250823060F0618D728DCE014C96E1
:105950000E94F5248E01045E1F4F811102C0BCCF4E
:105960008501CE0101967C013C012E019CE1490E8E
:10597000511C2396EFAE23972F2CFE01F796CF01F3
:105980000B96AF0120E22193E817F907D9F79601AA
:1059900090E067E0D9018D91882351F18F3241F178
:1059A000282F8E3239F46A3009F496CF98E06AE0F5
:1059B0009D01F0CFEFE8F1E13491332321F03196EE
:1059C0008313FACF89CF691708F486CF813208F4A0
:1059D00083CF8F3709F480CF3FE9380F3A3110F485
:1059E00020EE280FFA01E90FF11D20839F5FE0CF21
:1059F0008FA9803209F470CF6901F90180812F5F8E
:105A00003F4F8F32C9F38823D9F021E0B801C70195
:105A10000E947E2A882309F45FCF0A151B0519F01E
:105A2000C8010E94B928942D852D6E147F0421F0A1
:105A300023969FAD2397822D8701E92EF82E9DCFC7
:105A4000232DB801C4010E947E2A182F46CF1F9330
:105A5000CF93DF93CDB7DEB76B970FB6F894DEBF69
:105A60000FBECDBFAB0119821C8222E0BC01CE016A
:105A700001960E94472C811110C010E0CE010196C2
:105A80000E94C228812F6B960FB6F894DEBF0FBE1E
:105A9000CDBFDF91CF911F910895CE0101960E9455
:105AA00008A0882351F361E0CE0101960E94D92617
:105AB000009719F325EEFC0120831C820E94972297
:105AC000182FDCCF29E433E0FC01318320830496D6
:105AD0000C94C2285F9AE6E7FDE010828A9A118250
