:100000000C94B3110C94E4110C94E4110C94E411CD
:100010000C94E4110C94E4110C94E4110C94E4118C
:100020000C94E4110C94E4110C94E4110C94E4117C
:100030000C94E4110C94E4110C94E4110C94E4116C
:100040000C94E4110C94CBB10C94E4110C94E411D5
:100050000C94E4110C94E4110C9408AA0C9440A79D
:100060000C94E4110C9416620C94E4110C94E411B9
:100070000C94E4110C94E4110C94E4110C94E4112C
:100080000C946ABB0C94E4110C94E4110C94E411EC
:100090000C94E4110C94E4110C94E4110C94E4110C
:1000A0000C94E4110C94E4110C943CBB0C94E411FA
:1000B0000C94E4110C94E4110C94E4110C940EBB18
:1000C0000C94E4110C94E4110C94E4110C94C5A16B
:1000D0000C949BA10C94E4110C94E4110C94E41185
:1000E0000C94E411084AD73B3BCE016E84BCBFFDA3
:1000F000C12F3D6C74319ABD56833DDA3D00C77FF8
:1001000011BED9E4BB4C3E916BAAAABE0000008090
:100110003F05A84CCDB2D44EB93836A9020C50B91F
:10012000918688083CA6AAAA2ABE000000803F004B
:100130004E414E494E495459494E46CDCCCC3D0ACC
:10014000D7233C17B7D13877CC2B329595E6241FAF
:10015000B14F0A000020410000C84200401C462068
:10016000BCBE4CCA1B0E5AAEC59D7400407A10F33B
:100170005A00A0724E18090010A5D4E80000E876D5
:1001800048170000E40B54020000CA9A3B0000002C
:10019000E1F505000080969800000040420F000045
:1001A00000A08601000000102700000000E8030006
:1001B0000000006400000000000A000000000001D0
:1001C00000000000002C76D888DC674F0823DFC1D0
:1001D000DFAE59E1B1B796E5E3E453C63AE651998B
:1001E0007696E8E6C28426EB898C9B62ED407C6FB4
:1001F000FCEFBC9C9F40F2BAA56FA5F490055A2A6B
:10020000F75C936B6CF9676DC11BFCE0E40D47FE76
:10021000F520E6B500D0ED902E030094357705006B
:1002200080841E080000204E0A000000C80C3333F2
:1002300033330F986E12831141EF8D2114893BE601
:100240005516CFFEE6DB18D1844B381BF77C1D908A
:100250001DA4BBE424203284725E228100C9F124F3
:10026000ECA1E53D27434F4D4D554E49434154497F
:100270004F4E0044525952554E004552524F525320
:1002800000494E464F004543484F004D3234004D23
:100290003233202573004D3130362053323535004E
:1002A0004D31303920532569004D313930205325E7
:1002B000690047393220452573004730205A25739D
:1002C000004D31303920532569004D3139302053EC
:1002D0002569004D323400473238004D3432302029
:1002E0005330004D343230205331004731204631F5
:1002F0003030205A300047312058353020593330C3
:1003000030204633363030004731204631303020FF
:100310005A330047312046313030205A30004731BF
:100320002058333030205933303020463336303087
:100330000047312046313030205A330047312046C3
:10034000313030205A300047312058333030205976
:10035000353020463336303000473120463130309A
:10036000205A330047312046313030205A30004780
:100370003120583530205935302046333630300062
:1003800047312046313030205A3300473120463142
:100390003030205A30004731205831383020593120
:1003A0003830204633363030004731204631303047
:1003B000205A33004732390047393000473238007D
:1003C000473238205A3000473238004D3834004721
:1003D000312046323030205A302E3000473238003B
:1003E00047393220452573004730205A2573004D88
:1003F00031303920532569004D313930205325697A
:1004000000473238205830205930004732382058C1
:1004100030205930005072696E7465722073746FA9
:10042000707065642064756520746F206572726FEA
:1004300072732E2046697820746865206572726F29
:100440007220616E6420757365204D3939392074CE
:100450006F20726573746172742E202854656D70FC
:100460006572617475726520697320726573657455
:100470002E20536574206974206166746572207241
:10048000657374617274696E67290A004E6F204C3F
:10049000696E65204E756D6265722077697468209B
:1004A000636865636B73756D2C204C617374204CAD
:1004B000696E653A20004E6F20436865636B737503
:1004C0006D2077697468206C696E65206E756D6249
:1004D00065722C204C617374204C696E653A200063
:1004E000636865636B73756D206D69736D617463AB
:1004F000682C204C617374204C696E653A20004C66
:10050000696E65204E756D626572206973206E6F2D
:1005100074204C617374204C696E65204E756D6259
:1005200065722B312C204C617374204C696E653AD6
:1005300020004D313130004D3331004D38342058DA
:100540002059205A2045005344207265616420657B
:1005500072726F720A00446F6E65207072696E74F9
:10056000696E672066696C650A0020496E76616C69
:1005700069642065787472756465722000000000FB
:100580000000000000000000000000B4430000B4C0
:10059000430000CD434730204633363030205831B9
:1005A000383020593138300042696C696E656172AB
:1005B000204C6576656C696E6720477269643A0AFB
:1005C0000020706F736974696F6E206F7574206F8F
:1005D000662072616E67652E0A003F50726F626519
:1005E000200052756E6E696E6720696E2044525904
:1005F0002D52554E206D6F64650A004732392041F7
:1006000075746F20426564204C6576656C696E6711
:100610000A0028422961636B00284629726F6E74B4
:10062000002852296967687400284C29656674009F
:100630003F2856296572626F7365206C6576656C1C
:1006400020697320696D706C61757369626C6520D7
:1006500028302D34292E0A00426164205A20766108
:100660006C75650A004E6F2062696C696E65617217
:1006700020677269640A0044656C6574696F6E2056
:100680006661696C65642C2046696C653A20004699
:10069000696C652064656C657465643A006F7065AB
:1006A0006E206661696C65642C2046696C653A2031
:1006B000005374616E64617264204465766961748C
:1006C000696F6E3A20002052616E67653A20002003
:1006D0004D61783A2000204D696E3A20004D6561E9
:1006E0006E3A200046696E6973686564210A0020CD
:1006F00072616E67653A2000206D61783A200020B3
:100700006D696E3A2000207369676D613A200020A0
:100710006D65616E3A20003A207A3A2000206F66BB
:100720002000205A00205900205800476F696E674A
:1007300020746F3A00436C6F636B776973650A00CE
:10074000436F756E7465722D002044697265637421
:10075000696F6E3A2000202020616E676C653A2038
:10076000005374617274696E672072616469757395
:100770003A2000506F736974696F6E696E672074F8
:1007800068652070726F62652E2E2E0A003F4E75CE
:100790006D626572206F66206C65677320696E20DC
:1007A0006D6F76656D656E74206E6F7420706C6110
:1007B000757369626C652028302D3135292E0A0049
:1007C000590058003F53616D706C652073697A65FC
:1007D000206E6F7420706C61757369626C6520287F
:1007E000342D3530292E0A004D3438205A2D5072C0
:1007F0006F6265205265706561746162696C6974CD
:100800007920546573740A003F2856296572626F17
:100810007365206C6576656C20697320696D706CFA
:1008200061757369626C652028302D34292E0A00A9
:10083000202F002042403A0020403A004732382022
:1008400058302059300020573A004732382058306D
:100850002059300020573A00205A3A0020593A00D7
:1008600020436F756E7420583A0020453A00205A94
:100870003A0020593A00583A004361703A454D45D4
:100880005247454E43595F5041525345523A300A00
:10089000004361703A434153455F4C494748545FB8
:1008A0004252494748544E4553533A300A00436137
:1008B000703A544F47474C455F4C49474854533A68
:1008C000300A004361703A534F4654574152455FD6
:1008D000504F5745523A300A004361703A4C4556E2
:1008E000454C494E475F444154413A310A00436107
:1008F000703A5A5F50524F42453A310A0043617094
:100900003A4155544F4C4556454C3A310A004361E3
:10091000703A5052494E545F4A4F423A310A0043AE
:1009200061703A50524F47524553533A300A004390
:1009300061703A4155544F5245504F52545F54459F
:100940004D503A310A004361703A454550524F4D7F
:100950003A310A004649524D574152455F4E414D8A
:10096000453A4D61726C696E2056657220312E37A2
:10097000312E30204B4620484D473320284B65729E
:10098000736579204661627269636174696F6E7321
:100990002920534F555243455F434F44455F5552BD
:1009A0004C3A68747470733A2F2F67697468756273
:1009B0002E636F6D2F4B6572736579466162726944
:1009C000636174696F6E732F6D61726C696E5F65C0
:1009D00035702050524F544F434F4C5F5645525341
:1009E000494F4E3A312E30204D414348494E455FE4
:1009F000545950453A456E6465722D3520506C75DA
:100A0000732045585452554445525F434F554E54F8
:100A10003A3120555549443A63656465326132661E
:100A20002D343161322D343734382D396231322D45
:100A30006335356336326633363766660A00205AC8
:100A400000205900580020204D61783A2000205A9B
:100A500000205900580020204D696E3A20004F6E4A
:100A600020004F666600536F667420656E64737471
:100A70006F70733A200020643A0020693A002070B9
:100A80003A0023646566696E6520204445464155F9
:100A90004C545F4B64200023646566696E652020BA
:100AA00044454641554C545F4B69200023646566BC
:100AB000696E65202044454641554C545F4B70207B
:100AC00000504944204175746F74756E65206669E5
:100AD0006E697368656421205075742074686520A0
:100AE0006C617374204B702C204B6920616E642004
:100AF0004B6420636F6E7374616E74732066726FE3
:100B00006D2062656C6F7720696E746F20436F6E25
:100B100066696775726174696F6E2E680A00504964
:100B200044204175746F74756E65206661696C65EB
:100B300064212074696D656F75740A005049442002
:100B40004175746F74756E65206661696C656421AA
:100B50002054656D706572617475726520746F6F75
:100B600020686967680A00204B643A2000204B69BE
:100B70003A2000204B703A20000A20436C617373C6
:100B8000696320504944200A002054753A2000200F
:100B90004B753A2000206D61783A2000206D696E17
:100BA0003A200020643A200020626961733A2000F4
:100BB0004F66660A00466164652048656967687427
:100BC0002000426564204C6576656C696E67200084
:100BD0004661696C656420746F20656E61626C6546
:100BE00020426564204C6576656C696E670A004D2D
:100BF00065736820706F696E742063616E6E6F74C8
:100C0000206265207265736F6C7665640A004D34EE
:100C1000323120696E636F72726563742070617225
:100C2000616D657465722075736167650A00417551
:100C3000746F0020452F443D00416476616E63650A
:100C4000204B3D0047322F473320626164207061A2
:100C500072616D65746572730A005A2070726F62FA
:100C600065206F75742E206265640A004732382053
:100C70005A20466F7262696464656E0A00473239B1
:100C800000205A3A200020593A200042656420583A
:100C90003A20004D65736820706F696E742063613F
:100CA0006E6E6F74206265207265736F6C7665641A
:100CB0000A00456E642066696C65206C6973740A6D
:100CC00000426567696E2066696C65206C697374A3
:100CD0000A002E0A0044656C6574696F6E286269AB
:100CE0006E29206661696C65640046696C652862DE
:100CF000696E292064656C657465640053442070D6
:100D000072696E74696E67206279746520004E6F37
:100D100074205344207072696E74696E670A0025EE
:100D200069730025696D2025697300256968202590
:100D3000696D20256973002569642025696820256F
:100D4000696D20256973002569792025696420254E
:100D500069682025696D20256973005072696E7479
:100D60002074696D653A200050726F746563746514
:100D7000642050696E0A006F666600860281027AFE
:100D8000027302650244454255473A004D31313302
:100D90002053006F6B002F2F200053657474696E11
:100DA000672054726176656C20416363656C65727F
:100DB0006174696F6E3A200053657474696E6720C0
:100DC0005265747261637420416363656C6572611E
:100DD00074696F6E3A200053657474696E672050B1
:100DE00072696E7420416363656C65726174696FCA
:100DF0006E3A200053657474696E67205072696E94
:100E00007420616E642054726176656C2041636366
:100E1000656C65726174696F6E3A20000001363747
:100E200026FF033C3D38FF0E2E303E12FFFF0C081C
:100E300009FFFFFF1A1C18FFFF08440AFF43FFFFCA
:100E4000FFFFFFFF3A200020536572766F200020DD
:100E50006F7574206F662072616E67650A00536556
:100E600072766F200043290A0061626C6564202855
:100E70006D696E2074656D702000436F6C64206531
:100E800078747275646573206172652000546F6FA9
:100E9000206661722066726F6D207265666572658C
:100EA0006E636520706F696E740A00207A70726FCD
:100EB00062655F7A6F66667365743D20007A5F6D68
:100EC000696E3A20202D3230207A5F6D61783A20A9
:100ED000203230005A204F666673657420004E6FD2
:100EE0002063617365206C696768740A00416374EC
:100EF0006976652045787472756465723A2000558C
:100F00006E6B6E6F776E20636F6D6D616E643A20ED
:100F10002200526573656E643A20006F6B00207486
:100F20006F6F206C6F6E6720657874727573696F70
:100F30006E2070726576656E7465640A0020636F5A
:100F40006C6420657874727573696F6E2070726559
:100F500076656E7465640A00627573793A20706113
:100F60007573656420666F7220696E7075740A000F
:100F7000627573793A2070617573656420666F726B
:100F800020757365720A00627573793A2070726F0A
:100F900063657373696E670A004B494C4C2063614B
:100FA00075736564206279204B494C4C20627574DE
:100FB000746F6E2F70696E0A004B494C4C20636150
:100FC0007573656420627920746F6F206D75636836
:100FD00020696E6163746976652074696D65202D82
:100FE0002063757272656E7420636F6D6D616E64DF
:100FF0003A20000000B4430000B4430000000000A9
:1010000000484200004842000080400000000057B5
:1010100061726E696E673A20486F6D696E67204233
:10102000756D702044697669736F72203C20310AB7
:10103000000202040000A0400000A04000000040A8
:101040000000B4430000B4430000CD430101FF623F
:10105000696E004D31313720494E56414C4944208C
:10106000444154412E00473932205A2573204525EA
:10107000730062696E007C3C3E5E2B3D3F2F5B5DE2
:101080003B2C2A225C004572726F72207772697461
:10109000696E6720746F20454550524F4D210A00FC
:1010A000290A002062797465733B20637263200013
:1010B00053657474696E67732053746F726564202E
:1010C0002800202863616C63756C61746564292154
:1010D0000A0020213D2000454550524F4D204352EB
:1010E00043206D69736D61746368202D20287374CB
:1010F0006F726564292000290A0020627974657383
:101100003B2063726320002073746F7265642073E8
:10111000657474696E67732072657472696576654B
:1011200064202800204D61726C696E3D563431296F
:101130000A0028454550524F4D3D00454550524FFD
:101140004D2076657273696F6E206D69736D617481
:101150006368200048617264636F6465642044655D
:101160006661756C742053657474696E6773204C86
:101170006F616465640A00F4010000F4010000641A
:10118000000000E8030000000096430000964300C2
:1011900000A0400000C8410000A0420000A04200A2
:1011A0000048440000BA4220520020204D3930301F
:1011B000204B004C696E65617220416476616E63FC
:1011C000653A0A0020204D383531205A005A2D50FA
:1011D000726F6265204F666673657420286D6D2995
:1011E0003A0A0020440020490020204D33303120AD
:1011F00050005049442073657474696E67733A0AED
:1012000000205A0020204D343230205300417574A4
:101210006F20426564204C6576656C696E673A0A9A
:1012200000205A0020590020204D3230362058002E
:10123000486F6D65206F66667365743A0A002045D5
:1012400000205A002059002058002042002054005D
:1012500020204D323035205300416476616E636545
:10126000643A20533C6D696E5F66656564726174B3
:10127000653E20543C6D696E5F74726176656C5F8B
:1012800066656564726174653E20423C6D696E5F9F
:101290007365676D656E745F74696D655F6D733ED0
:1012A00020583C6D61785F78795F6A65726B3E208B
:1012B0005A3C6D61785F7A5F6A65726B3E20453C8F
:1012C0006D61785F655F6A65726B3E0A002054004D
:1012D00020520020204D323034205000416363659D
:1012E0006C65726174696F6E2028756E6974732FF6
:1012F0007332293A20503C7072696E745F61636387
:10130000656C3E20523C726574726163745F616308
:1013100063656C3E20543C74726176656C5F6163FA
:1013200063656C3E0A00204500205A0020590020C9
:10133000204D3230312058004D6178696D756D2037
:10134000416363656C65726174696F6E2028756EA8
:101350006974732F7332293A0A00204500205A001D
:1013600020590020204D3230332058004D617869DB
:101370006D756D206665656472617465732028758E
:101380006E6974732F73293A0A00204500205A00B1
:1013900020590020204D3932205800537465707355
:1013A0002070657220756E69743A0A0020204D32F3
:1013B00030302044300A0020204D323030204400AC
:1013C0002044697361626C65640A0046696C616DF2
:1013D000656E742073657474696E67733A002020BB
:1013E0004D3134392043203B20556E697473206998
:1013F0006E2043656C736975730A00202047323193
:10140000202020203B20556E69747320696E206D6A
:101410006D0A007A5F6D696E3A2000795F6D6178C0
:101420003A2000785F6D61783A20005265706F72E3
:1014300074696E6720656E6473746F702073746175
:101440007475730A0020746F6F206C6F6E6720656F
:101450007874727573696F6E2070726576656E74DC
:1014600065640A0020636F6C64206578747275731C
:10147000696F6E2070726576656E7465640A00240B
:10148000F4D43050C38E20C2A24017828B70111248
:101490007A910D816CD90AA861E108C75866076185
:1014A0005143061E4B5D05C145A7041A41110409AD
:1014B0003D9803713931034036DB0265339102D424
:1014C000305402802E1D02632CEE01752AC501B036
:1014D00028A001102781018F2564012B244B01E0F6
:1014E000223401AC211F018D200D01801FFC0084DE
:1014F0001EED00971DDF00B81CD200E61BC60020C1
:101500001BBC00641AB200B219A8000A19A0006A34
:10151000189900D117910040178B00B5168400313F
:10152000167E00B31579003A157300C7146F005882
:10153000146A00EE1366008813630025135E00C76B
:10154000125B006C12570015125400C1115100704B
:10155000114F0021114B00D61049008D1047004655
:1015600010440002104200C00F4000800F3E0042B5
:101570000F3C00060F3B00CB0E3800930E37005C8B
:101580000E3500270E3400F30D3200C10D310090EE
:101590000D3000600D2E00320D2D00050D2C00D9F0
:1015A0000C2B00AE0C2900850C29005C0C270035A3
:1015B0000C27000E0C2600E80B2400C40B2400A00E
:1015C0000B23007D0B23005A0B2100390B2100183F
:1015D0000B2000F80A1F00D90A1E00BB0A1E009D3E
:1015E0000A1D00800A1D00630A1C00470A1B002C0C
:1015F0000A1B00110A1A00F7091A00DD091900C4B4
:10160000091900AB091900920917007B091800633A
:101610000917004C09160036091600200916000AA1
:10162000091500F5081500E0081400CC081400B8EE
:10163000081400A4081400900813007D0812006B21
:10164000081300580812004608120034081100233D
:101650000811001208110001081100F0071000E045
:10166000071000D0071000C0071000B0070F00A13E
:1016700007100091070E0083070F0074070F006525
:10168000070E0057070E0049070E003B070D002EFE
:10169000070E0020070D0013070D0006070D00F9C7
:1016A000060C00ED060D00E0060C00D4060C00C888
:1016B000060C00BC060C00B0060C00A4060B00993A
:1016C000060C008D060B0082060B0077060B006CE3
:1016D000060B0061060A0057060B004C060A004282
:1016E000060A0038060A002E060A0024060A001A16
:1016F000060A001006090007060A00FD050900F4A5
:10170000050900EB050900E2050900D9050900D02B
:10171000050900C7050900BE050900B5050800ADAB
:10172000050800A50509009C050800940508008C23
:10173000050800840508007C050800740508006C95
:10174000050700650508005D050700560508004E01
:101750000507004705070040050800380507003168
:101760000507002A050700230507001C05060016CB
:101770000507000F0507000805060002050700FB26
:10178000040600F5040700EE040600E8040600E283
:10179000040700DB040600D5040600CF040600C9D8
:1017A000040600C3040600BD040600B7040600B129
:1017B000040500AC040600A6040600A00405009B76
:1017C00004060095040500900406008A04050085BF
:1017D000040500800406007A040500750405007005
:1017E0000405006B04050066040500610405005C47
:1017F00004050057040500520405004D0405004887
:10180000040500430405003E0404003A04050035C5
:10181000040500300404002C040500270404002300
:101820000405001E0404001A040400160405001137
:101830000404000D0404000904050004040400006D
:10184000040400FC030400F8030400F4030400F0A3
:10185000030400EC030400E8030400E4030400E0D4
:10186000030400DC030400D8030400D4030400D004
:10187000030400CC030400C8030300C503030024D1
:10188000F404D9201BC40C5C0E9804C4095F0265E3
:10189000077101F405F900FB04B30048048700C197
:1018A0000369005803550003034500BE023A008453
:1018B00002310053022A002902250004022000E41C
:1018C000011C00C8011900AF011700980114008421
:1018D000011300710110006101100051010E00435D
:1018E000010D0036010B002B010B0020010B001530
:1018F0000109000C01090003010800FB000800F3C6
:10190000000800EB000700E4000600DE000600D837
:10191000000600D2000600CC000500C7000500C28A
:10192000000500BD000400B9000400B5000400B1CA
:10193000000400AD000400A9000400A5000300A2FB
:101940000003009F0004009B000300980003009523
:1019500000020093000300900003008D0002008B42
:10196000000300880002008600020084000300815A
:101970000002007F0002007D0002007B000200796F
:10198000000200770001007600020074000200727D
:10199000000100710002006F0002006D0001006C88
:1019A0000002006A00010069000200670001006691
:1019B0000001006500010064000200620001006196
:1019C000000100600001005F0002005D0001005C9A
:1019D0000001005B0001005A00010059000100589D
:1019E000000100570001005600010055000100549D
:1019F000000100530000005300010052000100519B
:101A0000000100500001004F0001004E0000004E98
:101A10000001004D0001004C0001004B0000004B94
:101A20000001004A00010049000100480000004890
:101A3000000100470001004600000046000100458B
:101A40000000004500010044000100430000004385
:101A5000000100420000004200010041000000417E
:101A6000000100400001003F0000003F0001003E77
:101A70000000003E0001003D0000003D0001003C70
:101A80000000003C0000003C0001003B0000003B67
:101A90000001003A0000003A00010039000000395E
:101AA0000001003800000038000000380001003755
:101AB000000000370001003600000036000000364C
:101AC0000001003500000035000000350001003441
:101AD0000000003400000034000100330000003337
:101AE000000000330001003200000032000000322C
:101AF0000001003100000031000000310001003021
:101B000000000030000000300001002F0000002F16
:101B10000000002F0000002F0001002E0000002E0A
:101B20000000002E0001002D0000002D0000002DFF
:101B30000000002D0001002C0000002C0000002CF3
:101B40000000002C0001002B0000002B0000002BE7
:101B50000000002B0001002A0000002A0000002ADB
:101B60000000002A000100290000002900000029CF
:101B700000000029000000290001002800000028C2
:101B800000000028000000280000002800010027B5
:101B900000000027000000270000002700000027A9
:101BA000000100260000002600000026000000269C
:101BB000000000260001002500000025000000258F
:101BC0000000002500000025000000250001002481
:101BD0000000002400000024000000240000002475
:101BE0000001002300000023000000230000002368
:101BF0000000002300000023000000230001002259
:101C0000000000220000002200000022000000224C
:101C1000000000220001002100000021000000213E
:101C20000000002100000021000000210000002130
:101C30000001002000000020000000200000002023
:101C40000000002000000020000000200000002014
:101C50000001001F0000001F0000001F0000001F07
:101C60000000001F0000001F0000001F0001001EF8
:101C70000000001E0000001E0000001E0000004DBD
:101C8000383420582059205A2045006265640A00E3
:101C90002C2073797374656D2073746F7070656434
:101CA00021204865617465725F49443A20004865A7
:101CB0006174696E67206661696C6564004865617E
:101CC00074696E67206661696C656400486561745B
:101CD000696E67206661696C656400486561746956
:101CE0006E67206661696C65640070012C0190016B
:101CF0002701B0012201C0011D01F00118011002ED
:101D0000130130020E016002090190020401C002B9
:101D1000FF000003FA004003F5008003F000D00349
:101D2000EB002004E6007004E100E004DC00400564
:101D3000D700C005D2004006CD00D006C8008007FD
:101D4000C3003008BE00F008B900C009B400B00AF2
:101D5000AF00B00BAA00D00CA500000EA000500FE1
:101D60009B00C01096005012910000148C00C0150A
:101D70008700B0178200B0197D00D01B7800001ECC
:101D8000730040206E0090226900F0246400402718
:101D90005F0090295A00E02B5500102E5000203093
:101DA0004B0010324600E033410090353C001037C4
:101DB000370070383200A0392D00B03A2800A03B1F
:101DC0002300603C1E00103D1900903D1400103EA1
:101DD0000F00703E0A00C03E0500003F0000403F7B
:101DE000FBFF803FF6FFC03FF1FF544845524D4195
:101DF0004C2052554E4157415900546865726D61EF
:101E00006C2052756E61776179004572723A204D8F
:101E1000494E54454D5020424544004572723A2087
:101E20004D494E54454D50004D494E54454D50205E
:101E3000747269676765726564004572723A204D15
:101E4000415854454D5020424544004572723A2055
:101E50004D415854454D50004D415854454D50202A
:101E60007472696767657265640000002100240070
:101E700027002A002D00300033000101000004017A
:101E800007010A0100002200250028002B002E0077
:101E90003100340002010000050108010B010000BF
:101EA00020002300260029002C002F003200000112
:101EB00000000301060109010505050507050808DD
:101EC0000808020202020A0A0808040404040101C4
:101ED00001010101010103030303030303030407D9
:101EE00007070C0C0C0C0C0C0C0C02020202060670
:101EF0000606060606060B0B0B0B0B0B0B0B010263
:101F0000102020080810204010204080020102010B
:101F100008040201010204081020408080402010C3
:101F2000080402018004020180402010080402011C
:101F30000804020101020408102040800102040884
:101F40001020408000000A0B02090C0D0E08070348
:101F5000040100000000000000000000000000007C
:101F60000000000000000000000000000000000071
:101F7000121110000000000000000000000000002E
:101F8000000000000000000000004D3432302053FB
:101F900031004D343230205330002020506C616EBF
:101FA0006E657242756666657242797465733A2031
:101FB000002046726565204D656D6F72793A20008C
:101FC000436F6D70696C65643A204D6179203132E0
:101FD00020323032300A00207C20417574686F72E4
:101FE0003A20456E6465722D3520506C75730A0079
:101FF000323032302D30342D303100204C6173744A
:1020000020557064617465643A2000566572203111
:102010002E37312E30204B4620484D47330A004D95
:1020200061726C696E0020536F667477617265200F
:1020300052657365740A00205761746368646F6742
:102040002052657365740A002042726F776E206FAC
:1020500075742052657365740A0020457874657242
:102060006E616C2052657365740A00506F776572FB
:1020700055700A0073746172740A006572726F722F
:102080002077726974696E6720746F2066696C6569
:102090000A00205A3A0020593A0020583A00656E4A
:1020A0006473746F7073206869743A2000446F6EB3
:1020B0006520736176696E672066696C652E0A001B
:1020C0004D32390050726F62696E67206661696CCB
:1020D00065640A00205A3A200020593A20004265DF
:1020E0006420583A20005072696E746572207374CF
:1020F0006F707065642064756520746F20657272FE
:102100006F72732E2046697820746865206572723C
:102110006F7220616E6420757365204D39393920E6
:10212000746F20726573746172742E202854656D0B
:10213000706572617475726520697320726573656C
:10214000742E205365742069742061667465722052
:1021500072657374617274696E67290A0053544F13
:10216000502063616C6C65642062656361757365A2
:10217000206F6620424C546F756368206572726FE1
:1021800072202D207265737461727420776974688F
:10219000204D3939390A002066697273740A005A71
:1021A0000059005800486F6D6520005772697469C6
:1021B0006E6720746F2066696C653A20006F7065E9
:1021C0006E206661696C65642C2046696C653A20F6
:1021D000006F70656E206661696C65642C204669CD
:1021E0006C653A200046696C652073656C656374A4
:1021F00065640A002053697A653A200046696C6577
:10220000206F70656E65643A20006F70656E2066A1
:1022100061696C65642C2046696C653A2000206613
:10222000696C653A20004E6F7720002220706F7332
:10223000002220706172656E743A2200535542523A
:102240004F5554494E452043414C4C2074617267B0
:1022500065743A2200747279696E6720746F206326
:10226000616C6C207375622D67636F6465206669AD
:102270006C6573207769746820746F6F206D616E70
:1022800079206C6576656C732E204D4158206C6505
:1022900076656C2069733A0043616E6E6F74206FCF
:1022A00070656E2073756264697220002E0A006F7B
:1022B00070656E206661696C65642C2046696C658A
:1022C0003A200057726974696E6720746F206669DE
:1022D0006C653A200053442063617264206F6B0A7E
:1022E000006F70656E526F6F74206661696C656413
:1022F0000A00766F6C756D652E696E697420666173
:10230000696C65640A00534420696E6974206661D3
:10231000696C0A004D3234004D3233202573006160
:1023200075746F25692E6700656E717565756569D1
:102330006E672022006563686F3A005072696E74A0
:1023400065722068616C7465642E206B696C6C2802
:10235000292063616C6C6564210A004572726F729A
:102360003A0068E7C0E511241FBECFEFD1E2DEBF1F
:10237000CDBF00E00CBF15E0A0E0B2E0E8E2F1E084
:1023800002E00BBF02C007900D92AA36B107D9F741
:102390002CE1AAE6B5E001C01D92AF39B207E1F722
:1023A00011E1C2EBD1E100E006C021970109802FC5
:1023B000FE010E94D1FFC13BD10780E00807A9F7C9
:1023C0000E94AEE80D9483000C940000CF92DF923F
:1023D000EF92FF92CF93DF93EC01C0903307D09040
:1023E0003407E0903507F0903607A7019601688121
:1023F00079818A819B810E9449F687FF04C0C88247
:10240000D982EA82FB82C0903707D0903807E090EB
:102410003907F0903A07A70196016C817D818E8182
:102420009F810E9449F687FF04C0CC82DD82EE8244
:10243000FF82C0903B07D0903C07E0903D07F090B2
:102440003E07A7019601688579858A859B850E944C
:1024500049F687FF04C0C886D986EA86FB86C09005
:102460001602D0901702E0901802F0901902A7010E
:102470009601688179818A819B810E94F7FE1816F6
:1024800024F4C882D982EA82FB82C0901A02D090DA
:102490001B02E0901C02F0901D02A70196016C81C6
:1024A0007D818E819F810E94F7FE181624F4CC82D4
:1024B000DD82EE82FF82C0901E02D0901F02E0906B
:1024C0002002F0902102A7019601688579858A850E
:1024D0009B850E94F7FE181624F4C886D986EA86E2
:1024E000FB86DF91CF91FF90EF90DF90CF90089522
:1024F000CF92DF92EF92FF92C0908B07D0908C0723
:10250000E0908D07F0908E0780918F07882381F1EE
:1025100020E030E0A901C701B6010E9449F68823F6
:1025200039F120E030E040E05FE3C701B6010E94EE
:10253000AEF69B01AC010E94AEF62BED3FE049E404
:1025400050E40E94AEF69B01AC0160E070E080E8D0
:102550009FE30E94ADFD6093D9077093DA078093E3
:10256000DB079093DC07FF90EF90DF90CF9008950A
:1025700060E070E080E89FE3EECFCF92DF92EF92D1
:10258000FF926091860770918707072E000C880BD9
:10259000990B0E944FF66B017C012DEB37E346E867
:1025A00055EB0E94F7FE87FD0BC02DEB37E346E8A5
:1025B00055E3C701B6010E9449F618160CF043C056
:1025C000A701960160E070E080E89FE30E94ADFD06
:1025D000609314077093150780931607909317075D
:1025E0006091880770918907072E000C880B990B62
:1025F0000E944FF66B017C012DEB37E346E855EB6B
:102600000E94F7FE87FD0AC02DEB37E346E855E34D
:10261000C701B6010E9449F61816CCF4A70196012D
:1026200060E070E080E89FE30E94ADFD60931807D2
:102630007093190780931A0790931B07FF90EF90F0
:10264000DF90CF90089560E070E0CB01C1CF60E0F3
:1026500070E0CB01EBCF80E1EAE8FDE0ABE4B7E06E
:1026600001900D928A95E1F7089580E1EBE4F7E09F
:10267000AAE8BDE001900D928A95E1F70895CF9206
:10268000DF92EF92FF920F931F93CF93DF93EC01B2
:10269000CC0FDD1FCC0FDD1FFE01E958F24F20E00B
:1026A00030E0A90160817181828193810E94D1FC17
:1026B000FE01E15CF84F20813181428153810E940B
:1026C000D1FC6B017C01FE01E656F24FC082D18243
:1026D000E282F382FE01E358FA4F2591359145914C
:1026E00054918E010D5C184F0E94D1FCF80160835B
:1026F000718382839383FE01E757FA4F25913591C9
:1027000045915491CA5EDD4FC701B6010E94D1FCCC
:10271000688379838A839B83DF91CF911F910F9187
:10272000FF90EF90DF90CF9008958F929F92AF929D
:10273000BF92EF92FF920F931F93CF93DF938C0181
:102740004A015B01EC01CC0FDD1FCC0FDD1FCE0178
:102750008657924F7C01C958D24F288139814A81CE
:102760005B81CB01B4010E94D0FCF7012081318153
:10277000428153810E94D1FCF7016083718382837F
:10278000938388829982AA82BB82C801DF91CF910C
:102790001F910F91FF90EF90BF90AF909F908F90FF
:1027A0006ECF089590E080E008958FB7F8949091EF
:1027B000E3062091E206291769F0E92FF0E0EE59CF
:1027C000F94F208130E09F5F9F779093E3068FBFA2
:1027D000C90108952FEF3FEFFACF0F931F93CF93C7
:1027E000DF93EC010E94F5A40E811F8128853985B5
:1027F000011511052105310579F52C85222339F1C3
:10280000EA8521502C8721E02E0F2A873D8523134E
:1028100001C01A86F0E03196EE0FFF1FEE0FFF1F8A
:10282000EC0FFD1F02851385248535850A831B83E4
:102830002C833D83600F711F811D911D6E837F83EB
:10284000888799878C819D81892B09F0409ADF9137
:10285000CF911F910F910895601B710B820B930B09
:1028600097FDF5CF40981E821F8218861986EFCFFC
:1028700080917F0790918007019759F40E94B6A636
:102880007093800760937F0710927D0710927E07F8
:1028900008951092800710927F07F6CFCF93DF93B1
:1028A000EC0190E080E00E9495B16093080770937E
:1028B000090780930A0790930B0781E090E00E943C
:1028C00095B160930C0770930D0780930E0790935A
:1028D0000F0782E090E00E9495B16093100770931B
:1028E0001107809312079093130788E097E00E94E6
:1028F00043CDC436D10561F48CE0E8E0F7E0AAE806
:10290000BDE001900D928A95E1F7DF91CF91089596
:10291000CC0FDD1FCC0FDD1FFE01E657F24FC85F65
:10292000D84F88819981AA81BB8180839183A283BA
:10293000B383EBCFCF92DF92EF92FF92CF936B01F5
:102940007C01C0919807C0929407D0929507E092BD
:102950009607F09297072DEB37E346E855EB0E9478
:10296000F7FE87FD0AC02DEB37E346E855E3C701C4
:10297000B6010E9449F61816D4F4A701960160E04A
:1029800070E080E89FE30E94ADFD60939007709334
:1029900091078093920790939307CC2361F082E094
:1029A00090E0CF91FF90EF90DF90CF9077CF60E0F5
:1029B00070E0CB01EACFCF91FF90EF90DF90CF9006
:1029C00008958F929F92AF92BF92CF92EF92FF9213
:1029D0000F931F93CF93DF93CDB7DEB72C970FB62E
:1029E000F894DEBF0FBECDBF4B015C01C09059060D
:1029F0008091530790915407A0915507B0915607C5
:102A000040914F07509150076091510770915207C4
:102A100000914B0710914C0720914D0730914E07C4
:102A200009831A832B833C834D835E836F8378876E
:102A300089879A87AB87BC878091750D81110AC001
:102A4000AE01475F5F4FBE016B5F7F4FCE010196C6
:102A50000E94C2CD8501740127E537E0AE01475FD2
:102A60005F4FBE016B5F7F4FCE0101960E94F8BEA3
:102A70002C960FB6F894DEBF0FBECDBFDF91CF917D
:102A80001F910F91FF90EF90CF90BF90AF909F90CC
:102A90008F9008952F923F924F925F926F927F9204
:102AA0008F929F92AF92BF92CF92DF92EF92FF925E
:102AB0000F931F93CF93DF93CDB7DEB7EC970FB68D
:102AC000F894DEBF0FBECDBF69AF7AAF8BAF9CAFBE
:102AD0005A8F498F3C8F2B8F80908A0D90908B0D51
:102AE000A0908C0DB0908D0D80919A0D90919B0DC2
:102AF000A0919C0DB0919D0D8D8F9E8FAF8FB8A32F
:102B0000A0918207B0918307BEA3ADA3BD01BB0F07
:102B1000880B990B0E944FF66FA378A789A79AA7F5
:102B20008091140790911507A0911607B09117078F
:102B30008BA79CA7ADA7BEA740908E0D50908F0D80
:102B40006090900D7090910D80919E0D90919F0DD1
:102B5000A091A00DB091A10D89A39AA3ABA3BCA392
:102B6000A0918407B0918507B8ABAFA7BD01BB0F9B
:102B7000880B990B0E944FF669AB7AAB8BAB9CAB81
:102B80008091180790911907A0911A07B0911B071F
:102B90008DAB9EABAFABB8AF80914B0790914C071C
:102BA000A0914D07B0914E07898B9A8BAB8BBC8B54
:102BB00080914F0790915007A0915107B091520713
:102BC0008D8B9E8BAF8BB88F2D8D3E8D4F8D58A1E9
:102BD000C501B4010E94D0FC2FA138A549A55AA572
:102BE0000E94D0FC2BA53CA54DA55EA50E94AEF68B
:102BF0000E9415FE7B0193E0E916F1041CF092E0BF
:102C0000E92EF12CF7FE02C0F12CE12C29A13AA10A
:102C10004BA15CA1C301B2010E94D0FC29A93AA931
:102C20004BA95CA90E94D0FC2DA93EA94FA958AD83
:102C30000E94AEF60E9415FE1B01633071051CF068
:102C400082E0282E312C37FE02C0312C212C2D8D14
:102C50003E8D4F8D58A169897A898B899C890E9404
:102C6000D0FC2FA138A549A55AA50E94D0FC2BA5C0
:102C70003CA54DA55EA50E94AEF60E9415FE8B01F7
:102C80006330710514F002E010E017FF02C010E09D
:102C900000E029A13AA14BA15CA16D897E898F89B1
:102CA000988D0E94D0FC29A93AA94BA95CA90E9441
:102CB000D0FC2DA93EA94FA958AD0E94AEF60E94A6
:102CC00015FE6330710514F062E070E077FF02C01A
:102CD00070E060E0E016F10611F56215730509F089
:102CE000A4C069AD7AAD8BAD9CAD6BDEEC960FB632
:102CF000F894DEBF0FBECDBFDF91CF911F910F9132
:102D0000FF90EF90DF90CF90BF90AF909F908F900B
:102D10007F906F905F904F903F902F90A6CC0E15B4
:102D20001F050CF082C03E2D621573050CF466C1C0
:102D3000262FE016F10609F082C06215730589F2AC
:102D4000822F022E000C990B01E010E002C0000F50
:102D5000111F2A95E2F72B8D3C8D20233123232B45
:102D600009F4BFCF20E1EBE4F7E0DE01119601901A
:102D70000D922A95E1F72091880730918907829F6B
:102D8000B001839F700D929F700D1124AFA5B8A95B
:102D90006A0F7B1F072E000C880B990B0E944FF6C1
:102DA00029A13AA14BA15CA10E94D1FC60934F07DD
:102DB000709350078093510790935207A30192019B
:102DC0000E94D0FC6B017C01A30192016D897E8978
:102DD0008F89988D0E94D0FC9B01AC01C701B60180
:102DE0000E94ADFD6B017C01A501940169897A897E
:102DF0008B899C890E94D0FCA70196010E94AEF6A7
:102E0000A50194010E94D1FC60934B0770934C077D
:102E100080934D0790934E07009510952B8D3C8D18
:102E2000202331233C8F2B8F7EC0302F62157305FA
:102E30000CF07ECF222DE016F10609F481CF832F0E
:102E4000032E000C990B01E010E002C0000F111FCF
:102E50003A95E2F7498D5A8D40235123452B09F4C9
:102E60006CCF20E1EBE4F7E0DE01119601900D92CA
:102E70002A95E1F72091860730918707829FB0015C
:102E8000839F700D929F700D11242DA13EA1620FA2
:102E9000731F072E000C880B990B0E944FF62D8D87
:102EA0003E8D4F8D58A10E94D1FC60934B077093CB
:102EB0004C0780934D0790934E07A50194010E9403
:102EC000D0FC6B017C01A501940169897A898B8909
:102ED0009C890E94D0FC9B01AC01C701B6010E94F5
:102EE000ADFD6B017C01A30192016D897E898F8903
:102EF000988D0E94D0FCA70196010E94AEF6A30116
:102F000092010E94D1FC60934F0770935007809309
:102F100051079093520700951095898D9A8D8023C3
:102F200091239A8F898F8090920D9090930DA0900D
:102F3000940DB090950DA501940160915307709187
:102F4000540780915507909156070E94D0FCA70125
:102F500096010E94AEF6A50194010E94D1FC6093F7
:102F600053077093540780935507909356078090AA
:102F7000960D9090970DA090980DB090990DA50189
:102F8000940160915707709158078091590790916B
:102F90005A070E94D0FCA70196010E94AEF6A50137
:102FA00094010E94D1FC6093570770935807809357
:102FB000590790935A072B8D3C8D498D5A8D69ADD9
:102FC0007AAD8BAD9CAD66DD89899A89AB89BC8968
:102FD00089839A83AB83BC838D899E89AF89B88DA1
:102FE0008D839E83AF83B88780E1FE013196ABE489
:102FF000B7E001900D928A95E1F76ECD222D1FCF9B
:10300000CF92EF92FF920F931F93CF93DF93CDB7A1
:10301000DEB72C970FB6F894DEBF0FBECDBFC090C1
:1030200059068091920D9091930DA091940DB091BD
:10303000950D40918E0D50918F0D6091900D709176
:10304000910D00918A0D10918B0D20918C0D309176
:103050008D0D09831A832B833C834D835E836F839D
:10306000788789879A87AB87BC878091750D811196
:103070000AC0AE01475F5F4FBE016B5F7F4FCE015D
:1030800001960E94C2CDE0905902F0905A02009140
:103090005B0210915C0226E93DE0AE01475F5F4FA5
:1030A000BE016B5F7F4FCE0101960E94F8BE2C9649
:1030B0000FB6F894DEBF0FBECDBFDF91CF911F9149
:1030C0000F91FF90EF90CF9008958F929F92AF92C3
:1030D000BF92CF92EF92FF920F931F93CF93DF9304
:1030E000CDB7DEB72C970FB6F894DEBF0FBECDBFBD
:1030F000FC012091D3178091D21790E001968F7038
:1031000099272817190609F450C0C0905906EE0FE8
:10311000FF1FEE0FFF1FEB58FD4F20E030E040E7B0
:1031200052E460817181828193810E94ADFD4B01E7
:103130005C0180918A0D90918B0DA0918C0DB091C6
:103140008D0D89839A83AB83BC8380918E0D909182
:103150008F0DA091900DB091910D8D839E83AF83C3
:10316000B8878091920D9091930DA091940DB0919C
:10317000950D89879A87AB87BC87AE01475F5F4F04
:10318000BE016B5F7F4FCE0101960E94C2CD8501CB
:10319000740126E93DE0AE01475F5F4FBE016B5F02
:1031A0007F4FCE0101960E94F8BE2C960FB6F89480
:1031B000DEBF0FBECDBFDF91CF911F910F91FF906A
:1031C000EF90CF90BF90AF909F908F900895809197
:1031D000520690915306009731F04AE050E070E0BB
:1031E00060E00C94A6F360E070E0CB010895EFDF9F
:1031F00097FD0AC0ECDF6F3F71058105910509F06D
:103200002CF4E5DF862F089580E008958FEF089570
:103210008091520690915306892B39F0E8DF91E0B6
:10322000811101C090E0892F089591E0FCCF4F9269
:103230005F926F927F928F929F92AF92BF92CF9246
:10324000DF92EF92FF920F931F93CF93DF93CDB74F
:10325000DEB768970FB6F894DEBF0FBECDBF0E94F1
:10326000F5A46B017C0180916B0590916C05A09198
:103270006D05B0916E058C159D05AE05BF0508F076
:1032800048C180916202882309F443C1809171058D
:1032900090917205892B09F0A1C28091F90D90914E
:1032A000FA0D2091FE0D222309F489C11816190682
:1032B0000CF085C18091B3059091B405892B09F07C
:1032C0007CC084E096E09093781B8093771B80EA23
:1032D00090E890937A1B8093791B87E080936B1B17
:1032E00012E810936E1B80EA90E0A0E0B0E08093BB
:1032F0006F1B9093701BA093711BB093721B0E9465
:10330000C69C8091500290915102A0915202B091BE
:1033100053020097A105B10509F012C11092781B64
:103320001092771B05E000936B1B10936E1B8AE8CD
:1033300090E1A0E0B0E080936F1B9093701BA0938E
:10334000711BB093721B0E94C69C89E090E0909321
:10335000781B8093771B00936B1B10936E1B8CE87C
:1033600090E1A0E0B0E080936F1B9093701BA0935E
:10337000711BB093721B0E94C69C609150027091A9
:103380005102809152029091530228E830E140E0CE
:1033900050E00E94689D60915002709151028091AE
:1033A000520290915302982F872F762F662721EA99
:1033B00030E040E050E00E94689D8091B30590911C
:1033C000B405853691050CF0DBC09093781B809393
:1033D000771B85E080936B1B82E880936E1B80E0F7
:1033E00090E1A0E0B0E080936F1B9093701BA093DE
:1033F000711BB093721B0E94C69C6EE170E080E06E
:1034000090E00E9465A48091B3059091B405019667
:103410009093B4058093B305893C91050CF479C071
:1034200081E090E09093720580937105C090000E4A
:10343000D090010E10E000E0F12CE12CCE14DF045E
:1034400009F467C063ED72E1C8018654904F0F9490
:10345000260098012E5E3F4F892B09F0ABC081E01A
:1034600080936202C8018E5A914F7C01FC01019049
:103470000020E9F78E1B9F0B439697FD01968C0168
:103480001595079540E050E260E070E0C701101626
:103490001106C4F4FE0131966F0184E111928A9500
:1034A000E9F7A80161E573E0C6010F944400B70194
:1034B000C601800F911F0F942F0040E050E260E0A2
:1034C00070E0C6010E948C9E80912211882309F42D
:1034D00068C081E09AE59093781B8093771B84E223
:1034E00090E090937A1B8093791B87E080936B1B0D
:1034F00082E880936E1B84E890E0A0E0B0E08093C7
:103500006F1B9093701BA093711BB093721B0E9452
:10351000C69C68960FB6F894DEBF0FBECDBFDF9194
:10352000CF911F910F91FF90EF90DF90CF90BF90C0
:10353000AF909F908F907F906F905F904F90089585
:103540000196A11DB11DBC01CD01B5E096958795F1
:1035500077956795BA95D1F76150710981099109FD
:103560002AE830E140E050E00E94689D88E090E069
:103570009093781B8093771B85E080936B1BEDCE37
:10358000845691099093781B8093771B85E08093F4
:103590006B1B82E880936E1B81E090E1A0E0B0E0BD
:1035A00022CF81E09AE59093781B8093771B8CE47F
:1035B00090E097CFFFEFEF1AFF0A89013FCF892BE9
:1035C00009F00CC18091B3059091B405892B09F0E5
:1035D0007CC084E096E09093781B8093771B80EA10
:1035E00090E890937A1B8093791B87E080936B1B04
:1035F00012E810936E1B80EA90E0A0E0B0E08093A8
:103600006F1B9093701BA093711BB093721B0E9451
:10361000C69C8091500290915102A0915202B091AB
:1036200053020097A105B10509F09EC01092781BC6
:103630001092771B05E000936B1B10936E1B8AE8BA
:1036400090E1A0E0B0E080936F1B9093701BA0937B
:10365000711BB093721B0E94C69C89E090E090930E
:10366000781B8093771B00936B1B10936E1B8CE869
:1036700090E1A0E0B0E080936F1B9093701BA0934B
:10368000711BB093721B0E94C69C60915002709196
:103690005102809152029091530228E830E140E0BB
:1036A00050E00E94689D609150027091510280919B
:1036B000520290915302982F872F762F662721EA86
:1036C00030E040E050E00E94689D8091B305909109
:1036D000B405853691050CF067C09093781B8093F4
:1036E000771B85E080936B1B82E880936E1B80E0E4
:1036F00090E1A0E0B0E080936F1B9093701BA093CB
:10370000711BB093721B0E94C69C6EE170E080E05A
:1037100090E00E9465A48091B3059091B405019654
:103720009093B4058093B305893C91050CF4F1CED8
:1037300081E090E0909372058093710521E02093E1
:1037400062021092F20D20EA3FE03093500D209378
:103750004F0D209122112223C1F121E03AE530934F
:10376000781B2093771BBDCE0196A11DB11DBC0116
:10377000CD01E5E09695879577956795EA95D1F720
:1037800061507109810991092AE830E140E050E077
:103790000E94689D88E090E09093781B8093771B4F
:1037A00085E080936B1B61CF845691099093781BC1
:1037B0008093771B85E080936B1B82E880936E1B60
:1037C00081E090E1A0E0B0E096CF81E09AE59093AF
:1037D000781B8093771B8DE290E083CE8091F20D71
:1037E000882309F4DAC180915B0790915C07A0916E
:1037F0005D07B0915E07892B8A2B8B2B09F4CDC115
:103800000E94B6A64B015C0120E13EE040E050E0A2
:103810000E9473FC2D8B3E8B4F8B588F2B013C01EC
:1038200020E130E140E050E06D897E898F89988DFC
:103830000E94689DC301B2012CE330E040E050E0FB
:103840000E9473FCCA01B90122E130E140E050E07E
:103850000E94689D80917118882309F425C11091F8
:103860003F1A112309F479C08091081B9091091B1C
:10387000A0910A1BB0910B1B0097A105B10509F49B
:103880006CC0BC01CD016D597F4F8F4F9F4F24E617
:1038900030E040E050E00E9473FC60910C1B70919E
:1038A0000D1B80910E1B90910F1B0E9473FC809149
:1038B0000002909101022817190609F4F5C011239E
:1038C00009F485C38091081B9091091BA0910A1BE4
:1038D000B0910B1B0097A105B10509F478C3BC0199
:1038E000CD016D597F4F8F4F9F4F24E630E040E070
:1038F00050E00E9473FC60910C1B70910D1B809135
:103900000E1B90910F1B0E9473FC222309F45FC3CE
:103910002F5F20936A05233310F530E0220F331F09
:103920003093781B2093771B05E000936B1B12E804
:1039300010936E1B8EE090E1A0E0B0E080936F1BCF
:103940009093701BA093711BB093721B0E94C69C36
:103950001092781B1092771B27C020E0A8CF84E636
:1039600090E09093781B8093771B05E000936B1B8E
:1039700012E810936E1B8EE090E1A0E0B0E080931F
:103980006F1B9093701BA093711BB093721B0E94CE
:10399000C69C80916A0590E082539048880F991FD9
:1039A0009093781B8093771B00936B1B10936E1B77
:1039B0008FE090E1A0E0B0E080936F1B9093701BCC
:1039C000A093711BB093721B0E94C69C80913F1AFA
:1039D000882309F401C38091081B9091091BA091D1
:1039E0000A1BB0910B1B0097A105B10509F4F4C2A5
:1039F000BC01CD016D597F4F8F4F9F4F24E630E0C2
:103A000040E050E00E9473FC60910C1B70910D1B14
:103A100080910E1B90910F1B0E9473FC30E030933D
:103A2000781B2093771B85E080936B1B82E8809343
:103A30006E1B86E190E1A0E0B0E080936F1B909355
:103A4000701BA093711BB093721B0E94C69C809147
:103A50003F1A882309F4C2C28091081B9091091B68
:103A6000A0910A1BB0910B1B0097A105B10509F4A9
:103A7000B5C2BC01CD016D597F4F8F4F9F4F24E6DA
:103A800030E040E050E00E9473FC60910C1B7091AC
:103A90000D1B80910E1B90910F1B0E9473FC30E058
:103AA00030930102209300022091710D3091720D2C
:103AB0004091730D5091740D6091ED0D7091EE0D6C
:103AC0008091EF0D9091F00D0E9449F6882391F0BE
:103AD0000E9426D98091ED0D9091EE0DA091EF0DF1
:103AE000B091F00D8093710D9093720DA093730DB2
:103AF000B093740D80910602882309F44EC0809122
:103B00007118882309F449C020E030E040E050E417
:103B10006091920D7091930D8091940D9091950DFF
:103B20000E94F7FE1816CCF580917F0790918007D0
:103B3000845D9E4F092E000CAA0BBB0B88159905BE
:103B4000AA05BB0550F580914F02882321F1809191
:103B5000870D9091880D9093B6058093B5051092CE
:103B6000880D1092870D1092781B1092771B85E0BC
:103B700080936B1B82E880936E1B8AE390E1A0E048
:103B8000B0E080936F1B9093701BA093711BB09358
:103B9000721B0E94C69C10920602609101177091E0
:103BA000021780910317909104170E9415FE7093DD
:103BB000781B6093771B05E000936B1B12E8109352
:103BC0006E1B86E390E1A0E0B0E080936F1B9093C2
:103BD000701BA093711BB093721B0E94C69C6091D6
:103BE000630D7091640D8091650D9091660D0E943A
:103BF00015FE7093781B6093771B00936B1B1093DB
:103C00006E1B8CE390E1A0E0B0E080936F1B90937B
:103C1000701BA093711BB093721B0E94C69C4091B5
:103C20006F0D5091700D2091870D3091880D80910E
:103C3000FF16909100174217530741F42091670D2A
:103C40003091680D2817390709F49CC00E948AA793
:103C50008091870D9091880D8E37910514F08DE736
:103C600090E09093880D8093870D0E948FA780919C
:103C7000FF16909100179093781B8093771B05E0B7
:103C800000936B1B12E810936E1B84E390E1A0E09D
:103C9000B0E080936F1B9093701BA093711BB09347
:103CA000721B0E94C69C8091870D9091880D909305
:103CB000781B8093771B00936B1B10936E1B8AE31A
:103CC00090E1A0E0B0E080936F1B9093701BA093F5
:103CD000711BB093721B0E94C69C80917118811158
:103CE00041C060916F0D7091700D4091870D5091A2
:103CF000880D6417750764F02091670D3091680D89
:103D00008091FF1690910017281739070CF06BC1AE
:103D100080912211882309F463C181E090E090939F
:103D2000781B8093771B85E080936B1B82E88093E0
:103D30006E1B84E190E1A0E0B0E080936F1B909354
:103D4000701BA093711BB093721B0E94C69C1092B3
:103D5000500D10924F0D8091F60D811101C081E040
:103D60008093F60D8091870D9091880D9093700D42
:103D700080936F0D8091FF16909100179093680DBE
:103D80008093670D80919205811105C08091940503
:103D9000882309F4DAC00091FF161091001701156D
:103DA000110509F120E030E048EC52E46091011780
:103DB0007091021780910317909104170E94AEF63C
:103DC0004B015C01B801110F880B990B0E944FF653
:103DD0009B01AC01C501B4010E94ADFD0E941AFE19
:103DE0006536710510F064E670E07093781B60939F
:103DF000771B05E000936B1B12E810936E1B84E2A7
:103E000090E1A0E0B0E080936F1B9093701BA093B3
:103E1000711BB093721B0E94C69C6091FF1670913B
:103E20000017072E000C880B990B0E944FF69B0180
:103E3000AC01609101177091021780910317909166
:103E400004170E94F7FE87FD5CC1809192058823CC
:103E500009F404C1109293051092920520E030E01D
:103E600040E251E46091890570918A0580918B054B
:103E700090918C050E94AEF60E9415FE7093781BFF
:103E80006093771B00936B1B10936E1B84E590E18E
:103E9000A0E0B0E080936F1B9093701BA093711B08
:103EA000B093721B0E94C69C20E030E040E251E4D7
:103EB00060918D0570918E0580918F059091900590
:103EC0000E94AEF60E9415FE7093781B6093771BDC
:103ED00000936B1B10936E1B88E590E1A0E0B0E0AF
:103EE00080936F1B9093701BA093711BB093721BF8
:103EF0000E94C69C80912211882309F4A6C081E00B
:103F00009AE59093781B8093771B87E190E09093DC
:103F10007A1B8093791B87E080936B1B10936E1B39
:103F200084E890E0A0E0B0E080936F1B9093701B5A
:103F3000A093711BB093721B0E94C69C83E090E01B
:103F4000C4D880918805809359068091F30D882309
:103F500029F18091910591E0980F9093910590E05F
:103F60009093781B8093771B85E080936B1B82E88E
:103F700080936E1B82E490E1A0E0B0E080936F1B21
:103F80009093701BA093711BB093721B0E94C69CF0
:103F9000809191058A3010F01092910560914F0D3B
:103FA0007091500D072E000C880B990B6053784FC1
:103FB0008F4F9F4FC60ED71EE81EF91EC0926B058D
:103FC000D0926C05E0926D05F0926E05A2CA109237
:103FD000781B1092771BA8CC20E020CD20E05FCD8D
:103FE0008DE090E09CCE4617570724F08217930788
:103FF0000CF0B8CE80912211882321F188E090E066
:104000009093781B8093771B85E080936B1B82E8ED
:1040100080936E1B84E190E1A0E0B0E080936F1B81
:104020009093701BA093711BB093721B0E94C69C4F
:104030001092500D10924F0D8091F60D811190CE7F
:1040400082E08ECE84E190E0DBCF81E09AE5909330
:10405000781B8093771B81E490E059CF8091940581
:10406000882309F44EC0109294051092B405109262
:10407000B30581E08093F20D84E090E09093781B8B
:104080008093771B00936B1B10936E1B8EE890E15F
:10409000A0E0B0E080936F1B9093701BA093711B06
:1040A000B093721B0E94C69C80912211882301F15B
:1040B00081E09AE59093781B8093771B88E090E0ED
:1040C00090937A1B8093791B87E080936B1B1093EE
:1040D0006E1B84E890E0A0E0B0E080936F1B9093AB
:1040E000701BA093711BB093721B0E94C69C2DCFB6
:1040F00081E09AE59093781B8093771B83E590E0AD
:10410000DFCF80919405882309F41FCF8091B305F8
:104110009091B4059C012F5F3F4F3093B4052093DD
:10412000B30565E070E00E94BEFF9093781B80931A
:10413000771B85E080936B1B82E880936E1B8EE873
:1041400090E1A0E0B0E0C9CFAF92BF92CF92DF92F2
:10415000EF92FF920F931F93CF93DF931F92CDB7F0
:10416000DEB76C018B0159018091810781111BC061
:104170007B01E40EF51EF601808191810E944EFCC8
:104180008983F80181938F01BE016F5F7F4FC50165
:104190000E94DB9EF601808191810196918380834C
:1041A000E016F10641F70F90DF91CF911F910F912B
:1041B000FF90EF90DF90CF90BF90AF9008950E9456
:1041C000A1BD0E9496CE0E94781290E080E00E94ED
:1041D0003F1381E090E00E943F1382E090E00E9454
:1041E0003F13609194077091950780919607909185
:1041F00097070E949A140E94F19E0C94BD12FC0134
:1042000020E03EE2DB014D91BD01403249F0283013
:1042100011F430833196DB0111974C914083319634
:104220002F5F2B3079F71082089561E0FC018081C7
:104230000C94FBA18EBD0DB407FEFDCF08958FEF4A
:104240008EBD0DB407FEFDCF8EB508958F929F925F
:10425000AF92BF92EF92FF920F931F93CF937C0187
:10426000C62F49015A01FC019281892F806A8695E7
:104270008CBD90FD03C081E0963009F480E08DBDD7
:1042800060E0F70180810E94FBA18CE291E00E9436
:1042900062A58C2F8064CEDF08E110E0D501C40157
:1042A000002E04C0B695A795979587950A94D2F7E6
:1042B000C1DF08501109083FFFEF1F0779F785E9B3
:1042C000CC2321F087E8C83009F08FEFB3DFCC3082
:1042D00009F4B5DFC0E0B3DFF701838387FF04C0D3
:1042E000CF3F11F0CF5FF7CFCF911F910F91FF908C
:1042F000EF90BF90AF909F908F9008950F931F9372
:10430000CF93DF93EC0189018C81833039F089E010
:10431000440F551F661F771F8A95D1F79A01AB018D
:1043200068E1CE0193DF882319F086E0898335C0E8
:104330008EEF8EBDF801C8019E5F0DB407FEFDCF64
:1043400020812EBD0DB407FEFDCF21812EBD3296FA
:10435000E817F90791F70DB407FEFDCF8FEF6ADF7D
:104360008FEF68DF6CDF8B838F71853091F488E588
:1043700092E00E9462A5182F87E11123B9F220E094
:1043800030E0A9016DE0CE0161DF882351F086E1C4
:10439000CDCF83E18983CE0148DFCE0146DF10E037
:1043A00005C04DDF8111F3CFCE013FDF812FDF91BB
:1043B000CF911F910F910895CF9380917815C1E00F
:1043C000882399F040917015509171156091721584
:1043D0007091731520E733E18091791590917A15EA
:1043E0008DDFC82F811104C0C0E08C2FCF910895BC
:1043F00040917415509175156091761570917715EF
:10440000411551056105710589F020E733E180917F
:10441000791590917A1572DF882331F31092741513
:1044200010927515109276151092771510927815D6
:10443000DCCFEF92FF920F931F93CF93DF93EC01AA
:1044400079018C81833039F089E0440F551F661F54
:10445000771F8A95D1F79A01AB0161E1CE01F6DEB3
:10446000882331F084E08983CE01DFDE80E034C030
:104470000E94F5A48B01E3DE8B838F3F71F40E94D1
:10448000F5A4601B710B6D327140A8F381E1898343
:10449000CE01CBDE8FEFCEDEE9CF8E3F11F08FE085
:1044A000F6CF8FEF8EBDF701D701A150BE4F0DB4EF
:1044B00007FEFDCF9EB591938EBDAE17BF07B9F72E
:1044C0000DB407FEFDCF8EB58C93B9DEB8DECE01FC
:1044D000ACDE8FEFAFDE81E0DF91CF911F910F91C6
:1044E000FF90EF900895CF92DF92EF92FF92CF93DB
:1044F0006B017C01C42F8091701590917115A09172
:104500007215B09173158C159D05AE05BF05F1F0C0
:1045100053DF811108C0C0E08C2FCF91FF90EF9046
:10452000DF90CF90089520E733E1B701A601809195
:10453000791590917A157DDF882369F3C092701503
:10454000D0927115E0927215F0927315CC2321F080
:1045500081E080937815E0CFC1E0DECF4F925F928B
:104560006F927F928F929F92AF92BF92CF92DF9283
:10457000EF92FF920F931F93CF93DF93EC014230A2
:1045800051056105710590F480E0DF91CF911F9195
:104590000F91FF90EF90DF90CF90BF90AF909F90E2
:1045A0008F907F906F905F904F90089589859A8546
:1045B000AB85BC850196A11DB11D84179507A60783
:1045C000B70710F38F898031C1F5852E962EA72E5F
:1045D000BB248B899C89AD89BE89880E991EAA1E31
:1045E000BB1E280139016A017B0141E0C501B4010C
:1045F0007ADF882349F29F89903181F5DD24EE240A
:10460000FF24F601EE0FFF1FE059FC4E11830083DB
:104610009A89923008F4B9CF4D815E816F81788597
:10462000840E951EA61EB71E809274159092751565
:10463000A0927615B0927715A8CF803209F0A4CF5A
:104640008B899C89AD89BE894A015B01E7E0B694FC
:10465000A79497948794EA95D1F7BFCFE894C7F8C9
:10466000DD24EE24FF24F601EE0FFF1FEE0FFF1FE7
:10467000E059FC4E4082518262827382C9CFCF9250
:10468000DF92EF92FF920F931F93CF93DF93FC0182
:1046900081859285A385B4850196A11DB11D8417DE
:1046A0009507A607B70750F480E0DF91CF911F91DF
:1046B0000F91FF90EF90DF90CF9008958789803120
:1046C000A9F5BB27A72F962F852FC388D488E58807
:1046D000F6888C0D9D1DAE1DBF1DE9016A017B0191
:1046E0008F01409170155091711560917215709104
:1046F000731584179507A607B70749F5F801878949
:10470000803161F5B701A601552766277727440F49
:10471000551F40595C4EFA0180819181B0E0A0E0C4
:1047200088839983AA83BB8381E0BFCF803209F05D
:10473000BBCFC388D488E588F688DB01CA01C7E00F
:10474000B695A79597958795CA95D1F7C2CF40E0C2
:10475000BC01CD01C8DE8111D1CFA6CFB701A60122
:104760004F77552766277727440F551F440F551F4E
:1047700040595C4EFA0180819181A281B381BF7062
:10478000CFCF4F925F926F927F92AF92BF92CF92B4
:10479000DF92EF92FF920F931F93CF93DF9300D09E
:1047A0001F92CDB7DEB78C0149835A836B837C831C
:1047B0005901C12CD12C7601412C82E0582E612C5C
:1047C000712C49815A816B817C819E012F5F3F4F03
:1047D000C80155DF882319F1F8018585A3019201ED
:1047E00004C0220F331F441F551F8A95D2F7DA01E8
:1047F000C901C80ED91EEA1EFB1E49815A816B8170
:104800007C8187898031F1F481E0483F5F4F610509
:104810007105B8F2F501C082D182E282F3820F9075
:104820000F900F900F90DF91CF911F910F91FF90FC
:10483000EF90DF90CF90BF90AF907F906F905F90A0
:104840004F90089581E0483F5F4F6F4F7F4008F4DD
:10485000B8CFE0CF0F931F93CF93DF93FC01238159
:10486000222331F080E0DF91CF911F910F910895C5
:104870008B01EC01FB018789803139F582E08B8364
:104880001D8A1E8A1F8A188E808D918DB0E0A0E04F
:1048900025E0880F991FAA1FBB1F2A95D1F7898B86
:1048A0009A8BAB8BBC8B1A8F098F81E089831C821A
:1048B0001D821E821F82188619861A861B861C86F8
:1048C0001D861E861F86188ACECF803259F683E059
:1048D0008B83428D538D648D758D4D8B5E8B6F8B6D
:1048E000788F9E012F5E3F4FC8014BDF8111DBCFD8
:1048F000B9CF8F929F92AF92BF92CF92DF92EF92F9
:10490000FF920F931F93CF93DF93EC018B81811163
:104910000EC080E0DF91CF911F910F91FF90EF903B
:10492000DF90CF90BF90AF909F908F9008950989AE
:104930001A892B893C89041715072607370748F37E
:104940004A015B01823031F488869986AA86BB864B
:1049500081E0E0CF81149104A104B10449F41C82E8
:104960001D821E821F82188619861A861B86F0CF2A
:10497000088519852A853B85E98DFA8D858590E026
:104980000996B901A8014150510961097109082E20
:1049900004C076956795579547950A94D2F77501A7
:1049A0006401E1E0CE1AD108E108F10804C0F694F0
:1049B000E794D794C7948A95D2F7C416D506E6062D
:1049C000F70620F0012B022B032B09F58D899E8918
:1049D000AF89B88D8C839D83AE83BF838E010C5FBE
:1049E0001F4FC114D104E104F10409F4ADCF4C818F
:1049F0005D816E817F819801898D9A8D40DE91E085
:104A0000C91AD108E108F1088111EBCF82CFC41A8D
:104A1000D50AE60AF70AE2CF40E050E0BA0169CFD2
:104A20003F924F925F926F927F928F929F92AF923E
:104A3000BF92CF92DF92EF92FF920F931F93CF938B
:104A4000DF93CDB7DEB72C970FB6F894DEBF0FBE5D
:104A5000CDBF5C01DC0159968D909C90F40181855D
:104A60009285A385B4859C01AD012F5F3F4F4F4FC9
:104A70005F4F29873A874B875C87D50114964D9005
:104A80005D906D907C9017974114510461047104FE
:104A900009F458C0BFEF4B1A5B0A6B0A7B0A312C32
:104AA000730162011D821E821F821886F4018185B6
:104AB0009285A385B4852D813E814F815885281725
:104AC00039074A075B0708F054C089859A85AB858A
:104AD000BC858C159D05AE05BF0550F482E0C82E3F
:104AE000D12CE12CF12C92E0492E512C612C712C0F
:104AF0009E012F5F3F4FB701A601C401C0DD88238F
:104B0000C1F189819A81AB81BC81892B8A2B8B2B46
:104B100001F1260137019FEF491A590A690A790AFA
:104B20002D813E814F8158852F5F3F4F4F4F5F4F03
:104B30002D833E834F8358873FEFC31AD30AE30A7E
:104B4000F30AB4CF40805180628073803324339461
:104B5000A7CFC414D504E604F70411F70FEF1FEF35
:104B60002FEF3FE0B701A601C401F8DC782E8111D8
:104B70001AC0712C872D2C960FB6F894DEBF0FBE8D
:104B8000CDBFDF91CF911F910F91FF90EF90DF90FC
:104B9000CF90BF90AF909F908F907F906F905F90DD
:104BA0004F903F900895F50144815581668177814A
:104BB000411551056105710531F097018601C40168
:104BC000CDDC8823B1F2D5011496CD92DD92ED9221
:104BD000FC921797332051F0D701C6010196A11D11
:104BE000B11DF40180839183A283B383F50185898C
:104BF0009689A789B08D892B8A2B8B2B09F0BACF88
:104C0000C58AD68AE78AF08E818180688183B2CF97
:104C1000CF93DF93EC01462F41706C857D858E85A7
:104C20009F8561DC882351F0888920E2829FC00142
:104C3000112480599C4EDF91CF91089590E080E03F
:104C4000FACFCF93DF93EC018B81882339F18981EF
:104C500087FF21C061E0CE01DBDFFC01892BF1F091
:104C60008081853ED9F08B81823040F489899A8990
:104C7000AB89BC89848F958FA68FB78F8D899E89CC
:104C8000938F828F8D899E89AF89B88DB58BA48BC8
:104C900089818F778983DF91CF918ECB81E0888363
:104CA00080E0DF91CF9108952F923F924F925F92D3
:104CB0006F927F928F929F92AF92BF92CF92DF922C
:104CC000EF92FF920F931F93CF93DF9300D01F9229
:104CD000CDB7DEB78C014B011A01DC0113968C9124
:104CE0001397813009F0C7C011968C9181FFC3C022
:104CF00082FDAEC06101D80118964D915D916D9114
:104D00007C911B97C114D10409F414C159968D915B
:104D10009C915A97FC0174802FEF270D2A013B01CB
:104D200039E076946794579447943A95D1F7722E68
:104D300074207A01F1E0FF2271101FC0E114F10428
:104D4000E1F414964D915D916D917C911797411509
:104D500051056105710509F094C055968D919D919D
:104D60000D90BC91A02D0097A105B10509F0A1C03F
:104D7000C80156DE882309F47EC080E092E08E19D7
:104D80009F0956018C159D0508F45C01D8015996C0
:104D90004D915C915A9714968D919D910D90BC9177
:104DA000A02D0297A109B109FA01258504C0880F39
:104DB000991FAA1FBB1F2A95D2F746855785608980
:104DC0007189840F951FA61FB71F9C01AD01270D88
:104DD000311D411D511D29013A01A11432E0B306D4
:104DE00009F075C08091701590917115A0917215A0
:104DF000B0917315481659066A067B0669F410923D
:104E000078158FEF9FEFDC018093701590937115EB
:104E1000A0937215B09373159401B301A201809110
:104E2000791590917A156ADA882329F1F80180853D
:104E30009185A285B3858A0D9B1DA11DB11D80871B
:104E40009187A287B3878A0C9B1CCA18DB0853CFB3
:104E5000F801418952896389748980859185A28589
:104E6000B385481759076A077B0709F443CFC80180
:104E700040DD81113FCF81E0D8018C938FEF9FEF10
:104E80006FC09E012F5F3F4FFADB8823A1F389811A
:104E90009A81AB81BC81F801218D328DF90127897E
:104EA000203169F4883FFFEF9F07A105B10508F0A5
:104EB0005FCFF80184839583A683B7835ECF883F55
:104EC0002FEF9207A2072FE0B20798F351CFE1141A
:104ED000F10449F5D80118964D915D916D917C9141
:104EE0001B9751968D919D910D90BC91A02D4817C7
:104EF00059076A077B07B8F05FDA882309F4BBCF4C
:104F000081E08093781540927015509271156092EF
:104F1000721570927315A501B401C70180599C4E9A
:104F20000E94F4FF83CF41E0C301B201DCDA8111BA
:104F3000F2CFA1CFF80181899289A389B48984171E
:104F40009507A607B70738F48181418B528B638B95
:104F5000748B80688183F801818183FD18C0C10151
:104F60000F900F900F900F90DF91CF911F910F91A5
:104F7000FF90EF90DF90CF90BF90AF909F908F9079
:104F80007F906F905F904F903F902F900895C80151
:104F900058DE8111E4CF6FCFCF93DF931F92CDB74F
:104FA000DEB7698341E050E0BE016F5F7F4F04963A
:104FB0007BDE0F90DF91CF910895CF93DF93EC01CB
:104FC00040DE1B82DF91CF910895FC0123812111E6
:104FD000F4CF0895CF93DF93EB01FC0123812111DE
:104FE00004C080E0DF91CF9108952250223028F450
:104FF0008FE28883198281E0F5CF60E009DE0097B7
:1050000081F3DC0160E080E09EE22D91203299F096
:10501000883031F49E01260F311DF90190836F5FB6
:105020009E01260F311DAD0141505109FA01408109
:10503000F90140836F5F8F5F8B3039F7FE01E60F18
:10504000F11D1082D8CF2F923F924F925F926F92B4
:105050007F928F929F92AF92BF92CF92DF92EF9208
:10506000FF920F931F93CF93DF9300D01F92CDB782
:10507000DEB79C838B834B017A01DC0113968C9104
:10508000811119C08FEF9FEF0F900F900F900F902D
:10509000DF91CF911F910F91FF90EF90DF90CF9014
:1050A000BF90AF909F908F907F906F905F904F9048
:1050B0003F902F900895EB81FC81818180FFE2CFAA
:1050C00001891289238934894085518562857385D8
:1050D000C701B0E0A0E028013901441A550A660A68
:1050E000770A481659066A067B0618F47801E41A0E
:1050F000F50A67018B819C8104969A838983612CD0
:1051000032E0732EC114D10409F4B4C0AB81BC8168
:1051100018964D915D916D917C911B975A01B1E06C
:10512000BB22EB81FC81818D928D1A012B0129E03C
:1051300056944794379427942A95D1F723812230A7
:1051400089F5DC015A966D917D918D919C915D97C9
:10515000620D731D841D951D83010A191B09C0165C
:10516000D10608F486010115B2E01B0771F4209105
:105170007015309171154091721550917315621729
:1051800073078407950709F057C040E0ACD988231E
:1051900009F478CFB50160597C4EA801C4010E9482
:1051A000F4FF55C0FC01148111501221A114B10467
:1051B00081F411110EC0452B462B472B79F5EB815D
:1051C000FC8185899689A789B08D84839583A68380
:1051D000B783AB81BC815996ED91FC915A97149697
:1051E0006D917D918D919C91179762507109810904
:1051F0009109258504C0660F771F881F991F2A957E
:10520000D2F72685378540895189620F731F841F25
:10521000951F610F711D811D911D9ECFAB81BC81BA
:1052200014964D915D916D917C91179729813A81EA
:1052300026DA8111CECF26CF9401AB01BC0180913B
:10524000791590917A15F5D8882309F41BCF800E33
:10525000911EEB81FC8180859185A285B385800FAD
:10526000911FA11DB11D80879187A287B387C01AA6
:10527000D10A48CFC70108CFDF92EF92FF920F9378
:105280001F93CF93DF938C01EB017A018DE0D82E31
:1052900040E250E0BE01C801D6DE8032910571F0D7
:1052A00021E0892B09F420E0822F8195DF91CF91B5
:1052B0001F910F91FF90EF90DF9008952881222396
:1052C000C1F1253E29F32E3219F3E114F10439F12D
:1052D0003B853F733F3019F54A8D5B8D452BF9F4C3
:1052E0002F713FEF320F3230D0F42150330BD29E6A
:1052F000C001D39E900D1124D701A80FB91FFE0144
:1053000020E0AD01253078F431813D932F5F329656
:105310002D30C1F7288126FF02C0FA0115862B85A2
:1053200023FDB6CFC3CF2B3010F43481EECF3681BE
:10533000ECCF80E0BBCF4F925F926F927F92AF92A3
:10534000BF92CF92DF92EF92FF920F931F93CF9372
:10535000DF931F92CDB7DEB78C017B015A01C22EBD
:10536000DB0159968D919C91F801928F818FCB0131
:1053700053DB712CF70180859185A285B385418926
:1053800052896389748984179507A607B70708F0BF
:1053900051C055E0B695A795979587955A95D1F741
:1053A000F82FFF70DF2ED70113968C91823010F406
:1053B00080E0D9C041E050E0BE016F5F7F4FC70180
:1053C00042DE0197A9F7F70180859185A285B38513
:1053D0004F96A11DB11D80879187A287B387F0E208
:1053E000DF9EB001112460597C4E6115710501F3F7
:1053F000DB018C91882341F0853E09F04BC077207A
:1054000029F077247394B6CF71100EC08091701577
:1054100090917115A0917215B0917315F801848760
:105420009587A687B787D08ADB018C918111E9CF58
:10543000772473948C2D8274823409F0B9CF77204D
:1054400009F4A1C0F801D08861E0C801E1DB009750
:1054500009F4AECF20E2DC011D922A95E9F72BE09A
:10546000F501DC0101900D922A95E1F721E238E285
:10547000FC01318B208B40E058E057874687338B07
:10548000228B318F208F578B468B0E94DC2181111C
:1054900009C08ECF4BE050E0C5010E94E7FF892B89
:1054A00009F068CFF0E2DF9ED00111249D01205960
:1054B0003C4EF9018385817121F08C2D827109F0B8
:1054C000FAC0F801818D928D40917015509171153F
:1054D0006091721570917315448755876687778739
:1054E000D08AFD01E059FC4E44885588712C612C0E
:1054F000320155244424D80155964D925D926D9207
:105500007C925897428D538D70E060E04429552974
:105510006629772955964D935D936D937C935897A3
:10552000D9011B962C91287109F0B8C0848D958DF6
:10553000A68DB78DF801818B928BA38BB48B81E004
:1055400083838C2D8F70F8018183148215821682DB
:105550001782108611861286138681E0C4FE03C06E
:10556000C8010E948B9D0F90DF91CF911F910F91E9
:10557000FF90EF90DF90CF90BF90AF907F906F90B3
:105580005F904F900895D70113968C9113978230B6
:1055900009F40ECF51968D919D910D90BC91A02D47
:1055A000803E9F4FAF41B10508F002CFC70138DA06
:1055B000882309F4FDCE0E94DC21882309F4F8CE6B
:1055C000D7015996ED91FC915A9714964D905D90A4
:1055D0006D907C901797B2E04B1A510861087108E2
:1055E000858504C0440C551C661C771C8A95D2F72F
:1055F00086859785A089B189480E591E6A1E7B1E33
:1056000081E08093781540927015509271156092E8
:10561000721570927315E0E7F3E180E092E0DF012C
:105620009C011D9221503040E1F7DD24D394D70135
:105630005996ED91FC918481D81698F420E733E1D6
:10564000B301A2014D0D511D611D711D8091791590
:1056500090917A150E947E21882309F4A9CED394D3
:10566000E6CF258580E092E0A0E0B0E004C0880F9E
:10567000991FAA1FBB1F2A95D2F7F70141895289AA
:1056800063897489840F951FA61FB71F818B928B26
:10569000A38BB48B80E793E1D12CDCCE203159F47D
:1056A00098012F5E3F4F6DD8882329F084E0D80100
:1056B00013968C9346CFD80113961C9279CE2F92D5
:1056C0003F924F925F926F927F928F929F92AF9292
:1056D000BF92CF92DF92EF92FF920F931F93CF93DF
:1056E000DF93CDB7DEB7C254D1090FB6F894DEBF51
:1056F0000FBECDBF4C015B016A01322E19821C82A4
:105700001C8E1F8E672B11F510E0CE014C965DDCD0
:10571000CE0101965ADC812FCE5BDF4F0FB6F89495
:10572000DEBF0FBECDBFDF91CF911F910F91FF90D4
:10573000EF90DF90CF90BF90AF909F908F907F9031
:105740006F905F904F903F902F900895FC01838160
:105750008111DACFFA0180818F32B9F4CA016C016C
:105760000196F60120812F32D1F3F5018381825019
:10577000823058F0618D728DCE014C966BD88E01BF
:10578000045E1F4F811102C0BFCF8501CE0101967B
:105790007C013C012E019CE1490E511C2396EFAE89
:1057A00023972F2CFE01F796CF010B96AF0120E235
:1057B0002193E817F907D9F7960190E067E0D9013E
:1057C0008D91882351F18F3241F1282F8E3239F497
:1057D0006A3009F499CF98E06AE09D01F0CFE6E7DE
:1057E000F0E13491332321F031968313FACF8CCF3B
:1057F000691708F489CF813208F486CF8F3709F40E
:1058000083CF3FE9380F3A3110F420EE280FFA0128
:10581000E90FF11D20839F5FE0CF8FA9803209F44B
:1058200073CF6901F90180812F5F3F4F8F32C9F338
:105830008823C9F021E0B801C7017DDD882309F480
:1058400063CF0A151B0511F0C801B7DB942D852D18
:105850006E147F0421F023969FAD2397822D87013C
:10586000E92EF82E9FCF232DB801C40164DD182F37
:105870004CCF1F93CF93DF93CDB7DEB76B970FB6A7
:10588000F894DEBF0FBECDBFAB0119821C8222E0AF
:10589000BC01CE01019613DF81110FC010E0CE01D3
:1058A000019693DB812F6B960FB6F894DEBF0FBE87
:1058B000CDBFDF91CF911F910895CE0101960E9437
:1058C0008B9D882359F361E0CE010196A1D9009701
:1058D00029F325EEFC0120831C820E94DC21182F75
:1058E000DECF29E433E0FC013183208304966DCBC5
:1058F0005F9AE0E6FDE010828A9A11829FB7F894E1
:10590000A8E0B1E08C9181608C939FBF1282129AC3
:1059100008954F925F926F927F928F929F92AF9273
:10592000BF92CF92DF92EF92FF920F931F93CF938C
:10593000DF93EC0120919A0D30919B0D40919C0DCD
:1059400050919D0D688179818A819B810E94D0FC54
:105950006B017C016091820770918307072E000C18
:10596000880B990B0E944FF69B01AC01C701B60151
:105970000E94D0FC6B017C0120919E0D30919F0D07
:105980004091A00D5091A10D6C817D818E819F81F0
:105990000E94D0FC4B015C016091840770918507E7
:1059A000072E000C880B990B0E944FF69B01AC014F
:1059B000C501B4010E94D0FC4B015C01A701960116
:1059C00060910D0270910E0280910F029091100271
:1059D0000E9449F6882309F44AC0C0920D02D09271
:1059E0000E02E0920F02F092100220911407309103
:1059F00015074091160750911707C701B6010E947D
:105A0000AEF62B013C010E9446FE6B017C0120E0BA
:105A100030E0A9010E9449F687FD6AC020E030E02D
:105A200040E050E4C701B6010E94F7FE18162CF4BE
:105A3000C12CD12CE12CA0E4FA2EA7019601C301C0
:105A4000B2010E94D0FC6093040770930507809315
:105A5000060790930707C701B6010E9415FE6093E1
:105A6000030762300CF048C06F5F60930207D0916B
:105A70000802C0910307A501940160910902709189
:105A80000A0280910B0290910C020E9449F681114A
:105A900035C0DC137DC02091E4063091E5064091CD
:105AA000E6065091E7066091040770910507809122
:105AB0000607909107070E94AEF62091E806309104
:105AC000E9064091EA065091EB060E94D1FCDF9175
:105AD000CF911F910F91FF90EF90DF90CF90BF90EB
